:100000000C94CB000C94F3000C94F3000C94F300CC
:100010000C94F3000C94F3000C94F3000C94F30094
:100020000C94F3000C94F3000C94F3000C94F30084
:100030000C94F3000C94F3000C94F3000C94F30074
:100040000C94121F0C94F3000C94EE1D0C94C81D1C
:100050000C94F3000C94F3000C94F3000C94F30054
:100060000C94F3000C94F30045746865726E65742B
:100070002053657276657220616464726573733AA9
:1000800000476174657761793A20004572726F723A
:100090002C2070726F626C656D20776974682047E0
:1000A0006174657761793A2000444E533A200045E7
:1000B00072726F722C2070726F626C656D2077693E
:1000C000746820444E533A200049503A200045724B
:1000D000726F722C2070726F626C656D207769741C
:1000E000682049503A2000217A0021720021440002
:1000F000214200214100214100214A00214B0021E1
:100100004D00214C00214F00214E00215000215371
:100110000021520021570021560021640021660071
:1001200021680021410000000000240027002A006F
:10013000010204081020408001020408102001027E
:10014000040810200404040404040404020202024B
:100150000202030303030303DEADBEEFFEED2148FD
:100160000021470021490021460000000000250031
:1001700028002B00000000002300260029000000BA
:100180000008000201000003040700000000000056
:100190000000382B202C11241FBECFEFD8E0DEBF8B
:1001A000CDBF13E0A0E0B1E0ECE9FFE502C00590AF
:1001B0000D92A43DB107D9F725E0A4EDB3E001C04D
:1001C0001D92A239B207E1F710E0CAECD0E004C0FA
:1001D0002197FE010E94582CC93CD107C9F70E9403
:1001E0001F240C94C12F0C940000CF93DF93CDB744
:1001F000DEB72C970FB6F894DEBF0FBECDBF60916F
:100200000401709105014AE0CE0101960E940F237E
:1002100064E872E0CE0101960E94EA14CE010796CE
:100220000E949919BE01695F7F4FCE0101960E941D
:100230008B22CE0107960E940A23BE016F5F7F4F7B
:10024000CE0107960E94712341E0BE01695F7F4F96
:1002500088E090E00E94681ACE0107960E940A2367
:10026000CE0101960E940A232C960FB6F894DEBFA9
:100270000FBECDBFDF91CF910895CF93DF93EC01F7
:10028000FB01248135810E94D013CE01DF91CF91F3
:100290000895FC0124813581232B31F421E061157F
:1002A0007105A1F0FB0108C0FC01808191816115FD
:1002B000710531F421E0FC018081882339F005C00B
:1002C0000E946E2E21E0892B09F020E081E0822738
:1002D00008952F923F924F925F926F927F928F92EA
:1002E0009F92AF92BF92CF92DF92EF92FF920F93C5
:1002F0001F93CF93DF93CDB7DEB7CA51D1400FB66E
:10030000F894DEBF0FBECDBF8C017B016AE072E0C6
:10031000CE01835F9E4F0E948B230A30110509F4A2
:1003200031C5CCF40630110509F4FBC36CF401307F
:10033000110509F4E7C00530110509F493C301154F
:10034000110509F09BC62AC00830110509F4A1C4A3
:100350000CF45BC4DCC40E30110509F474C53CF424
:100360000C30110509F43EC50CF410C597C50031D9
:10037000110509F4D2C50CF494C50236110509F033
:100380007DC663EB72E0CE0101960E948B2341E0B3
:10039000BE016F5F7F4F82E690E097C685E00E94C6
:1003A000201E7C0186E00E94201E8C01EF2819F49B
:1003B00063EB72E002C06AEA72E0CE018F5F9E4F8B
:1003C0000E948B2366E872E0CE018F5F9E4F0E94F1
:1003D000EA14012B19F463EB72E002C06AEA72E0DE
:1003E000CE018F5F9E4F0E94EA1466E872E0CE0154
:1003F0008F5F9E4F0E94EA1480910801811103C013
:100400006AEA72E002C063EB72E0CE018F5F9E4F3A
:100410000E94EA1466E872E0CE018F5F9E4F0E9450
:10042000EA148091E703811103C06AEA72E002C016
:1004300063EB72E0CE018F5F9E4F0E94EA1466E884
:1004400072E0CE018F5F9E4F0E94EA14609102011C
:1004500070910301CE018F5F9E4F0E94A71466E842
:1004600072E0CE018F5F9E4F0E94EA1460910001FE
:1004700070910101CE018F5F9E4F0E94A71466E824
:1004800072E0CE018F5F9E4F0E94EA146091D40308
:100490007091D503CE018F5F9E4F0E94A71466E82E
:1004A00072E0CE018F5F9E4F0E94EA1460910601B8
:1004B00070910701CE018F5F9E4F0E94A71466E8DE
:1004C00072E0CE018F5F9E4F0E94EA148091D603A6
:1004D000811103C06AEA72E002C063EB72E0CE01F0
:1004E0008F5F9E4F0E94EA14BE016F5F7E4FCE0168
:1004F00001960E94712341E0BE016F5F7F4F80E053
:1005000090E079C36AE072E0C7010E944901882344
:1005100009F487C2B701CE018D5E9E4F0E94712300
:100520006AE072E0CE01895F9E4F0E948B236CE2ED
:10053000CE018D5E9E4F0E947C148C01019689F540
:10054000C95EDE4F08811981C751D1400F3F8FEF3F
:100550001807B9F00115110511F4198212C0CD5E0A
:10056000DE4F68817981C351D140A801CE01019647
:100570000E947E2EE1E0F0E0EC0FFD1FE00FF11F86
:100580001082CE0101960E948D2E603C2FEC7207E6
:1005900022EE820720E5920708F41FC20E945C1F2A
:1005A0001CC2BE016D5E7E4FCE018F5F9E4F0E94CA
:1005B0007123980140E050E0BE016F5F7E4FCE0195
:1005C00001960E94D013BE016F5F7F4FCE01895FFD
:1005D0009E4F0E94D122CE0101960E940A23CE0195
:1005E000895F9E4F0E94C5131B012C01A8014F5F1C
:1005F0005F4FBE016F5F7E4FCE0101960E943D01AD
:10060000BE016F5F7F4FCE018F5F9E4F0E94D12250
:10061000CE0101960E940A236CE2CE018F5F9E4FAD
:100620000E947C148C010F3F8FEF180709F472C5EC
:10063000980140E050E0BE016F5F7E4FCE01019611
:100640000E94D013BE016F5F7F4FCE01895F9E4F26
:100650000E94D122CE0101960E940A23CE01895F19
:100660009E4F0E94C513D62EA8014F5F5F4FBE015B
:100670006F5F7E4FCE0101960E943D01BE016F5F0C
:100680007F4FCE018F5F9E4F0E94D122CE010196F7
:100690000E940A236CE2CE018F5F9E4F0E947C1461
:1006A0008C018F3F2FEF920709F434C59C0140E085
:1006B00050E0BE016F5F7E4FCE0101960E94D013C5
:1006C000BE016F5F7F4FCE01895F9E4F0E94D12296
:1006D000CE0101960E940A23CE01895F9E4F0E949F
:1006E000C513762EA8014F5F5F4FBE016F5F7E4F2F
:1006F000CE0101960E943D01BE016F5F7F4FCE018A
:100700008F5F9E4F0E94D122CE0101960E940A2344
:100710006CE2CE018F5F9E4F0E947C148C010F3FD4
:100720008FEF180709F4F6C4980140E050E0BE01CD
:100730006F5F7E4FCE0101960E94D013BE016F5FA6
:100740007F4FCE01895F9E4F0E94D122CE0101963C
:100750000E940A23CE01895F9E4F0E94C513C75E87
:10076000DE4F6883C951D140A8014F5F5F4FBE0182
:100770006F5F7E4FCE0101960E943D01BE016F5F0B
:100780007F4FCE018F5F9E4F0E94D122CE010196F6
:100790000E940A236CE2CE018F5F9E4F0E947C1460
:1007A0007C018F3F2FEF920709F4B4C49C0140E015
:1007B00050E0BE016F5F7E4FCE0101960E94D013C4
:1007C000BE016F5F7F4FCE01895F9E4F0E94D12295
:1007D000CE0101960E940A23CE01895F9E4F0E949E
:1007E000C513C65EDE4F6883CA51D140A7014F5F73
:1007F0005F4FBE016F5F7E4FCE0101960E943D01AB
:10080000BE016F5F7F4FCE018F5F9E4F0E94D1224E
:10081000CE0101960E940A23CE018F5F9E4F0E9457
:10082000C513662E810184E6281631041CF0025B94
:10083000174002C0025E1F4F00937005D0926F05F3
:1008400070926E05C75EDE4F2881C951D14020935A
:100850006C05C65EDE4F8881CA51D14080936B051E
:1008600060926A05A02FB0E020E833E341EE51E04A
:100870000E94682F4B015C01E2EBF7E098013327FF
:1008800004E610E080E9E82EFF24F394CF01825BB8
:10089000974082179307D4F4CF0183709927892B4F
:1008A00099F4CF01B8010E94302C892B31F4CF018B
:1008B000B7010E94302C892B39F480E8880E81E53D
:1008C000981E81E0A81EB11C3196E0CF2E54384FFF
:1008D000C90164E670E00E94302C8C01C90160E916
:1008E00071E00E94302C7C01E1E0F0E0CD2CD12CB5
:1008F000190183E028223324EC15FD052CF5E230A4
:10090000F10589F42114310471F40115110519F46C
:10091000E114F10441F420E8820E2BE3921E26E25A
:10092000A21EB11C0FC0DF01A451BE4FAC91B0E0BC
:1009300020E831E541E050E00E94682F860E971EC6
:10094000A81EB91E3196D8CFC75EDE4FC880C951E8
:10095000D1402C2D30E0A0E1BEE00E94B22F6B010F
:100960007C01A72DB0E0119720E831E541E050E08F
:100970000E94732FDC01CB018C0D9D1DAE1DBF1D90
:100980006C017D01C60CD11CE11CF11CC65EDE4F62
:100990005880CA51D140252D30E0ACE3B0E00E9430
:1009A000B22FDC01CB018C0D9D1DAE1DBF1DBC0106
:1009B000CD01680D791D8A1D9B1D0E945C1F6CE294
:1009C00071E080E090E00E94CC1E10E0CE018F5FCD
:1009D0009E4F0E940A23112391F069EF70E0CE012F
:1009E00001960E94682341E0BE016F5F7F4F83E064
:1009F00090E00E94681ACE0101960E940A23CE015F
:100A0000895F9E4F0E940A23CE018D5E9E4F0E94F9
:100A10000A231092DF031092E0031092E103109278
:100A2000E2036CEF70E0CE018F5F9E4F0E9468235F
:100A3000CE0101960E949919BE016F5F7F4FCE01D2
:100A40008F5F9E4F0E948B2268E872E080E094E006
:100A50000E941D24BE016F5F7E4F80E094E00E94E3
:100A6000FE23CBC0B701CE018F5F9E4F0E94712342
:100A70006AE072E0CE018F5F9E4F0E944901882399
:100A800009F4ADC0CE018F5F9E4F0E94C513613047
:100A90007105E9F462E071E0CE0101960E946823DD
:100AA00041E0BE016F5F7F4F82E090E00E94681AD4
:100AB000CE0101960E940A2360E085E00E94491E53
:100AC00061E088E00E94491E63EB72E01FC0672B63
:100AD00009F097C06FEF70E0CE0101960E94682385
:100AE00041E0BE016F5F7F4F82E090E00E94681A94
:100AF000CE0101960E940A2361E085E00E94491E12
:100B000060E088E00E94491E6AEA72E0CE01019628
:100B10000E948B2341E0BE016F5F7F4F85E090E034
:100B20006AC0B701CE018F5F9E4F0E9471236AE0B9
:100B300072E0CE018F5F9E4F0E944901882309F425
:100B40004EC0CE018F5F9E4F0E94C513613071056C
:100B5000E9F468E071E0CE0101960E94682341E06B
:100B6000BE016F5F7F4F82E090E00E94681ACE0165
:100B700001960E940A2360E086E00E94491E61E01F
:100B800089E00E94491E63EB72E01EC0672BC9F525
:100B900065E071E0CE0101960E94682341E0BE014C
:100BA0006F5F7F4F82E090E00E94681ACE0101964D
:100BB0000E940A2361E086E00E94491E60E089E00D
:100BC0000E94491E6AEA72E0CE0101960E948B23C0
:100BD00041E0BE016F5F7F4F86E090E00CC063EFA5
:100BE00074E0CE0101960E94712341E0BE016F5F67
:100BF0007F4F84E090E00E94681ACE0101960E9427
:100C00000A23CE018F5F9E4F64C2B701CE01895F78
:100C10009E4F0E9471236AE072E0CE018F5F9E4F6B
:100C20000E948B236AE072E0CE01895F9E4F0E9492
:100C30004901882309F45BC1CE01895F9E4F0E9460
:100C4000C51370930301609302016BE071E0CE0164
:100C50008F5F9E4F0E94922260910201709103016A
:100C6000CE018F5F9E4F0E94A714BE016F5F7E4F23
:100C7000CE0101960E94712341E0BE016F5F7F4F5C
:100C800082E090E00E94681ACE0101960E940A2339
:100C90002BC1B701CE01895F9E4F0E9471236AE08C
:100CA00072E0CE018F5F9E4F0E948B236AE072E05C
:100CB000CE01895F9E4F0E944901882309F417C124
:100CC000CE01895F9E4F0E94C51321E0672B682BE0
:100CD000692B09F420E020930801222319F061E137
:100CE00071E002C06EE071E0CE018F5F9E4F0E9406
:100CF0009222BE016F5F7E4FCE0101960E9471234A
:100D000041E0BE016F5F7F4F82E090E0FCC0B70121
:100D1000CE01895F9E4F0E9471236AE072E0CE018E
:100D20008F5F9E4F0E948B236AE072E0CE01895F45
:100D30009E4F0E944901882309F4D9C0CE01895FE2
:100D40009E4F0E94C51321E0672B682B692B09F485
:100D500020E02093E703222319F067E171E002C04D
:100D600064E171E0CE018F5F9E4F0E94922210924B
:100D7000E3031092E4031092E5031092E6030E944D
:100D8000CB18B7CF81E00E94CA1AA5C1B701CE0126
:100D9000895F9E4F0E9471236AE072E0CE018F5FEF
:100DA0009E4F0E948B236AE072E0CE01895F9E4FC6
:100DB0000E944901882309F49AC0CE01895F9E4FA1
:100DC0000E94C51370930101609300016AE171E014
:100DD000CE018F5F9E4F0E94922260910001709120
:100DE00001012BC0B701CE01895F9E4F0E94712384
:100DF0006AE072E0CE018F5F9E4F0E948B236AE013
:100E000072E0CE01895F9E4F0E944901882309F458
:100E10006EC0CE01895F9E4F0E94C5137093D503AB
:100E20006093D4036DE171E0CE018F5F9E4F0E940D
:100E300092226091D4037091D503CE018F5F9E4FB3
:100E40000E94A7149CCFB701CE01895F9E4F0E94DC
:100E500071236AE072E0CE018F5F9E4F0E948B2368
:100E60006AE072E0CE01895F9E4F0E9449018823AB
:100E7000F1F1CE01895F9E4F0E94C5137093070167
:100E80006093060160E271E0CE018F5F9E4F0E9489
:100E900092226091060170910701CFCF0E94F50068
:100EA0001AC1B701CE01895F9E4F0E9471236AE08B
:100EB00072E0CE018F5F9E4F0E948B236AE072E04A
:100EC000CE01895F9E4F0E944901882381F0CE01A7
:100ED000895F9E4F0E94C51321E0672B682B692B09
:100EE00009F420E02093D6030E94CB1812C063EFD0
:100EF00074E0CE0101960E94712341E0BE016F5F54
:100F00007F4F84E090E00E94681ACE0101960E9413
:100F10000A23CE018F5F9E4FABC0B701CE01895F20
:100F20009E4F0E9471236AE072E0CE01895F9E4F5E
:100F30000E944901882309F48BC06CE7CE01895FC8
:100F40009E4F0E947C14019609F494C064E972E0FB
:100F500080E094E00E941D2460E375E080E094E06E
:100F60000E94FE23BE01695F7E4FCE0101960E9462
:100F7000712340E050E0BE016F5F7F4FCE018F5F75
:100F80009E4F0E941614BE016F5F7E4F80E395E076
:100F90000E94D122CE018F5F9E4F0E940A23CE0174
:100FA00001960E940A23BE01695F7E4FCE01019621
:100FB0000E94712341E050E0BE016F5F7F4FCE0180
:100FC0008F5F9E4F0E941614BE016F5F7E4F8AE2B4
:100FD00095E00E94D122CE018F5F9E4F0E940A238E
:100FE000CE0101960E940A23BE01695F7E4FCE01A9
:100FF00001960E94712342E050E0BE016F5F7F4F77
:10100000CE018F5F9E4F0E941614BE016F5F7E4F10
:1010100084E295E00E94D122CE018F5F9E4F0E9414
:101020000A23CE0101960E940A2360E375E080E066
:1010300094E00E94FE236AE275E080E094E00E9462
:10104000FE2364E275E080E094E00E94FE2312C07B
:1010500063EF74E0CE0101960E94712341E0BE016E
:101060006F5F7F4F84E090E00E94681ACE01019686
:101070000E940A23CE01895F9E4F2BC063E271E07C
:10108000CE01835F9E4F0E949222B801CE01835F02
:101090009E4F0E94A7146FE972E0CE01835F9E4FBE
:1010A0000E94EA14B701CE01835F9E4F0E948B22FB
:1010B000BE01635F7E4FCE0101960E94712341E025
:1010C000BE016F5F7F4F84E090E00E94681ACE01FE
:1010D00001960E940A23CE01835F9E4F0E940A233D
:1010E000C65EDE4F0FB6F894DEBF0FBECDBFDF91F8
:1010F000CF911F910F91FF90EF90DF90CF90BF9015
:10110000AF909F908F907F906F905F904F903F90A7
:101110002F90089511E05ACC8F929F92AF92BF9278
:10112000CF92DF92EF92FF920F931F93CF93DF93B3
:10113000CDB7DEB72C970FB6F894DEBF0FBECDBF8C
:101140006C016AE072E0CE0101960E948B236AE393
:10115000C6010E947C148C010F3F8FEF180709F421
:1011600067C0980140E050E0B601CE0107960E94AA
:10117000D013CE0107960E94C5137B01CE010796BE
:101180000E940A23A8014F5F5F4FB601CE01079668
:101190000E943D01BE01695F7F4FCE0101960E9412
:1011A000D122CE0107960E940A23C980DA80C11499
:1011B000D10409F441C00D811E8101151105E1F131
:1011C00046015401EFEF8E1A9E0AF5018081082E28
:1011D000000C990B0E94B42E892B99F7015011092C
:1011E0000C0D1D1DF8018081082E000C990B0E942A
:1011F000B42E892B79F4A8014F5F5F4F4A195B0920
:101200005E834D83CA14DB0458F4B501C6010E9405
:101210005A2E06C00A151B0570F301501109E2CFC2
:10122000E981FA818D819E81E80FF91F108204C047
:10123000C6010E94C5137B01BE016F5F7F4FCE01C7
:1012400007960E947123BE01695F7F4FC7010E940C
:101250006901CE0107960E940A23CE0101960E94E1
:101260000A232C960FB6F894DEBF0FBECDBFDF91D8
:10127000CF911F910F91FF90EF90DF90CF90BF9093
:10128000AF909F908F900895CF93DF931F92CDB72B
:10129000DEB76983DC01ED91FC910280F381E02DE2
:1012A00041E050E0BE016F5F7F4F09950F90DF91E5
:1012B000CF910895FC01818D928D0895FC01848960
:1012C000958908952FED31E0FC0131832083FB01E6
:1012D0004089518962897389FC0142835383648305
:1012E00075830895DC01ED91FC91008CF18DE02D6A
:1012F0000994CF93DF931F92CDB7DEB76983DC01EA
:10130000ED91FC910280F381E02D41E050E0BE01BF
:101310006F5F7F4F09950F90DF91CF910895FC018A
:101320009485FB018485981303C081E0943009F40F
:1013300080E0089521E0FC018485843009F420E0F8
:10134000822F08950895AF92BF92CF92DF92FF92BD
:101350000F931F93CF93DF938C015B01EA01FC0194
:10136000C688D788F08C80E590E00E94860D8F2D8E
:101370000E9441138C179D0720F48F2D0E9441136A
:10138000EC019E01A501B6018F2D0E94DC120E9486
:10139000850DF801868997898C0F9D1F978B868B09
:1013A000CE01DF91CF911F910F91FF90DF90CF90F1
:1013B000BF90AF900895CF92DF92EF92FF920F937C
:1013C0001F93CF93DF93CDB7DEB7AF970FB6F894E7
:1013D000DEBF0FBECDBF7C016A010FED11E01A83A5
:1013E00009831C861B8688EE93E0A0E0B0E08D8721
:1013F0009E87AF87B88B8DE391E09A878987188F96
:101400000F8B198E1A8E1B8E1C8E84E089A31DA350
:101410000CA31EA21FA218A619A68091E704909102
:10142000E804A091E904B091EA048CA79DA7AEA7B7
:10143000BFA78B839C83AD83BE8318861F82AE01BA
:101440004C5D5F4FCE0101960E948D0E813091055B
:10145000B1F4D701ED91FC910088F189E02D1BA733
:101460000AA78EA19FA1A8A5B9A58CA79DA7AEA7E5
:10147000BFA7A601BE01665D7F4FC7010995AF9664
:101480000FB6F894DEBF0FBECDBFDF91CF911F9195
:101490000F91FF90EF90DF90CF900895CF93DF935F
:1014A000EC01888D843061F00E944F16E88DF0E0E9
:1014B000EE0FFF1FE952FC4F1182108284E0888FEB
:1014C000DF91CF910895EF92FF921F93CF93DF9317
:1014D000FC01208D243011F080E01CC07B01EC0168
:1014E00010E0812F0E941E17811102C0188F05C0C5
:1014F0008831E1F31F5F1430A1F7888D843061F3E8
:10150000FD86EC861A8E198E20E0A70162E00E940B
:10151000631681E0DF91CF911F91FF90EF900895C6
:101520000F931F93CF93DF931F92CDB7DEB78C013C
:10153000DC01ED91FC910480F581E02D0995892B6A
:1015400051F0BE016F5F7F4FF80184850E94011545
:10155000898190E002C08FEF9FEF0F90DF91CF91D4
:101560001F910F910895FC0184850C945B15CF9316
:10157000DF931F92CDB7DEB741E050E0BE016F5F51
:101580007F4FFC0184850E945B15181619061CF418
:10159000898190E002C08FEF9FEF0F90DF91CF9194
:1015A00008959B0190E00496982F8827642F820F5E
:1015B000931F0C9485210F931F93CF93DF931F925A
:1015C000CDB7DEB790E00496982F88278C01060FE0
:1015D000171F0E9424218FE00E94FA14812F0E947D
:1015E000FA14802F0E94FA1480E00E94FA14898372
:1015F0000E94222189810F90DF91CF911F910F913D
:101600000895CF93FC01C08D80E590E00E94860D87
:1016100060E270E08C2F0E94001262E070E08C2F7C
:101620000E94DB0A84FD19C062E070E08C2F0E94EA
:10163000DB0A83FF0BC048E162E070E08C2F0E9460
:10164000D10A0E94850D80E090E011C00E94850DB6
:1016500080E590E00E94860DE0CF40E162E070E01E
:101660008C2F0E94D10A0E94850D81E090E0CF91DD
:101670000895CF93DF93C82FD62F472F60E170E0F6
:101680000E94D10A4D2F61E170E08C2FDF91CF9144
:101690000C94D10AFF920F931F93CF93DF93FB011A
:1016A000DC0157961C921E9256975896FC908281A8
:1016B000811109C08381811106C08481811103C019
:1016C00085818823F9F041155105E1F08A01EF0188
:1016D00080E590E00E94860DBE016E5F7F4F2F2D4A
:1016E00030E0922F882744E050E0845F9B4F0E94B7
:1016F0005621B8018F2D0E94390B0E94850D81E083
:1017000090E002C080E090E0DF91CF911F910F91B7
:10171000FF900895FC018485843011F00C941E170D
:1017200080E008958F929F92AF92BF92CF92DF9206
:10173000EF92FF920F931F93CF93DF93CDB7DEB756
:101740002D970FB6F894DEBF0FBECDBF7C0100E031
:1017500010E038EE832E33E0932EA12CB12C4FE90C
:10176000C42E41E0D42E1C821B828D829E82AF82C9
:10177000B886DA82C9820D87CE0101960E948A0B53
:10178000811125C0F7014481558120E061E0802F5F
:101790000E94631680E590E00E94860D63E070E091
:1017A000802F0E94DB0A833129F462E070E0802FF1
:1017B0000E9400120E94850DF70184819581000F1F
:1017C000111FF801E952FC4F9183808305C00F5F20
:1017D0001F4F0430110539F62D960FB6F894DEBF71
:1017E0000FBECDBFDF91CF911F910F91FF90EF9072
:1017F000DF90CF90BF90AF909F908F900895CF9340
:10180000DF93FC0124852430D1F0EC010E948A0B87
:10181000843181F0882371F0883161F08C3161F47A
:10182000E881F9810480F581E02DCE01099521E060
:10183000892B19F420E001C021E0822F01C080E053
:10184000DF91CF910895CF92DF92EF92FF921F9395
:10185000CF93DF93FC0114851430A9F1EC0180E5EE
:1018600090E00E94860D68E070E0812F0E940012D7
:101870000E94850D0E94061F6B017C01CE010E9413
:101880008A0B8823B1F061E070E080E090E00E9474
:10189000CC1E0E94061FDC01CB018C199D09AE09EC
:1018A000BF09883E9340A105B10540F38C850E9495
:1018B0004F16EC85F0E0EE0FFF1FE952FC4F11824E
:1018C000108284E08C87DF91CF911F91FF90EF9081
:1018D000DF90CF9008954F925F926F927F928F9298
:1018E0009F92AF92BF92CF92DF92EF92FF921F939F
:1018F000CF93DF93CDB7DEB72D970FB6F894DEBF49
:101900000FBECDBF7C0197EDA92E93E0B92E10E05C
:10191000C12CD12C28EE422E23E0522E612C712CAA
:101920003FE9832E31E0932E1C821B824D825E8222
:101930006F8278869A8289821D87D5012D913D918B
:101940005D01F7018481958128173907B1F4CE0133
:1019500001960E948A0B843169F0CE0101960E94A3
:101960008A0B8C3151F4CE0101960E947C0D892B9B
:1019700091F003C0CC24C394D12C1F5F1430A1F686
:10198000CD2871F4D701ED91FC910480F581E02D13
:10199000C701099505C0CE0101960E94230CEDCF29
:1019A0002D960FB6F894DEBF0FBECDBFDF91CF915D
:1019B0001F91FF90EF90DF90CF90BF90AF909F90DE
:1019C0008F907F906F905F904F9008952F923F92ED
:1019D0004F925F926F927F928F929F92AF92BF923F
:1019E000CF92DF92EF92FF920F931F93CF93DF93EB
:1019F000CDB7DEB72E970FB6F894DEBF0FBECDBFC2
:101A00007C016B015A010E946B0C07ED13E020E092
:101A1000612C712C88EE282E83E0382E412C512C1D
:101A20009FE9892E91E0992E1C821B822D823E8295
:101A30004F8258869A8289822D87F801419151916F
:101A40008F01F701848195814817590741F4CE0130
:101A500001962E870E948A0B2E858731E9F02F5F31
:101A6000243011F7C3012E960FB6F894DEBF0FBED7
:101A7000CDBFDF91CF911F910F91FF90EF90DF903D
:101A8000CF90BF90AF909F908F907F906F905F901E
:101A90004F903F902F900895A501B601CE01019679
:101AA0002E870E94890D680E791E2E85D8CFCF9380
:101AB000DF931F92CDB7DEB76983DC01ED91FC9116
:101AC0000280F381E02D41E050E0BE016F5F7F4F67
:101AD00009950F90DF91CF910895DC01ED91FC9174
:101AE000048CF58DE02D099591E089270895862FC6
:101AF000089581E086270895FC018485843011F0E3
:101B00000C94391580E090E0089508958CBD9DBD3A
:101B100008958F929F92AF92BF92CF92DF92EF92F1
:101B2000FF920F931F93CF936C015B017A01FC012D
:101B3000C485C43041F481E090E0F6019383828350
:101B400080E090E04EC08A014130584010F000E043
:101B500018E080E590E00E94860D8C2F0E944113D2
:101B60004C0163E070E08C2F0E94DB0A873111F09A
:101B70008C3121F48016910660F302C000E010E081
:101B800080E590E00E94860D9801A50160E070E07C
:101B90008C2F0E94DC1260E270E08C2F0E940012F9
:101BA00062E070E08C2F0E94DB0A84FD10C063E0CD
:101BB00070E08C2F0E94DB0A811104C08C2F0E94E0
:101BC0004F16B9CF80E590E00E94860DE9CF40E145
:101BD00062E070E08C2F0E94D10A012B09F4ABCF98
:101BE000C701CF911F910F91FF90EF90DF90CF90A1
:101BF000BF90AF909F908F900895CF92DF92FF9209
:101C00000F931F93CF93DF93FC012485243009F0B9
:101C100077C06A01EB018C01F12C8F2D0E941E17F9
:101C2000811103C0F801F48607C08B7F8831D1F39E
:101C3000F394F4E0FF12F1CFF8018485843009F4C5
:101C40005FC02091090130910A012F5F3F4F11F4CD
:101C500020E030EC30930A01209309014091090102
:101C600050910A0120E061E00E946316F801F484BB
:101C70008A818F3F51F48B818F3F91F48C818F3F0C
:101C800079F48D818F3F61F438C0811109C08B8157
:101C9000811106C08C81811103C08D81882369F177
:101CA000C114D10451F180E590E00E94860DBE017F
:101CB0006E5F7F4F8F2D90E0982F882744E050E093
:101CC000845F9B4F0E945621B6018F2D0E94390BD5
:101CD00064E070E08F2D0E940012C8010E948A0B00
:101CE000873189F061E070E080E090E00E94CC1ED6
:101CF000C8010E948A0B8111F0CF84E0F80184872B
:101D000080E090E002C081E090E0DF91CF911F91F0
:101D10000F91FF90DF90CF9008952F923F924F92B6
:101D20005F926F927F928F929F92AF92BF92CF926B
:101D3000DF92EF92FF920F931F93CF93DF93CDB774
:101D4000DEB765970FB6F894DEBF0FBECDBF7C013E
:101D50006B013A01FB0120E080E090E06AE0319104
:101D6000332309F140ED430F4A3080F4689FA0010E
:101D7000699F500D1124CA01C097830F911D37FD33
:101D80009A958F3F910559F350F313C03E3289F471
:101D9000233079F0D301A20FB11D12968C932F5FDF
:101DA00080E090E0DCCF233021F4F301858381E0F3
:101DB00021C0F70142815381648175818091EF04D4
:101DC0009091F004A091F104B091F20448175907E2
:101DD0006A077B0709F49EC10E94061F8701085FFE
:101DE0001F4F6F7077277C5FC8010E94630A8130A4
:101DF00019F080E090E0F3C18FED91E09A83898340
:101E0000F70182819381A481B5818B839C83AD830B
:101E1000BE8345E350E0BE016F5F7F4FC8010E9463
:101E20004A0B892B19F4C12CD12C6FC10E94061FBB
:101E3000F701778366837627672776277A83698316
:101E400042E050E0BE016F5F7F4FC8010E94A309CE
:101E500081E090E09E878D8742E050E0BE01635FA5
:101E60007F4FC8010E94A30980E091E09E878D8783
:101E700042E050E0BE01635F7F4FC8010E94A309AA
:101E80001E861D8642E050E0BE01635F7F4FC801A1
:101E90000E94A30942E050E0BE01635F7F4FC8018A
:101EA0000E94A30942E050E0BE01635F7F4FC8017A
:101EB0000E94A3095601F5018081882311F1F601E2
:101EC0005F018191811115C045018C189D0818147E
:101ED000190494F48F8641E050E0BE01615F7F4FAA
:101EE000C8010E94A309A401B601C8010E94A30968
:101EF00003C08E3229F7E8CF6501FFEFCF1ADF0A62
:101F0000DACF1F8641E050E0BE01615F7F4FC8011C
:101F10000E94A309C12CDD24D394DE86CD8642E045
:101F200050E0BE01635F7F4FC8010E94A309DE86B7
:101F3000CD8642E050E0BE01635F7F4FC8010E9442
:101F4000A309C8010E94010B892B09F46CCF63E03F
:101F5000A62EB12CF2E06F0E711C0E94061F1B0111
:101F60002C01C8010E94F61518161906A4F00E944B
:101F7000061FDC01CB0182199309A409B509893830
:101F80009341A105B105D0F462E370E080E090E0F8
:101F90000E94CC1EE6CFF701428153816481758196
:101FA000808D918DA28DB38D481759076A077B07E5
:101FB00041F4848D958DC59721F406C02FEF3FEF36
:101FC0009AC02EEF3FEF97C0F70181A192A10C9725
:101FD0000CF4A6C04CE050E0BE016F5F7F4FC8011B
:101FE0000E94AE158B8190E0982F88272C81822B40
:101FF0009A8B898B298130E0322F22274A81242B2A
:10200000F701468157814217530709F086C097FFB1
:1020100084C08F709270892B09F0DEC0CF80D12CE4
:10202000DC2CCC248885C82AC114D10409F4D1C081
:10203000812C912C8D8190E0982F88272E81822BE6
:102040008816990608F46FC0812C912C41E050E06D
:10205000BE016D5E7F4FC8010E94AE158B89982F1F
:10206000907C09F093C0811186C08B898111EECFDD
:1020700042E050E0BE01615F7F4FC8010E94AE1593
:1020800042E050E0BE01635F7F4FC8010E94AE1581
:10209000C8010E94CD15C8010E94CD15C8010E943B
:1020A000CD15C8010E94CD1542E050E0BE016F5E23
:1020B0007F4FC8010E94AE158F8598898115914088
:1020C00009F069C02D853E8532272327322721302C
:1020D000310509F060C089899A898115944009F019
:1020E00075C044E050E0B301C8012C8B3D8B0E94C9
:1020F000AE152C893D896901F1E0AF1AB10829F0CC
:102100002FEFC216D20609F428CFC8010E944E0A4A
:10211000C60165C08EEF9FEF62C02CEF3FEFEBCFA3
:102120002DEF3FEFE8CF41E050E0BE01635F7F4F0E
:10213000C8010E94AE158D85811113C08D85811156
:10214000F2CFC8010E94CD15C8010E94CD15C8016B
:102150000E94CD15C8010E94CD15FFEF8F1A9F0A6E
:1021600069CF8D859FEF980F9D87882339F3C8012C
:102170000E94CD15F6CF8B899FEF980F9B8B8823FC
:1021800009F473CFC8010E94CD15F5CFC8010E9494
:10219000CD151B8A6ACF412C512C89899A899827A1
:1021A000892798274816590638F4C8010E94CD158A
:1021B0008FEF481A580AF1CFEFEF8E1A9E0A8C144F
:1021C0009D0409F043CF26EF3FEF95CF27EF3FEF78
:1021D00092CF2AEF3FEF8FCF2BEF3FEF8CCF65965B
:1021E0000FB6F894DEBF0FBECDBFDF91CF911F9128
:1021F0000F91FF90EF90DF90CF90BF90AF909F90A6
:102200008F907F906F905F904F903F902F900895A8
:10221000CF92DF92EF92FF920F931F93CF93DF93B2
:10222000CDB7DEB7AF970FB6F894DEBF0FBECDBF08
:102230007C016A010FED11E01A8309831C861B865D
:1022400088EE93E0A0E0B0E08D879E87AF87B88BE3
:102250008DE391E09A878987188F0F8B198E1A8EDC
:102260001B8E1C8E84E089A31DA30CA31EA21FA29B
:1022700018A619A68091E7049091E804A091E904BA
:10228000B091EA048CA79DA7AEA7BFA78B839C83C0
:10229000AD83BE8318861F82AE014C5D5F4FCE01B9
:1022A00001960E948D0E81309105B1F4D701ED9118
:1022B000FC910484F585E02D1BA70AA78EA19FA1A0
:1022C000A8A5B9A58CA79DA7AEA7BFA7A601BE01CB
:1022D000665D7F4FC7010995AF960FB6F894DEBFD4
:1022E0000FBECDBFDF91CF911F910F91FF90EF9067
:1022F000DF90CF900895CF93DF93BC0180E094E00E
:102300000E94A023EC0168E072E080E094E00E946B
:10231000A0238C0F9D1FDF91CF9108950F931F93E2
:102320000E94061F609308047093090480930A04B6
:1023300090930B04E0910004F09101040680F78172
:10234000E02D80E094E0099597FF1FC00E94061FD2
:10235000009108041091090420910A0430910B04A3
:10236000DC01CB01801B910BA20BB30B0091040489
:1023700010910504209106043091070480179107FD
:10238000A207B307B8F28FEF9FEF1F910F91089547
:10239000CF93DF93DC01ED91FC910190F081E02D72
:1023A00060E074E00995EC0168E072E080E094E0A0
:1023B0000E94A0238C0F9D1FDF91CF9108950F9352
:1023C0001F93CF93DF938C01C0E0D0E0F801EC0FB6
:1023D000FD1F6491662371F0E0910004F091010407
:1023E0000190F081E02D80E094E00995892B11F0B7
:1023F0002196ECCFCE01DF91CF911F910F910895DF
:10240000CF93C82F462F61E070E00E94D10A61E0AF
:1024100070E08C2F0E94DB0A8111F9CFCF910895D3
:10242000BF92CF92DF92EF92FF920F931F93CF93C1
:10243000DF937C016B018A01E9016CE271E080E0CD
:1024400090E00E94CC1EBFB6F89480913D058111AA
:1024500027C0EEE4F1E08491EAE3F1E09491E82F03
:10246000F0E0EE0FFF1FEA5DFE4FA591B491EC91F5
:10247000E92321F461E08AE00E94491E61E08AE0DC
:102480000E94791E8CB580618CBD8CB580648CBD3A
:1024900061E08DE00E94791E61E08BE00E94791E70
:1024A00080913D058F5F80933D05BFBE229A80E5F8
:1024B00090E00E94860D60E880E090E00E94852117
:1024C00065E58BE190E00E94852165E58AE190E079
:1024D0000E9485210E94850D80E090E49093F10395
:1024E0008093F00380E090E69093F9038093F803E3
:1024F00080E098E49093F3038093F20380E098E601
:102500009093FB038093FA0380E090E59093F503AA
:102510008093F40380E090E79093FD038093FC03A5
:1025200080E098E59093F7038093F60380E098E7C6
:102530009093FF038093FE0380E590E00E94860D58
:1025400046E050E068E571E089E090E00E945621A5
:10255000B7016E5F7F4F44E050E08FE090E00E9453
:102560005621B8016E5F7F4F44E050E081E090E07B
:102570000E945621BE016E5F7F4F44E050E085E02F
:1025800090E00E9456210E94850DF6018281938180
:10259000A481B5818093E7049093E804A093E904B3
:1025A000B093EA04DF91CF911F910F91FF90EF90CC
:1025B000DF90CF90BF9008959F92AF92BF92CF923D
:1025C000DF92EF92FF920F931F93CF93DF93982E9A
:1025D0008B015A01690164E270E00E94DB0AE82E77
:1025E000F12C65E270E0892D0E94DB0AFE2CEE24BE
:1025F000E82AE701C00FD11F9E013770E92CF12CAA
:10260000C701880F991FAC0140515C4F7A01FA0154
:1026100080819181820F931FA9014C0D5D1D413076
:10262000584090F000E018E0021B130BA801B50120
:102630000E945621A601401B510BB501600F711F6E
:10264000F7018081918102C0A601B5010E94562147
:10265000CC0DDD1D4D2F64E270E0892D0E94D10A62
:102660004C2F65E270E0892DDF91CF911F910F9182
:10267000FF90EF90DF90CF90BF90AF909F900C9421
:10268000D10AFF920F931F93CF93DF93F82EC0E0F0
:10269000D0E08F2D0E94BF218C01892B21F08F2D3E
:1026A0000E94BF21EC01C017D10799F7CE01DF913D
:1026B000CF911F910F91FF9008958F929F92AF92AB
:1026C000BF92CF92DF92EF92FF920F931F93CF931F
:1026D000DF93B82E4B018A01A22E68E270E00E94BF
:1026E000DB0AC82FD0E069E270E08B2D0E94DB0A84
:1026F000DC2FCC27C82B9E013770CB2CD12CC601E8
:10270000880F991FAC0148505C4F6A01FA01808123
:102710009181820F931FA801420F531F41305840EF
:1027200098F060E078E07B01E21AF30AA701B401B7
:102730000E942621A8014E195F09B4016E0D7F1D6C
:10274000F6018081918102C0A801B4010E94262176
:10275000A1100EC0C00FD11F4D2F68E270E08B2D6D
:102760000E94D10A4C2F69E270E08B2D0E94D10AA1
:10277000DF91CF911F910F91FF90EF90DF90CF905D
:10278000BF90AF909F908F900895FC0180819181C0
:10279000009711F00C948D2E60E070E0CB0108954D
:1027A000BF92CF92DF92EF92FF920F931F93CF933E
:1027B000DF937C016B018A01E9012417350720F4BE
:1027C000812F8901C42FD82F6AE072E0C7010E94CF
:1027D0008B23D60114968D919C9115970817190794
:1027E000D0F48C179D0708F4EC01D601ED91FC9113
:1027F0001197EC0FFD1FB08010824D915C91BA01D2
:10280000600F711FC7010E94BA22D601ED91FC91A1
:10281000EC0FFD1FB082C701DF91CF911F910F9187
:10282000FF90EF90DF90CF90BF9008956F927F92CE
:102830008F929F92AF92BF92CF92DF92EF92FF92D0
:102840000F931F93CF93DF938C016A01EB01AC8050
:10285000BD80C5010197E0E0F0E02FEF3FEF40E0E1
:1028600050E0A0E0B0E09E2E8F2E8E179F0764F1FF
:10287000CA16DB062CF1EF0121967E01EA15FB0555
:1028800060F4EB01688079806114710431F0E30138
:10289000CE0FDF1FC881CC3731F0E817F90719F0E8
:1028A000922E832E09C01196A9014F5F5F4FE81742
:1028B000F90711F49E2C8F2CF701292D382DD3CF39
:1028C000C8010E94D01308C0CA16DB06CCF36AE028
:1028D00072E0C8010E948B23C801DF91CF911F9144
:1028E0000F91FF90EF90DF90CF90BF90AF909F90AF
:1028F0008F907F906F900895CF93DF93FC01248198
:102900003581232B69F0C081D181062E000C770B15
:10291000CE010E94632E009719F08C1B9D0B02C004
:102920008FEF9FEFDF91CF910895FC0124813581D6
:102930006217730720F480819181009729F4109227
:102940003C058CE395E00895860F971F0895EF925C
:10295000FF920F931F93CF93DF93CDB7DEB72897E6
:102960000FB6F894DEBF0FBECDBF7C01CB014AE0AD
:102970008E010F5F1F4FB8010E94D82EF801019001
:102980000020E9F73197AF01401B510BB801C70197
:102990000E945D2228960FB6F894DEBF0FBECDBF11
:1029A000DF91CF911F910F91FF90EF900895CF93FA
:1029B000DF9300D0CDB7DEB769831A8241E050E0E3
:1029C000BE016F5F7F4F0E945D220F900F90DF91DD
:1029D000CF9108956115710551F0FB010190002020
:1029E000E9F73197AF01461B570B0C945D2280E04D
:1029F000089508958EBD00000DB407FEFDCF8EB57D
:102A000008951F93CF93DF9300D0CDB7DEB7182F73
:102A100080E590E069837A830E94860D21E041E0A1
:102A200050E069817A81812F0E945D130E94850D9B
:102A300081E090E00F900F90DF91CF911F9108956A
:102A4000CF93DF931F92CDB7DEB7FC01218D328D7E
:102A5000232B49F0BE016F5F7F4F808D0E940115CF
:102A6000898190E002C08FEF9FEF0F90DF91CF91AF
:102A70000895FF920F931F93CF93DF93F82E80E575
:102A800090E00E94860DC0E0D0E08F2D0E94A7212B
:102A90008C01892B21F08F2D0E94A721EC01C017FA
:102AA000D10799F70E94850DCE01DF91CF911F913B
:102AB0000F91FF900895AF92BF92CF92DF92EF9265
:102AC000FF921F93CF93DF93182F5B017A0180E56C
:102AD00090E00E94860DC0E0D0E0812F0E94A721E7
:102AE0006C01892B21F0812F0E94A721EC01CC15CC
:102AF000DD0599F7209799F463E070E0812F0E943B
:102B0000DB0A8431F1F08823E1F0C1E0D0E08C31C0
:102B100011F4C0E0D0E0D195C195D10912C0EC16F6
:102B2000FD060CF4E7011C161D065CF420E0AE0166
:102B3000B501812F0E945D1360E470E0812F0E9437
:102B400000120E94850DCE01DF91CF911F91FF9061
:102B5000EF90DF90CF90BF90AF900895CF93DF9329
:102B6000FC01218D328D2115310519F48FEF9FEF76
:102B700011C0EC014217530708F0A901888D0E948B
:102B80005B151816190694F7298D3A8D281B390BF9
:102B90003A8F298FDF91CF9108950F931F93CF9391
:102BA000DF931F92CDB7DEB7FC01218D328D232B31
:102BB00061F08C0141E050E0BE016F5F7F4F808D7E
:102BC0000E945B15181619061CF08FEF9FEF08C0C6
:102BD000F801818D928D0197928F818F898190E08C
:102BE0000F90DF91CF911F910F9108950F931F9335
:102BF000CF93DF93CDB7DEB728970FB6F894DEBF3B
:102C00000FBECDBF8C01F801818D928D892B49F0CB
:102C1000D801ED91FC910680F781E02DC80109955E
:102C2000F2CF808D0E943915181619065CF548E020
:102C300050E0BE016F5F7F4FD80158968C910E9483
:102C40005B159C0118161906DCF489819A81AB8109
:102C5000BC81F801808B918BA28BB38B8D8190E02E
:102C6000982F88272E81820F911D958B848B2F8121
:102C700030E0322F22278885280F311D328F218F97
:102C8000C90102C080E090E028960FB6F894DEBF3C
:102C90000FBECDBFDF91CF911F910F910895CF93BC
:102CA000C82F80E590E00E94860D60E170E08C2FD7
:102CB0000E9400124FEF62E070E08C2F0E94D10A58
:102CC000CF910C94850DFF920F931F93CF93DF93B9
:102CD00000D0CDB7DEB7F82E8A012A8369830E941F
:102CE0004F1680E590E00E94860D2A816981462F6B
:102CF000422B60E070E08F2D0E94D10A0115110572
:102D000051F400916205109163050F5F1F4F1093FE
:102D1000630500936205412F64E070E08F2D0E94EF
:102D2000D10A402F65E070E08F2D0E94D10A61E04A
:102D300070E08F2D0E9400120E94850D81E00F909F
:102D40000F90DF91CF911F910F91FF900895BF9247
:102D5000CF92DF92EF92FF920F931F93CF93DF9367
:102D600000D000D000D0CDB7DEB7FC01208D2430DC
:102D700009F053C06A017B018C01B12C63E070E063
:102D80008B2D0E94DB0A811103C0F801B08E06C0B2
:102D90008831D9F3B394F4E0BF12F0CFF801808DFD
:102DA0008430D9F196E0E7EEF1E0DE011196019072
:102DB0000D929A95E1F7F70193819F779C83948117
:102DC0009D8395819E83B7016E5F7F4F90E0982F22
:102DD000882744E050E0845F9B4F0E945621B60153
:102DE000F801808D0E94390BF801808D90E0982FBA
:102DF000882746E050E0BE016F5F7F4F8A5F9B4FA0
:102E00000E945621F801128E118E20E8A60162E080
:102E1000808D0E94631681E001C080E026960FB687
:102E2000F894DEBF0FBECDBFDF91CF911F910F9100
:102E3000FF90EF90DF90CF90BF9008951F93CF93B6
:102E4000DF931F92CDB7DEB7182F80E590E00E9488
:102E5000860D63E070E0812F0E94DB0A89830E9467
:102E6000850D89810F90DF91CF911F9108959F92D9
:102E7000AF92BF92CF92DF92EF92FF920F931F9388
:102E8000CF93DF93CDB7DEB760970FB6F894DEBF70
:102E90000FBECDBF6C01CE0101967C0188E0F70129
:102EA00011928A95E9F700E010E0A12CB12C9AE08C
:102EB000992EF601848195810817190760F5B801EC
:102EC000C6010E949514FC012081203209F12A30AC
:102ED000F9F02D30E9F0822F8D7F8C3221F4FFEF55
:102EE000AF1ABF0A15C0F501EE0FFF1FEE0DFF1D53
:102EF00040815181949EC001959E900D1124022E17
:102F0000000C330B20533109280F391F31832083E4
:102F10000F5F1F4FCECF88E0F701DE0119960190B9
:102F20000D928A95E1F729853A854B855C856D85FB
:102F30007E858F85988960960FB6F894DEBF0FBEA8
:102F4000CDBFDF91CF911F910F91FF90EF90DF9058
:102F5000CF90BF90AF909F9008950F931F93CF9302
:102F6000DF938C01C0E0D0E0F80141918F0150E087
:102F700060E070E02AE080E094E00E94B523C33076
:102F8000D10539F066E872E080E094E00E941D24EB
:102F900004C08AE092E00E947B112196C430D105E2
:102FA00019F7DF91CF911F910F9108950F931F9300
:102FB000CF93DF9300D000D000D0CDB7DEB76DEC5B
:102FC00072E080E094E00E941D244AE08E01035FDD
:102FD0001F4FF80161918F01CE0101960E943B23A2
:102FE000BE016F5F7F4F80E094E00E94FE23CE0120
:102FF00001960E940A2369EE72E080E094E00E944C
:103000001D24C8010E94AD1769EF72E080E094E0D2
:103010000E941D24CE0142960E94AD176AE073E023
:1030200080E094E00E941D24CE0146960E94AD17D8
:103030006FE173E080E094E00E941D246A8D70E0EF
:103040004AE0CE0101960E940F23BE016F5F7F4FC1
:1030500080E094E00E94FE23CE0101960E940A23A4
:1030600060E473E080E094E00E941D246B8D70E0CA
:103070004AE0CE0101960E940F23BE016F5F7F4F91
:1030800080E094E00E94FE23CE0101960E940A2374
:1030900066E673E080E094E00E941D246C8D7D8DD7
:1030A0004AE0CE0101960E940F23BE016F5F7F4F61
:1030B00080E094E00E94FE23CE0101960E940A2344
:1030C00069E773E080E094E00E941D246E8D7F8D9F
:1030D0004AE0CE0101960E940F23BE016F5F7F4F31
:1030E00080E094E00E94FE23CE0101960E940A2314
:1030F0006FE873E080E094E00E941D2468A179A14C
:103100004AE0CE0101960E940F23BE016F5F7F4F00
:1031100080E094E00E94FE23CE0101960E940A23E3
:1031200067EA73E080E094E00E941D246AA17BA11D
:103130004AE0CE0101960E940F23BE016F5F7F4FD0
:1031400080E094E00E94FE23CE0101960E940A23B3
:103150006BEB73E080E094E00E941D246CA17DA1E4
:103160004AE0CE0101960E940F23BE016F5F7F4FA0
:1031700080E094E00E94FE23CE0101960E940A2383
:1031800026960FB6F894DEBF0FBECDBFDF91CF916C
:103190001F910F910895EF92FF920F931F93CF937A
:1031A000DF93CDB7DEB7A8970FB6F894DEBF0FBE9A
:1031B000CDBF81E089831A821B821C821D821E8200
:1031C0001F82188619861A861B861C861D8660E358
:1031D00075E0CE0182960E947123CE0182960E94F4
:1031E00037172A8F4C8F6E8F88A3CE0182960E944C
:1031F0000A238A8D8A838C8D8B838E8D8C8388A104
:103200008D836AE275E0CE0182960E947123CE0121
:1032100082960E9437172A8F4C8F6E8F88A3CE011B
:1032200082960E940A238A8D8E838C8D8F838E8D49
:10323000888788A1898764E275E0CE0182960E9422
:103240007123CE0182960E9437172A8F3B8F4C8FB5
:103250005D8F6E8F7F8F88A399A3CE0182960E9487
:103260000A238A8D8A878C8D8B878E8D8C8788A187
:103270008D87809108018E878091E7038F878091E9
:10328000020190910301998B888B809100019091AC
:1032900001019B8B8A8B8091D4039091D5039D8BE8
:1032A0008C8B80910601909107019F8B8E8B809172
:1032B000D60390E0998F888F8DB79EB749970FB648
:1032C000F8949EBF0FBE8DBFADB7BEB7119689E112
:1032D000FE01319601900D928A95E1F70E94D61772
:1032E000FE0131967F010FB6F894DEBF0FBECDBF51
:1032F00000E010E0F70161917F01C80168A70E941A
:10330000302F68A5681719F0C8010E94382F0F5F89
:103310001F4F0931110571F7A8960FB6F894DEBF5B
:103320000FBECDBFDF91CF911F910F91FF90EF9016
:1033300008950F931F93CF93DF9300D000D000D058
:10334000CDB7DEB78C010E9400214AE0BC01C80164
:103350000E940F2362ED73E0C8010E94EA140E94EC
:10336000831F0E940D2080916F0590E00A972CF436
:103370006AEA72E0C8010E94EA140E94831F0E9458
:103380000D2060916F0570E04AE0CE0101960E9429
:103390000F23BE016F5F7F4FC8010E948B22CE01B9
:1033A00001960E940A2362ED73E0C8010E94EA14AC
:1033B0000E94831F0E940D2080916E0590E00A9765
:1033C0002CF46AEA72E0C8010E94EA140E94831F8A
:1033D0000E940D2060916E0570E04AE0CE010196DA
:1033E0000E940F23BE016F5F7F4FC8010E948B2296
:1033F000CE0101960E940A2360ED73E0C8010E948D
:10340000EA140E941A210A972CF46AEA72E0C801B1
:103410000E94EA140E941A214AE0BC01CE010196E2
:103420000E940F23BE016F5F7F4FC8010E948B2255
:10343000CE0101960E940A236FE972E0C8010E9442
:10344000EA140E9412210A972CF46AEA72E0C80179
:103450000E94EA140E9412214AE0BC01CE010196AA
:103460000E940F23BE016F5F7F4FC8010E948B2215
:10347000CE0101960E940A236FE972E0C8010E9402
:10348000EA140E940A210A972CF46AEA72E0C80141
:103490000E94EA140E940A214AE0BC01CE01019672
:1034A0000E940F23BE016F5F7F4FC8010E948B22D5
:1034B000CE0101960E940A23C80126960FB6F89401
:1034C000DEBF0FBECDBFDF91CF911F910F91089549
:1034D000EF92FF921F93CF93DF93CDB7DEB72C9778
:1034E0000FB6F894DEBF0FBECDBF7B01142F4AE0AC
:1034F000BC01CE0101960E940F236FE972E0CE015C
:1035000001960E94EA14B701CE0101960E948B2217
:1035100068E072E0CE0101960E94EA144D815E815E
:1035200069817A8180E094E00E94D82168EC70E0A3
:1035300080E090E00E94CC1E1123E1F0BE016F5F9D
:103540007F4FCE0107960E9471238091050584303C
:1035500069F089EF94E00E94FF0B882339F0BE01E7
:10356000695F7F4F89EF94E00E94FE23CE010796AA
:103570000E940A23CE0101960E940A232C960FB6C0
:10358000F894DEBF0FBECDBFDF91CF911F91FF90AA
:10359000EF900895CF92DF92EF92FF921F93CF9317
:1035A000DF93CDB7DEB72C970FB6F894DEBF0FBE12
:1035B000CDBF182F81113AC080916905811136C0A5
:1035C0000E9400218D3D97408CF580916805811106
:1035D00026C10E940A216EE170E00E94302C892BE6
:1035E00009F01DC167E671E0CE0101960E946823D3
:1035F00041E0BE016F5F7F4F83E090E00E94681A58
:10360000CE0101960E940A2381E0809368056AE05A
:1036100072E0CE0101960E948B2341E0BE016F5FF4
:103620007F4F81E090E00E94681AF4C00E94061F5C
:103630006B017C0180916905882309F470C0809139
:10364000640590916505A0916605B0916705C81A5B
:10365000D90AEA0AFB0A409102015091030128EEBF
:1036600033E0429FC001439F900D529F900D112463
:10367000092E000CAA0BBB0BC816D906EA06FB06DE
:1036800008F4DFC061E086E00E94491E60E089E046
:103690000E94491E6AEA72E0CE0101960E948B23C5
:1036A00041E0BE016F5F7F4F86E090E00E94681AA4
:1036B000CE0101960E940A231092690510926405BA
:1036C00010926505109266051092670564E671E038
:1036D000CE0101960E946823CE0107960E94991997
:1036E000BE01695F7F4FCE0101960E948B22CE0101
:1036F00007960E940A23BE016F5F7F4FCE01079697
:103700000E94712341E0BE01695F7F4F82E090E03B
:103710000E94681ACE0107960E940A237BC01111ED
:103720002AC00E941A2120910001309101018217C4
:10373000930709F086C00E9412212091D403309192
:10374000D5038217930709F07CC00E940A2118163E
:1037500019060CF076C00E940A21209102013091D6
:10376000030137FF02C02F5F3F4F3595279528177C
:1037700039070CF466C081E08093690511115EC0C1
:103780006EE571E0CE0101960E946823CE01079696
:103790000E949919BE01695F7F4FCE0101960E9478
:1037A0008B22CE0107960E940A23BE016F5F7F4FD6
:1037B000CE0107960E94712341E0BE01695F7F4FF1
:1037C00082E090E00E94681ACE0107960E940A23C8
:1037D00060E086E00E94491E61E089E00E94491E87
:1037E00063EB72E0CE0107960E948B2341E0BE019D
:1037F000695F7F4F86E090E00E94681ACE010796CD
:103800000E940A23C0926405D0926505E092660585
:10381000F0926705CE0101960E940A2312C08091A2
:103820006805882371F00E940A2163E270E00E941B
:10383000302C892B31F41092680503C061E671E0E9
:10384000A1CF2C960FB6F894DEBF0FBECDBFDF918F
:10385000CF911F91FF90EF90DF90CF900895FC01E2
:10386000918D828D981761F0828DDF01A80FB11DB7
:103870005D968C91928D9F5F9F73928F90E00895DB
:103880008FEF9FEF0895FC01918D828D981731F095
:10389000828DE80FF11D858D90E008958FEF9FEFE9
:1038A0000895FC01918D228D892F90E0805C9F4FBF
:1038B000821B91098F739927089580E094E00E94FC
:1038C000511C21E0892B09F420E0822F0895FC018E
:1038D000848DDF01A80FB11DA35ABF4F2C91848D99
:1038E00090E001968F739927848FA689B7892C93CE
:1038F000A089B1898C9180648C93938D848D981369
:1039000006C00288F389E02D80818F7D8083089531
:10391000EF92FF920F931F93CF93DF93EC0181E01F
:10392000888F9B8D8C8D981305C0E889F9898081DB
:1039300085FD24C0F62E0B8D10E00F5F1F4F0F7317
:103940001127E02E8C8DE8120CC00FB607FCFACFC1
:10395000E889F989808185FFF5CFCE010E94671C37
:10396000F1CF8B8DFE01E80FF11DE35AFF4FF0827E
:103970000B8FEA89FB898081806207C0EE89FF890D
:103980006083E889F98980818064808381E090E0A8
:10399000DF91CF911F910F91FF90EF900895CF93FA
:1039A000DF93EC01888D8823C9F0EA89FB89808147
:1039B00085FD05C0A889B9898C9186FD0FC00FB619
:1039C00007FCF5CF808185FFF2CFA889B9898C915A
:1039D00085FFEDCFCE010E94671CE7CFDF91CF912D
:1039E000089580E090E0892B29F00E945D1C8111F0
:1039F0000C9400000895833081F028F4813099F010
:103A00008230A1F008958730A9F08830B9F0843071
:103A1000D1F4809180008F7D03C0809180008F77EA
:103A200080938000089584B58F7702C084B58F7D20
:103A300084BD08958091B0008F7703C08091B0005D
:103A40008F7D8093B00008953FB7F89480918A05E8
:103A500090918B05A0918C05B0918D0526B5A89B02
:103A600005C02F3F19F00196A11DB11D3FBFBA2F10
:103A7000A92F982F8827820F911DA11DB11DBC0170
:103A8000CD0142E0660F771F881F991F4A95D1F735
:103A900008958F929F92AF92BF92CF92DF92EF9252
:103AA000FF920F931F93CF93DF937C01EB016C0187
:103AB00082E0C80ED11C4701E5E08E0E911C00E0AB
:103AC00010E0F60141916F0150E060E070E02AE003
:103AD000CE010E94B5235C01E881F9810190F0815B
:103AE000E02D6EE2CE0109958A0D9B1D080F191F6E
:103AF000C814D90431F7F701458150E060E070E067
:103B00002AE0CE010E94B523800F911FDF91CF9153
:103B10001F910F91FF90EF90DF90CF90BF90AF90EB
:103B20009F908F9008950E94552EDC0190E020E038
:103B300030E08AE0FB014191BF01442309F150EDDF
:103B4000540F5A3088F4829FF001839FF00D1124A6
:103B50009F0120533109240F311D47FD3A952F3F16
:103B6000310541F338F312C04E3281F4933071F0D5
:103B7000FD01E90FF11D22839F5F20E030E0DACFE5
:103B8000933021F415962C9381E0089580E00895F8
:103B90001F920F920FB60F9211242F933F934F93C2
:103BA0005F936F937F938F939F93AF93BF93EF93A5
:103BB000FF9380E094E00E94671CFF91EF91BF911A
:103BC000AF919F918F917F916F915F914F913F91B5
:103BD0002F910F900FBE0F901F9018951F920F926C
:103BE0000FB60F9211242F938F939F93EF93FF9310
:103BF000E0911004F09111048081E0911604F0919D
:103C0000170482FD12C09081809119048F5F8F7319
:103C100020911A04821751F0E0911904F0E0E0506D
:103C2000FC4F958F8093190401C08081FF91EF9123
:103C30009F918F912F910F900FBE0F901F9018950D
:103C4000CF93DF93282F30E0F901E258FE4F8491A3
:103C5000F901E05DFE4FD491F901EC5BFE4FC49198
:103C6000CC2391F081110E94FB1CEC2FF0E0EE0FB1
:103C7000FF1FEC58FE4FA591B491EC91ED2381E02C
:103C800090E021F480E002C080E090E0DF91CF91ED
:103C900008951F93CF93DF93282F30E0F901E25866
:103CA000FE4F8491F901E05DFE4FD491F901EC5B88
:103CB000FE4FC491CC23C9F0162F81110E94FB1C2A
:103CC000EC2FF0E0EE0FFF1FE659FE4FA591B491E7
:103CD0008FB7F894111105C09C91ED2FE095E92361
:103CE00002C0EC91ED2BEC938FBFDF91CF911F9130
:103CF0000895CF93DF9390E0FC01E05DFE4F2491A7
:103D0000FC01EC5BFE4F8491882361F190E0880F09
:103D1000991FFC01EA5DFE4FC591D491FC01E65963
:103D2000FE4FA591B491611109C09FB7F8948881A5
:103D3000209582238883EC912E230BC0623061F49E
:103D40009FB7F8943881822F809583238883EC91E4
:103D50002E2B2C939FBF06C08FB7F894E8812E2B93
:103D600028838FBFDF91CF9108958E3008F08E5059
:103D70008770806480937C0080917A008064809357
:103D80007A0080917A0086FDFCCF809178002091A6
:103D9000790090E0922B08958F929F92AF92BF92FC
:103DA000CF92DF92EF92FF926B017C010E94241D63
:103DB0004B015C01C114D104E104F104F1F00E9453
:103DC000241DDC01CB0188199909AA09BB09883E89
:103DD0009340A105B10570F321E0C21AD108E108B2
:103DE000F10888EE880E83E0981EA11CB11CC11456
:103DF000D104E104F10419F7DDCFFF90EF90DF90DB
:103E0000CF90BF90AF909F908F9008952FB7F89468
:103E1000609186057091870580918805909189054C
:103E20002FBF08951F920F920FB60F9211242F9358
:103E30003F938F939F93AF93BF938091860590910B
:103E40008705A0918805B09189053091850523E00B
:103E5000230F2D3720F40196A11DB11D05C026E8C2
:103E6000230F0296A11DB11D209385058093860521
:103E700090938705A0938805B093890580918A0562
:103E800090918B05A0918C05B0918D050196A11D97
:103E9000B11D80938A0590938B05A0938C05B093F8
:103EA0008D05BF91AF919F918F913F912F910F9071
:103EB0000FBE0F901F901895609381057093820537
:103EC0008093830590938405DC01CB01845D9E4F34
:103ED000AF4FBF4F80937D0590937E05A0937F05E4
:103EE000B093800582E090E090937C0580937B0501
:103EF0000E94061F6093770570937805809379057B
:103F000090937A050895CF92DF92EF92FF920F93EC
:103F10001F930E94061FC0907705D0907805E0900F
:103F20007905F0907A058B019C010C191D092E0969
:103F30003F098091810590918205A0918305B09100
:103F40008405083E134021053105D0F00196A11DDE
:103F5000B11D8093810590938205A0938305B09352
:103F60008405B701A60148515C4F6F4F7F4F4093C6
:103F70007705509378056093790570937A05C9CFDA
:103F800040917D0550917E0560917F05709180057F
:103F900084179507A607B70788F1E0917505F0919A
:103FA0007605309759F109956115710581059105DF
:103FB00019F00E945C1F22C08091810590918205BA
:103FC000A0918305B0918405845D9E4FAF4FBF4F94
:103FD00080937D0590937E05A0937F05B093800527
:103FE00081E090E020917B0530917C05232B11F43A
:103FF00080E090E090937C0580937B056091810543
:104000007091820580918305909184051F910F9195
:10401000FF90EF90DF90CF9008954F925F926F9254
:104020007F928F929F92AF92BF92CF92DF92EF9248
:10403000FF920F931F93CF93DF934B015C0180910D
:10404000710590917205A0917305B0917405881661
:104050009906AA06BB0609F4C2C08CE3C82ED12C6F
:10406000E12CF12CC501B401A70196010E94462F55
:1040700060936A05CA01B901A70196010E94462F03
:1040800060936B05CA01B90128E130E040E050E0DF
:104090000E94462F69017A0160936C05CA01B9013B
:1040A0006C5F7F4F8F4F9F4F27E030E040E050E044
:1040B0000E94462F6F5F60936D05412C512C320199
:1040C00040E004E610E0C0E9D1E0242F30E02E54B7
:1040D000384FF901E370FF27309789F4C901B8011F
:1040E0000E94302C892B31F4C901BE010E94302C72
:1040F000892B29F48EE691E0A0E0B0E004C08DE6C3
:1041000091E0A0E0B0E0480E591E6A1E7B1ED3016C
:10411000C201AA27BB27C816D906EA06FB0610F07B
:104120004F5FD3CF40937005309799F4C90164E68F
:1041300070E00E94302C892B39F4C90160E971E0EC
:104140000E94302C892B29F48EE691E0A0E0B0E0AB
:1041500004C08DE691E0A0E0B0E0481A590A6A0A6E
:104160007B0AC418D508E608F708C90164E670E0C0
:104170000E94302CEC01C90160E971E00E94302CF2
:10418000ADEEB1E020E0213039F4309749F42097CA
:1041900029F4009729F402C04C9103C04DE101C0FD
:1041A0004CE150E060E070E0C416D506E606F70684
:1041B00040F0C41AD50AE60AF70A2F5F11962C3090
:1041C00011F72F5F20936F05C394C0926E05809204
:1041D000710590927205A0927305B0927405DF91FB
:1041E000CF911F910F91FF90EF90DF90CF90BF90F4
:1041F000AF909F908F907F906F905F904F900895B9
:104200000E94831F0E940D208091700590E08E54C3
:10421000984F08950E94831F0E940D2080916A0587
:1042200090E008950E94831F0E940D2080916B05ED
:1042300090E008950E94831F0E940D2080916C05DC
:1042400090E008952A9A08952A980895CF92DF92CF
:10425000EF92FF920F931F93CF93DF93EC017A01BC
:104260008B016C01C40ED51ECC15DD05A9F00E9492
:1042700024218FE00E94FA148D2F0E94FA148C2FB3
:104280000E94FA14219680E00E94FA14F8018193AA
:104290008F010E942221E8CFC701DF91CF911F91AA
:1042A0000F91FF90EF90DF90CF900895CF92DF9223
:1042B000EF92FF920F931F93CF93DF93EC017A015C
:1042C0008B016C01C40ED51ECC15DD05A1F00E943A
:1042D000242180EF0E94FA148D2F0E94FA148C2F53
:1042E0000E94FA142196F80181918F010E94FA141C
:1042F0000E942221E9CFC701DF91CF911F910F9139
:10430000FF90EF90DF90CF9008951F93CF93DF93AE
:1043100000D0CDB7DEB7182F6A8399830E9424217D
:1043200080EF0E94FA149981892F0E94FA14812F3C
:104330000E94FA146A81862F0E94FA140E94222198
:1043400081E00F900F90DF91CF911F9108951F93FF
:10435000CF93DF93182F66E270E00E94DB0AC82F2C
:10436000D0E067E270E0812F0E94DB0ADC2FCC27CF
:104370009E01282BC901DF91CF911F9108951F93B2
:10438000CF93DF93182F60E270E00E94DB0AC82F02
:10439000D0E061E270E0812F0E94DB0ADC2FCC27A5
:1043A0009E01282BC901DF91CF911F910895089597
:1043B000CF92DF92EF92FF920F931F93CF93DF93F1
:1043C0006C017A018B01C0E0D0E0CE15DF0589F0E9
:1043D000D8016D918D01D601ED91FC910190F08194
:1043E000E02DC6010995892B11F47E0102C02196AA
:1043F000ECCFC701DF91CF911F910F91FF90EF900C
:10440000DF90CF900895CF93DF93EC01888199815D
:10441000009711F00E94F32C198218821D821C82D1
:104420001B821A82DF91CF9108950F931F93CF9330
:10443000DF93EC0188819981009729F02A813B81E3
:104440002617370788F48B016F5F7F4F0E948B2DF3
:10445000009761F0998388831B830A832C813D81B7
:10446000232B11F4FC01108281E001C080E0DF9178
:10447000CF911F910F910895EF92FF920F931F9389
:10448000CF93DF93EC017B018A01BA010E941522D0
:10449000811104C0CE010E94032207C01D830C833A
:1044A000B701888199810E94772ECE01DF91CF914B
:1044B0001F910F91FF90EF900895EF92FF920F934D
:1044C0001F93CF93DF93FC01248135816115710522
:1044D00011F480E019C041155105A9F07B01EC01F0
:1044E0008A01020F131FB8010E941522882389F345
:1044F000288139818C819D81B701820F931F0E9491
:10450000772E1D830C8381E0DF91CF911F910F9156
:10451000FF90EF900895FB01448155816081718186
:104520000C945D22EF92FF920F931F93CF93DF9332
:10453000EC018B016115710551F0CB010E94C42E75
:104540007C01BC01CE010E941522811104C0CE0164
:104550000E94032207C0FD82EC82B8018881998104
:104560000E94BD2ECE01DF91CF911F910F91FF9040
:10457000EF900895CF93DF93EC016115710559F029
:10458000FB0101900020E9F73197AF01461B570B63
:104590000E943C2202C00E940322CE01DF91CF91F3
:1045A00008950F931F93CF93DF938C01EB01FC01D0
:1045B000808191810097B1F06881798161157105E1
:1045C00079F0428153812C813D814217530740F09D
:1045D0000E94772E8C819D81F8019583848313C07E
:1045E0000E94F32C88819981F801918380838A81CC
:1045F0009B81938382838C819D819583848319829F
:1046000018821B821A821D821C82DF91CF911F911A
:104610000F910895FC01808191810C94F32C0F93EC
:104620001F93CF93DF93CDB7DEB762970FB6F894A1
:10463000DEBF0FBECDBF8C01CB01F801118210820D
:10464000138212821582148250E0BE016F5F7F4F89
:104650000E94CD2EBE016F5F7F4FC8010E94BA221B
:1046600062960FB6F894DEBF0FBECDBFDF91CF913B
:104670001F910F9108950F931F93CF93DF93CDB7A1
:10468000DEB729970FB6F894DEBF0FBECDBF8C0101
:10469000862FF801118210821382128215821482F1
:1046A00050E0BE016F5F7F4F90E00E94F82EBE0188
:1046B0006F5F7F4FC8010E94BA2229960FB6F89407
:1046C000DEBF0FBECDBFDF91CF911F910F91089537
:1046D000FC011182108213821282158214820C94C2
:1046E0009222FB01DC0111961C921E9213961C92E1
:1046F0001E92129715961C921E9214978617970772
:1047000049F0608171816115710521F04481558105
:104710000C943C220895FC011182108213821282B3
:10472000158214826115710551F0FB010190002082
:10473000E9F73197AF01461B570B0C943C220895C3
:104740006115710579F0FB0101900020E9F73197BF
:10475000AF01461B570BDC01ED91FC910280F38108
:10476000E02D099480E090E008954F925F926F925F
:104770007F92EF92FF920F931F93CF93DF93CDB76A
:10478000DEB7A1970FB6F894DEBF0FBECDBF7C0198
:10479000FA01CB0119A2223008F42AE08E010F5D44
:1047A0001F4F422E512C612C712CBF01A30192018D
:1047B0000E94462FF901CA01015011096A3014F410
:1047C000605D01C0695CD8016C93232B242B252BE1
:1047D00061F7B801C7010E94A023A1960FB6F89413
:1047E000DEBF0FBECDBFDF91CF911F910F91FF9024
:1047F000EF907F906F905F904F9008950F931F936D
:10480000CF93DF93EC01E881F981DB0114964D91A0
:104810005C9115976D917C910280F381E02D099553
:104820008C0168E072E0CE010E94A023800F911FEE
:10483000DF91CF911F910F9108950C94A023CF93F6
:10484000DF93CDB7DEB7AB970FB6F894DEBF0FBEE0
:10485000CDBF789484B5826084BD84B5816084BD09
:1048600085B5826085BD85B5816085BD80916E000E
:10487000816080936E00109281008091810082603F
:10488000809381008091810081608093810080917C
:1048900080008160809380008091B100846080936B
:1048A000B1008091B00081608093B00080917A0067
:1048B000846080937A0080917A00826080937A008D
:1048C00080917A00816080937A0080917A0080687C
:1048D00080937A001092C1001092E1041092E204D9
:1048E0001092E3041092E40410929F041092A0042A
:1048F0001092A1041092A20468EB7BE080E090E0AB
:104900000E94CC1E80E094E09093E0048093DF044A
:10491000E0911004F091110452E0F52EF082E09144
:104920000C04F0910D041082E0910E04F0910F043C
:1049300080E1808310921804E0911404F091150432
:1049400006E00083E0911204F091130480818061FD
:104950008083E0911204F091130480818860808349
:10496000E0911204F0911304808180688083E091CB
:104970001204F091130480818F7D80830E94061FB2
:1049800060939F047093A0048093A1049093A20469
:1049900069EF71E08091DF049091E0040E941D2492
:1049A0006AE070E080E090E00E94CC1E11E010937D
:1049B000B3040FB6F894A895809160008861809345
:1049C0006000109260000FBEE0911004F09111049D
:1049D000F082E0910C04F0910D041082E0910E043D
:1049E000F0910F048FEC808310921804E09114046E
:1049F000F09115040083E0911204F091130480817A
:104A000080618083E0911204F091130480818860BA
:104A10008083E0911204F091130480818068808388
:104A2000E0911204F091130480818F7D808360E017
:104A300087E00E94491E61E087E00E94791E61E0E4
:104A400085E00E94491E61E085E00E94791E60E0D9
:104A500088E00E94491E61E088E00E94791E61E0C2
:104A600086E00E94491E61E086E00E94791E60E0B7
:104A700089E00E94491E61E089E00E94791E60E0A1
:104A800083E00E94791E19831A821B821C821D8278
:104A90001E821F82188619861A861B861C861D8612
:104AA0009E012F5F3F4F6901E12CF12C8901C70165
:104AB0000E94302FF60181936F01FFEFEF1AFF0A7A
:104AC00029E1E216F10499F78BE092E00E947B1154
:104AD0004DB75EB7495151090FB6F8945EBF0FBE8E
:104AE0004DBFADB7BEB7119689E1F80101900D92A7
:104AF0008A95E1F70E94D6170FB6F894DEBF0FBE75
:104B0000CDBF8981813009F029C14AE06A81CE0197
:104B10004A960E943B23BE01665E7F4F80E395E08C
:104B20000E94D122CE014A960E940A236EE672E0CC
:104B300080E395E00E94EA144AE06B81CE014A9638
:104B40000E943B23BE01665E7F4F80E395E00E949A
:104B50008B22CE014A960E940A236EE672E080E321
:104B600095E00E94EA144AE06C81CE014A960E94C8
:104B70003B23BE01665E7F4F80E395E00E948B225F
:104B8000CE014A960E940A236EE672E080E395E029
:104B90000E94EA144AE06D81CE014A960E943B23AE
:104BA000BE01665E7F4F80E395E00E948B22CE01BE
:104BB0004A960E940A234AE06E81CE014A960E94DC
:104BC0003B23BE01665E7F4F8AE295E00E94D122C0
:104BD000CE014A960E940A236EE672E08AE295E0D0
:104BE0000E94EA144AE06F81CE014A960E943B235C
:104BF000BE01665E7F4F8AE295E00E948B22CE0165
:104C00004A960E940A236EE672E08AE295E00E94CC
:104C1000EA144AE06885CE014A960E943B23BE0111
:104C2000665E7F4F8AE295E00E948B22CE014A9613
:104C30000E940A236EE672E08AE295E00E94EA147E
:104C40004AE06985CE014A960E943B23BE01665E1A
:104C50007F4F8AE295E00E948B22CE014A960E9405
:104C60000A234AE06A85CE014A960E943B23BE0190
:104C7000665E7F4F84E295E00E94D122CE014A9683
:104C80000E940A236EE672E084E295E00E94EA1434
:104C90004AE06B85CE014A960E943B23BE01665EC8
:104CA0007F4F84E295E00E948B22CE014A960E94BB
:104CB0000A236EE672E084E295E00E94EA144AE07C
:104CC0006C85CE014A960E943B23BE01665E7F4FF3
:104CD00084E295E00E948B22CE014A960E940A232C
:104CE0006EE672E084E295E00E94EA144AE06D8587
:104CF000CE014A960E943B23BE01665E7F4F84E24E
:104D000095E00E948B22CE014A960E940A238E854E
:104D1000809308018F858093E70388899989909310
:104D20000301809302018A899B89909301018093FA
:104D300000018C899D899093D5038093D4038E893B
:104D40009F89909307018093060181E0288D398D1A
:104D5000232B09F480E08093D60337C067E272E02A
:104D6000CE0180960E948B234AE061E070E0CE0184
:104D70004A960E940F23BE01665E7F4FCE01809649
:104D80000E948B22CE014A960E940A236BE472E0B5
:104D9000CE0180960E94EA14BE01605E7F4FCE0174
:104DA0004A960E94712341E0BE01665E7F4F83E018
:104DB00090E00E94681ACE014A960E940A230E943F
:104DC000CB18CE0180960E940A2360913005709125
:104DD00031058EE195E00E94951D811118C08EEC81
:104DE00090E00E94DF1160E375E080E094E00E94B3
:104DF000FE2328EE422E23E0522E612C712C3FE937
:104E0000A32E31E0B32E4AE0842E912C00C189EC10
:104E100090E00E94DF1160E074E08EE195E00E9476
:104E2000491D8AE092E00E947B1160912A057091F1
:104E30002B0588E195E00E94951D811107C08FEA3E
:104E400090E00E94DF116AE275E0CFCF89EA90E03E
:104E50000E94DF1160E074E088E195E00E94491D46
:104E60008AE092E00E947B116091240570912505F3
:104E700082E195E00E94951D811109C08BE890E0C8
:104E80000E94DF1182E195E00E94C811B2CF81E853
:104E900090E00E94DF1160E074E082E195E00E9402
:104EA000491D8AE092E00E947B119FEDE92E91E07E
:104EB000F92EFA82E98280910E0590910F05A0915A
:104EC0001005B09111058B839C83AD83BE83FB8E4F
:104ED000EA8E8091140590911505A0911605B09168
:104EE00017058C8F9D8FAE8FBF8FF9A2E8A280919E
:104EF0001A0590911B05A0911C05B0911D058AA370
:104F00009BA3ACA3BDA3FFA2EEA28091200590912C
:104F10002105A0912205B091230588A799A7AAA7EA
:104F2000BBA79801AE01465E5F4FBE01605E7F4F3A
:104F3000CE0186960E94101286E095E00E94920BA8
:104F400088E690E00E94DF11FA82E9821B821C82CF
:104F50001D821E8280E590E00E94860D44E050E0B4
:104F6000BE016D5F7F4F8FE090E00E9426210E947E
:104F7000850DC8010E94C81199E288E10FB6F89426
:104F8000A895809360000FBE9093600081E08093AD
:104F9000EF032FCF83E00E94201E9093EE038093B7
:104FA000ED032091EB033091EC038217930709F096
:104FB0003BC18091ED039091EE039093EC038093BD
:104FC000EB030E94061F6B017C0180910801811197
:104FD00040C18091DF039091E003A091E103B09183
:104FE000E203B701A601481B590B6A0B7B0B8091AA
:104FF000060190910701092E000CAA0BBB0B481764
:1050000059076A077B0708F057C10E94F11CA89551
:105010008091EF038823C9F386E095E00E946B0C32
:1050200087EDE82E83E0F82ED12C1C821B824D8266
:105030005E826F827886BA82A982DD86F70121912D
:1050400031917F0180910A0590910B05281739074E
:10505000B9F5C8010E948A0B873111F08C3181F5B6
:10506000C8010E947C0D892B59F12B813C81CD8098
:10507000DE80EF80F88449855A856B857C858D8537
:10508000843009F499C03093FC042093FB04C0924F
:10509000FD04D092FE04E092FF04F09200054093DC
:1050A00001055093020560930305709304058093F6
:1050B00005056AE072E0CE0180960E948B2310C045
:1050C000D394F4E0DF12B1CF77C0682FCE01809681
:1050D0000E94D71489EF94E00E947C0D892B39F44B
:1050E00089EF94E00E94FF0B8111F4CF0CC089EF8F
:1050F00094E00E94B70A8A3041F76AE0CE018096B8
:105100000E94D7140FC0BE01605E7F4FC8010E948D
:10511000712340E0B80184E090E00E94681AC80161
:105120000E940A236AE072E0CE014A960E948B2315
:1051300069E072E0CE0180960E9449018823A1F1C6
:1051400060E070E0CE0180960E949514FC018081A1
:1051500080330CF4F2C160E070E0CE0180960E94D2
:105160009514FC0180818A330CF0E7C1FBC18CA14E
:105170009DA1892BC9F56AE0CE0180960E947C141E
:105180000196B1F06AE072E0CE014A960E948B234C
:105190008CA19DA1892B89F169E072E088A199A178
:1051A0000E946E2E892B49F5CE014A960E940A2351
:1051B000CE0180960E940A2380E094E00E94511C58
:1051C000181619060CF0E6CE6AE072E0CE01809661
:1051D0000E948B230E948E1197FDC9CF682FCE01AC
:1051E00080960E94D714F6CF6AE0CE0180960E9486
:1051F0007C14019609F0BFCFCAC160E070E0CE0117
:1052000080960E949514FC01808180330CF4C6C105
:1052100060E070E0CE0180960E949514FC018081D0
:105220008A330CF0BBC1D4C1019761F48091E903CA
:105230009091EA0301969093EA038093E90381E059
:105240000E94CA1A62E370E080E090E00E94CC1EE7
:10525000B0CE8091E703882309F18091E303909118
:10526000E403A091E503B091E603A7019601281B92
:10527000390B4A0B5B0BDA01C901883E9340A1054B
:10528000B10508F4A6CEC092E303D092E403E09205
:10529000E503F092E6030E94F5009BCE0E940A21EE
:1052A000892B09F096CE0E94F50068EE73E080E04D
:1052B00090E00E94CC1E8DCEC092DF03D092E0031E
:1052C000E092E103F092E2030E9400218D3D9740BD
:1052D00044F40E940A21B4010E94302C892B09F465
:1052E000B8C161E087E00E94491E64EF71E080E090
:1052F00090E00E94CC1E81E10E94B51E7C0182E1FB
:105300000E94B51E6C0160E087E00E94491E8091FA
:10531000D603882309F448C06AEE70E0CE014A96AD
:105320000E9468234AE0B701C8010E940F23B80118
:10533000CE014A960E948B22C8010E940A23BE0118
:10534000665E7F4FC8010E94712341E0B80182E090
:1053500090E00E94681AC8010E940A2367EE70E07C
:10536000CE014A960E9492224AE0B601C8010E94EC
:105370000F23B801CE014A960E948B22C8010E94D9
:105380000A23BE01665E7F4FC8010E94712341E07F
:10539000B80182E090E00E94681AC8010E940A23C6
:1053A000CE014A960E940A238091D603E11452E06E
:1053B000F5068CF48823D1F160E772E0C8010E9401
:1053C0008B2341E0B80182E090E00E94681AC80196
:1053D0000E940A232BC0E11492E0F906B1F0E1E04B
:1053E000CE16E2E0DE068CF0882319F165E772E064
:1053F000C8010E948B2341E0B80182E090E00E9446
:10540000681AC8010E940A2314C08823A9F06BE718
:1054100072E0C8010E948B2341E0B80182E090E075
:105420000E94681AC8010E940A2306C080E090E02A
:1054300005C082E090E002C081E090E09093050119
:105440008093040182309105A9F560E085E00E9417
:10545000491E61E088E00E94491E63EB72E0C801CA
:105460000E948B2341E0B80185E090E00E94681A19
:10547000C8010E940A238091E803811154C060EFA3
:1054800070E0CE014A960E946823BE01665E7F4F9F
:10549000C8010E94712341E0B80182E090E00E94BF
:1054A000681AC8010E940A230E94F50081E08093D7
:1054B000E80335C0892BB9F561E085E00E94491EFB
:1054C00060E088E00E94491E6AEA72E0C8010E941A
:1054D0008B2341E0B80185E090E00E94681AC80182
:1054E0000E940A238091E8038823E9F06DEE70E0C2
:1054F000CE014A960E946823BE01665E7F4FC801B6
:105500000E94712341E0B80182E090E00E94681A95
:10551000C8010E940A230E94F5001092E803CE0100
:105520004A960E940A2380E00E94CA1A64E670E04C
:1055300080E090E00E94CC1E68CD66EF70E0CE0166
:105540004A960E949222BE01605E7F4FCE014A962B
:105550000E948B22BE01665E7F4FC8010E947123AC
:1055600040E030C06AE0CE0180960E947C149C012D
:1055700040E050E0BE01605E7F4FC8010E94D01342
:10558000C8010E948C08C8010E940A230DCE69E060
:1055900072E0CE0180960E94EA14EDCD63EF70E0D8
:1055A000CE014A960E949222BE01605E7F4FCE01DC
:1055B0004A960E948B22BE01665E7F4FC8010E9400
:1055C000712341E0B80183E090E00E94681ADBCFCC
:1055D0006AE0CE0180960E947C149C0140E050E07D
:1055E000BE01605E7F4FC8010E94D013C8010E94B7
:1055F0008C08C8010E940A236AE0CE0180960E94AE
:105600007C14AC014F5F5F4FBE01605E7F4FC801ED
:105610000E943D01B801CE0180960E94D122C801AE
:105620000E940A238CA19DA1892B39F06AE0CE014A
:1056300080960E947C14019629F0CE014A960E9421
:105640000A2399CD69E072E0CE0180960E94EA14A7
:10565000F4CF6AE072E0C8010E948B2341E0B801F8
:1056600081E090E00E94681AC8010E940A2339CEA6
:10567000CF92DF92EF92FF92CF93DF93EEE3F5E0CC
:10568000CFEDD1E0D183C0831282138214821582C0
:10569000E0E0F4E01382128288EEC82E83E0D82E78
:1056A000E12CF12CC482D582E682F78283E691E078
:1056B0009183808385EC90E09587848784EC90E0EB
:1056C0009787868780EC90E0918B808B81EC90E0CF
:1056D000938B828B82EC90E0958B848B86EC90E0B0
:1056E000978B868B118E128E138E148EEDE9F4E05B
:1056F00016821782108611861286138614861586E6
:1057000016861786108A118A128A138A148A158AB5
:10571000E4E4F5E0D183C0831282138214821582FF
:10572000EAE4F5E0D183C0831282138214821582E9
:10573000E0E5F5E0D183C0831282138214821582E2
:10574000E6E5F5E0D183C0831282138214821582CC
:10575000E5EEF4E0D183C0831282138214821582B5
:10576000EDEEF4E0D183C08312821382148215829D
:10577000ECE5F5E0D183C083128213821482158296
:10578000E6E3F5E0D183C08312821382148215828E
:1057900061EA72E080E395E00E948B236CEA72E09C
:1057A0008AE295E00E948B236CEA72E084E295E045
:1057B0000E948B23EEE1F5E0D183C0831282138235
:1057C00014821582E8E1F5E0D183C083128213824E
:1057D00014821582E2E1F5E0D183C0831282138244
:1057E00014821582ECE0F5E0D183C0838FEF8283D1
:1057F000838314821582E6E0F5E01382128283EC43
:1058000091E09183808380E590E095838483E9EF44
:10581000F4E013821282C482D582E682F7828FE995
:1058200091E091838083148665EB72E083EF94E0CE
:10583000DF91CF91FF90EF90DF90CF900C948B236E
:1058400083EF94E00E940A2384E295E00E940A23F9
:105850008AE295E00E940A2380E395E00C940A23F3
:1058600097FB072E16F4009407D077FD09D00E940D
:10587000442C07FC05D03EF4909581959F4F0895E8
:10588000709561957F4F0895AA1BBB1B51E107C01E
:10589000AA1FBB1FA617B70710F0A61BB70B881FC0
:1058A000991F5A95A9F780959095BC01CD0108954F
:1058B000EE0FFF1F0590F491E02D0994CF93DF9335
:1058C0008230910510F482E090E0E0919005F09133
:1058D000910520E030E0C0E0D0E0309711F1408148
:1058E000518148175907C0F04817590761F4828160
:1058F0009381209719F09B838A832BC09093910505
:105900008093900526C02115310519F042175307E1
:1059100018F49A01BE01DF01EF010280F381E02D4E
:10592000DCCF2115310509F1281B390B2430310555
:1059300090F412968D919C9113976115710521F049
:10594000FB019383828304C090939105809390051B
:10595000FD01329644C0FD01E20FF31F8193919344
:10596000225031092D933C933AC020918E053091FD
:105970008F05232B41F420910D0130910E013093BE
:105980008F0520938E0520910B0130910C0121157C
:10599000310541F42DB73EB740910F0150911001F0
:1059A000241B350BE0918E05F0918F05E217F3076C
:1059B000A0F42E1B3F0B2817390778F0AC014E5F7F
:1059C0005F4F2417350748F04E0F5F1F50938F0528
:1059D00040938E058193919302C0E0E0F0E0CF0107
:1059E000DF91CF9108950F931F93CF93DF9300978B
:1059F00009F48CC0FC013297138212820091900549
:105A0000109191050115110581F420813181820FDA
:105A1000931F20918E0530918F052817390779F54E
:105A2000F0938F05E0938E0571C0D80140E050E0FF
:105A3000AE17BF0750F412962D913C911397AD010C
:105A40002115310509F1D901F3CF9D01DA01338325
:105A5000228360817181860F971F8217930769F4F3
:105A6000EC0128813981260F371F2E5F3F4F31838C
:105A700020838A819B8193838283452B29F4F09331
:105A80009105E093900542C01396FC93EE93129714
:105A9000ED01499159919E01240F351FE217F3073B
:105AA00071F480819181840F951F029611969C93C9
:105AB0008E938281938113969C938E931297E0E04C
:105AC000F0E0D80112968D919C911397009719F0F0
:105AD000F8018C01F6CF8D919C9198012E5F3F4F7C
