:100000000C9477000C949F000C949F000C949F001C
:100010000C949F000C949F000C949F000C949F00E4
:100020000C949F000C949F000C949F000C949F00D4
:100030000C949F000C949F000C949F000C949F00C4
:100040000C9453160C949F000C9446150C94201598
:100050000C949F000C949F000C949F000C949F00A4
:100060000C949F000C949F00E802FA03E909E90947
:10007000E9096F06EB067907AD07E20724082808AF
:1000800056088408B4081809EA081B0949097C09BC
:10009000A90900000000240027002A00010204082A
:1000A00010204080010204081020010204081020E2
:1000B000040404040404040402020202020203030E
:1000C0000303030300000000250028002B000000AC
:1000D00000002300260029000000000800020100A3
:1000E000000304070000000000000000F7201124B6
:1000F0001FBECFEFD8E0DEBFCDBF12E0A0E0B1E081
:10010000E0E2F5E502C005900D92AA3AB107D9F7F1
:1001100024E0AAEAB2E001C01D92A635B207E1F7D9
:1001200010E0C7E7D0E004C02197FE010E9423271A
:10013000C637D107C9F70E94BD210C948E2A0C94B2
:100140000000CF92DF92EF92FF921F93CF93DF9345
:10015000CDB7DEB72C970FB6F894DEBF0FBECDBF7C
:10016000182F8091B102811105C080911604811170
:100170001AC07EC1111117C080911604811113C0DD
:100180000E944118803E974074F48091B002811122
:10019000C9C00E944B186EE170E00E940F27892BA6
:1001A00009F4D1C0BFC00E9447166B017C01809149
:1001B0001604882309F48AC08091AC029091AD02A4
:1001C000A091AE02B091AF02C81AD90AEA0AFB0A9E
:1001D000409102015091030128EE33E0429FC0019B
:1001E000439F900D529F900D1124092E000CAA0BD5
:1001F000BB0BC816D906EA06FB0608F439C161E054
:1002000086E00E94A11560E089E00E94A11561E0EE
:1002100072E0CE0101960E94471341E0BE016F5F7C
:100220007F4F86E090E00E94751ECE0101960E94ED
:10023000BD0E61E085E00E94A11560E088E00E94AB
:10024000A11561E072E0CE0101960E94471341E0E2
:10025000BE016F5F7F4F85E090E00E94751ECE016A
:1002600001960E94BD0E109216041092AC021092DC
:10027000AD021092AE021092AF0263E072E0CE01C6
:1002800001960E944713CE0107960E94A61DBE014B
:10029000695F7F4FCE0101960E94EB0DCE0107965C
:1002A0000E94BD0EBE016F5F7F4FCE0107960E9478
:1002B000EE0E41E0BE01695F7F4F82E090E00E9458
:1002C000751ECE0107960E94BD0E60C0111163C05D
:1002D0000E945B1820910001309101018217930761
:1002E00009F0C6C00E9453182091AA023091AB02B7
:1002F0008217930709F0BCC00E944B181816190604
:100300000CF0B6C00E944B182091020130910301FD
:1003100037FF02C02F5F3F4F3595279528173907C4
:10032000D4F5A6C08091B002882309F4A1C00E9430
:100330004B1863E270E00E940F27892B09F098C0E8
:100340001092B00295C068E072E0CE0101960E9462
:10035000471341E0BE016F5F7F4F83E090E00E9452
:10036000751ECE0101960E94BD0E81E08093B00201
:1003700063E872E0CE0101960E94471341E0BE019E
:100380006F5F7F4F81E090E00E94751ECE01019665
:100390000E94BD0E6DC081E080931604111103C050
:1003A0006EEF71E002C06BEF71E0CE0101960E942A
:1003B0004713CE0107960E94A61DBE01695F7F4FBD
:1003C000CE0101960E94EB0DCE0107960E94BD0E54
:1003D000BE016F5F7F4FCE0107960E94EE0E41E097
:1003E000BE01695F7F4F82E090E00E94751ECE01E2
:1003F00007960E94BD0E60E086E00E94A11561E0B4
:1004000089E00E94A11566E072E0CE0107960E9485
:10041000471341E0BE01695F7F4F86E090E00E9494
:10042000751ECE0107960E94BD0E60E085E00E9419
:10043000A11561E088E00E94A11566E072E0CE019E
:1004400007960E94471341E0BE01695F7F4F85E038
:1004500090E00E94751ECE0107960E94BD0EC092CC
:10046000AC02D092AD02E092AE02F092AF028ECF1B
:100470002C960FB6F894DEBF0FBECDBFDF91CF91A3
:100480001F91FF90EF90DF90CF900895CF93DF936F
:10049000CDB7DEB72C970FB6F894DEBF0FBECDBF39
:1004A00060911404709115044AE0CE0101960E94F7
:1004B000C20E6BE072E0CE0101960E94DC0DCE010F
:1004C00007960E94A61DBE01695F7F4FCE0101966F
:1004D0000E94EB0DCE0107960E94BD0EBE016F5F1C
:1004E0007F4FCE0107960E94EE0E41E0BE01695F8C
:1004F0007F4F88E090E00E94751ECE0107960E9413
:10050000BD0ECE0101960E94BD0E2C960FB6F8943A
:10051000DEBF0FBECDBFDF91CF910895CF93DF93A4
:10052000EC01FB01248135810E94770ECE01DF9121
:10053000CF910895FC0124813581232B31F421E0F2
:1005400061157105A1F0FB0108C0FC01808191815A
:100550006115710531F421E0FC018081882339F0B7
:1005600005C00E944D2921E0892B09F020E081E09F
:10057000822708952F923F924F925F926F927F92BF
:100580008F929F92AF92BF92CF92DF92EF92FF92A3
:100590000F931F93CF93DF93CDB7DEB7C451D140F4
:1005A0000FB6F894DEBF0FBECDBF7C018B0163E8B0
:1005B00072E0CE01895F9E4F0E94471325E1E2164B
:1005C000F10408F006C7F701EC5CFF4F0C942327F9
:1005D00085E00E9478157C0186E00E9478158C01E8
:1005E000EF2819F466E072E002C061E072E0CE012B
:1005F0008F5F9E4F0E9447136DE072E0CE018F5FC8
:100600009E4F0E94DC0D012B19F466E072E002C0DF
:1006100061E072E0CE018F5F9E4F0E94DC0D6DE0C5
:1006200072E0CE018F5F9E4F0E94DC0D809114011D
:10063000811103C061E072E002C066E072E0CE01A9
:100640008F5F9E4F0E94DC0D6DE072E0CE018F5FE8
:100650009E4F0E94DC0D80911F04811103C061E058
:1006600072E002C066E072E0CE018F5F9E4F0E9492
:10067000DC0D6DE072E0CE018F5F9E4F0E94DC0DBD
:100680006091020170910301CE018F5F9E4F0E9425
:10069000990D6DE072E0CE018F5F9E4F0E94DC0DE0
:1006A0006091100170911101CE018F5F9E4F0E94E9
:1006B000990D6DE072E0CE018F5F9E4F0E94DC0DC0
:1006C00060910E0170910F01CE018F5F9E4F0E94CD
:1006D000990D6DE072E0CE018F5F9E4F0E94DC0DA0
:1006E0006091000170910101CE018F5F9E4F0E94C9
:1006F000990D6DE072E0CE018F5F9E4F0E94DC0D80
:100700006091AA027091AB02CE018F5F9E4F0E9452
:10071000990D6DE072E0CE018F5F9E4F0E94DC0D5F
:100720006091120170911301CE018F5F9E4F0E9464
:10073000990D6DE072E0CE018F5F9E4F0E94DC0D3F
:1007400060910C0170910D01CE018F5F9E4F0E9450
:10075000990D6DE072E0CE018F5F9E4F0E94DC0D1F
:1007600060910A0170910B01CE018F5F9E4F0E9434
:10077000990D6DE072E0CE018F5F9E4F0E94DC0DFF
:100780008091B102811103C061E072E002C066E0B5
:1007900072E0CE018F5F9E4F0E94DC0D6DE072E033
:1007A000CE018F5F9E4F0E94DC0D8091200481114D
:1007B00003C061E072E002C066E072E0CE018F5FCC
:1007C0009E4F0E94DC0DBE016F5F7E4FCE010196F1
:1007D0000E94EE0E41E0BE016F5F7F4F80E090E02F
:1007E0000E94751ECE0101960E94BD0ECE018F5F44
:1007F0009E4F1AC663E872E0C8010E949A028823DD
:1008000009F46AC2B801CE01835F9E4F0E94EE0ECA
:1008100063E872E0CE018F5F9E4F0E9447136CE247
:10082000CE01835F9E4F0E94800D8C010F3F8FEFA2
:10083000180789F5CF5EDE4F08811981C151D1407B
:100840000F3F2FEF1207B9F00115110511F41982AE
:1008500012C0C35FDE4F68817981CD50D140A801BD
:10086000CE0101960E945D29E1E0F0E0EC0FFD1F52
:10087000E00FF11F1082CE0101960E946C29603CAE
:100880002FEC720722EE820720E5920708F4EDC5EF
:100890000E949D16EAC5980140E050E0BE01635FEA
:1008A0007E4FCE0101960E94770EBE016F5F7F4F93
:1008B000CE018F5F9E4F0E94F20DCE0101960E94E5
:1008C000BD0ECE018F5F9E4F0E94750D1B012C0146
:1008D000A8014F5F5F4FBE01635F7E4FCE0101965F
:1008E0000E948E02BE016F5F7F4FCE01835F9E4FDD
:1008F0000E94F20DCE0101960E94BD0E6CE2CE0167
:10090000835F9E4F0E94800D8C010F3F8FEF180771
:1009100009F4ABC5980140E050E0BE01635F7E4F33
:10092000CE0101960E94770EBE016F5F7F4FCE0110
:100930008F5F9E4F0E94F20DCE0101960E94BD0E68
:10094000CE018F5F9E4F0E94750DD62EA8014F5F7E
:100950005F4FBE01635F7E4FCE0101960E948E0203
:10096000BE016F5F7F4FCE01835F9E4F0E94F20DED
:10097000CE0101960E94BD0E6CE2CE01835F9E4FB8
:100980000E94800D8C018F3F2FEF920709F46DC5F7
:100990009C0140E050E0BE01635F7E4FCE010196B6
:1009A0000E94770EBE016F5F7F4FCE018F5F9E4F1B
:1009B0000E94F20DCE0101960E94BD0ECE018F5F06
:1009C0009E4F0E94750D762EA8014F5F5F4FBE01AE
:1009D000635F7E4FCE0101960E948E02BE016F5F63
:1009E0007F4FCE01835F9E4F0E94F20DCE01019694
:1009F0000E94BD0E6CE2CE01835F9E4F0E94800D6F
:100A00008C010F3F8FEF180709F42FC5980140E0C4
:100A100050E0BE01635F7E4FCE0101960E94770ECB
:100A2000BE016F5F7F4FCE018F5F9E4F0E94F20D20
:100A3000CE0101960E94BD0ECE018F5F9E4F0E9497
:100A4000750DCD5EDE4F6883C351D140A8014F5F65
:100A50005F4FBE01635F7E4FCE0101960E948E0202
:100A6000BE016F5F7F4FCE01835F9E4F0E94F20DEC
:100A7000CE0101960E94BD0E6CE2CE01835F9E4FB7
:100A80000E94800D7C018F3F2FEF920709F4EDC487
:100A90009C0140E050E0BE01635F7E4FCE010196B5
:100AA0000E94770EBE016F5F7F4FCE018F5F9E4F1A
:100AB0000E94F20DCE0101960E94BD0ECE018F5F05
:100AC0009E4F0E94750DCC5EDE4F6883C451D140AD
:100AD000A7014F5F5F4FBE01635F7E4FCE0101965E
:100AE0000E948E02BE016F5F7F4FCE01835F9E4FDB
:100AF0000E94F20DCE0101960E94BD0ECE01835FD1
:100B00009E4F0E94750D662E810184E628163104E1
:100B10001CF0025B174002C0025E1F4F00933204BC
:100B2000D092310470923004CD5EDE4F2881C351E3
:100B3000D14020932E04CC5EDE4F8881C451D14039
:100B400080932D0460922C04A02FB0E020E833E3C2
:100B500041EE51E00E94352A4B015C01E2EBF7E0E7
:100B60009801332704E610E080E9E82EFF24F3948F
:100B7000CF01825B974082179307D4F4CF01837033
:100B80009927892B99F4CF01B8010E940F27892B4F
:100B900031F4CF01B7010E940F27892B39F480E887
:100BA000880E81E5981E81E0A81EB11C3196E0CF29
:100BB0002E54384FC90164E670E00E940F278C0163
:100BC000C90160E971E00E940F277C01E1E0F0E0DB
:100BD000CD2CD12C190183E028223324EC15FD05FE
:100BE0002CF5E230F10589F42114310471F401157A
:100BF000110519F4E114F10441F420E8820E2BE30D
:100C0000921E26E2A21EB11C0FC0DF01A851BE4FEA
:100C1000AC91B0E020E831E541E050E00E94352A97
:100C2000860E971EA81EB91E3196D8CFCD5EDE4F18
:100C3000C880C351D1402C2D30E0A0E1BEE00E941D
:100C40007F2A6B017C01A72DB0E0119720E831E5E8
:100C500041E050E00E94402ADC01CB018C0D9D1D3B
:100C6000AE1DBF1D6C017D01C60CD11CE11CF11C29
:100C7000CC5EDE4F5880C451D140252D30E0ACE32E
:100C8000B0E00E947F2ADC01CB018C0D9D1DAE1DC2
:100C9000BF1DBC01CD01680D791D8A1D9B1D0E94E1
:100CA0009D166CE271E080E090E00E940D160E94BB
:100CB000E41ECE018F5F9E4F0E94BD0ECE01835F6A
:100CC0009E4F0E94BD0E10921704109218041092AD
:100CD000190410921A04AAC30E94E41EA7C3B80103
:100CE000CE01835F9E4F0E94EE0E63E872E0CE015C
:100CF000835F9E4F0E949A02882309F44FC0CE0161
:100D0000835F9E4F0E94750D61307105E9F46FE0BD
:100D100072E0CE0101960E94471341E0BE016F5F71
:100D20007F4F82E090E00E94751ECE0101960E94E6
:100D3000BD0E60E085E00E94A11561E088E00E94A0
:100D4000A11566E072E01FC0672B09F0CEC062E11A
:100D500072E0CE0101960E94471341E0BE016F5F31
:100D60007F4F82E090E00E94751ECE0101960E94A6
:100D7000BD0E61E085E00E94A11560E088E00E9460
:100D8000A11561E072E0CE0101960E94471341E097
:100D9000BE016F5F7F4F85E090E07BC085E00E94E1
:100DA0007815892B19F466E072E002C061E072E008
:100DB000CE018F5F9E4F0E944713BE016F5F7E4F33
:100DC000CE0101960E94EE0E41E0BE016F5F7F4FA3
:100DD00085E090E07FC0B801CE01835F9E4F0E9406
:100DE000EE0E63E872E0CE01835F9E4F0E949A028E
:100DF000882309F453C0CE01835F9E4F0E94750D76
:100E000061307105E9F465E172E0CE0101960E945E
:100E1000471341E0BE016F5F7F4F82E090E00E9488
:100E2000751ECE0101960E94BD0E60E086E00E9414
:100E3000A11561E089E00E94A11566E072E01FC083
:100E4000672B09F052C068E172E0CE0101960E9462
:100E5000471341E0BE016F5F7F4F82E090E00E9448
:100E6000751ECE0101960E94BD0E61E086E00E94D3
:100E7000A11560E089E00E94A11561E072E0CE0159
:100E800001960E94471341E0BE016F5F7F4F86E0ED
:100E900090E00E94751ECE01019625C086E00E945A
:100EA0007815892B19F466E072E002C061E072E007
:100EB000CE018F5F9E4F0E944713BE016F5F7E4F32
:100EC000CE0101960E94EE0E41E0BE016F5F7F4FA2
:100ED00086E090E00E94751ECE0101960E94BD0E34
:100EE000CE018F5F9E4F0E94BD0ECE01835F9E4F4D
:100EF0009BC2B801CE01835F9E4F0E94EE0E63E855
:100F000072E0CE018F5F9E4F0E94471363E872E04C
:100F1000CE01835F9E4F0E949A02882371F0CE011A
:100F2000835F9E4F0E94750D6B017C0170930301DE
:100F3000609302016BE172E03AC16091020170912D
:100F400003014AE0CE0101960E94C20E41E0BE01BB
:100F50006F5F7F4F87E090E0BDCFB801CE01835F28
:100F60009E4F0E94EE0E63E872E0CE018F5F9E4FAF
:100F70000E94471363E872E0CE01835F9E4F0E9498
:100F80009A028823A9F0CE01835F9E4F0E94750DBF
:100F900021E0672B682B692B09F420E020931401D2
:100FA000222319F06EE172E001C261E272E0FEC13B
:100FB00080911401882319F064E272E0F7C167E2BE
:100FC00072E0F4C1B801CE01835F9E4F0E94EE0E25
:100FD00063E872E0CE018F5F9E4F0E94471363E883
:100FE00072E0CE01835F9E4F0E949A02882311F126
:100FF000CE01835F9E4F0E94750D21E0672B682B09
:10100000692B09F420E020931F04222319F06AE2DF
:1010100072E002C06DE272E0CE018F5F9E4F0E94CF
:10102000560E10921B0410921C0410921D04109274
:101030001E04C1C180911F04882319F060E372E08F
:10104000B5C163E372E0B2C181E00E94A100EEC1CC
:10105000B801CE01835F9E4F0E94EE0E63E872E0FE
:10106000CE018F5F9E4F0E94471363E872E0CE016E
:10107000835F9E4F0E949A02882361F0CE01835FB6
:101080009E4F0E94750D709311016093100166E3ED
:1010900072E002C069E372E0CE018F5F9E4F0E9452
:1010A000560E609110017091110120C1B801CE015E
:1010B000835F9E4F0E94EE0E63E872E0CE018F5F69
:1010C0009E4F0E94471363E872E0CE01835F9E4FFC
:1010D0000E949A02882361F0CE01835F9E4F0E9496
:1010E000750D70930F0160930E016CE372E002C006
:1010F0006FE372E0CE018F5F9E4F0E94560E6091AB
:101100000E0170910F01F2C0B801CE01835F9E4FB6
:101110000E94EE0E63E872E0CE018F5F9E4F0E9448
:10112000471363E872E0CE01835F9E4F0E949A02EC
:10113000882371F0CE01835F9E4F0E94750D6B0175
:101140007C01709301016093000162E472E02FC0A2
:1011500065E472E0CE018F5F9E4F0E94560E609153
:10116000000170910101C2C0B801CE01835F9E4FA2
:101170000E94EE0E63E872E0CE018F5F9E4F0E94E8
:10118000471363E872E0CE01835F9E4F0E949A028C
:101190008823A1F0CE01835F9E4F0E94750D6B01E5
:1011A0007C017093AB026093AA0268E472E0CE0106
:1011B0008F5F9E4F0E94560EB60198C06BE472E09E
:1011C000CE018F5F9E4F0E94560E6091AA027091D1
:1011D000AB028CC0B801CE01835F9E4F0E94EE0E21
:1011E00063E872E0CE018F5F9E4F0E94471363E871
:1011F00072E0CE01835F9E4F0E949A02882361F0C5
:10120000CE01835F9E4F0E94750D70931301609312
:1012100012016EE472E002C061E572E0CE018F5F00
:101220009E4F0E94560E60911201709113015EC094
:101230000E944602FBC0B801CE01835F9E4F0E9410
:10124000EE0E63E872E0CE018F5F9E4F0E9447135F
:1012500063E872E0CE01835F9E4F0E949A0288236A
:1012600061F0CE01835F9E4F0E94750D70930D015A
:1012700060930C0164E572E002C067E572E0CE01A4
:101280008F5F9E4F0E94560E60910C0170910D0170
:101290002DC0B801CE01835F9E4F0E94EE0E63E821
:1012A00072E0CE018F5F9E4F0E94471363E872E0A9
:1012B000CE01835F9E4F0E949A02882361F0CE0187
:1012C000835F9E4F0E94750D70930B0160930A011E
:1012D0006AE572E002C06DE572E0CE018F5F9E4F5D
:1012E0000E94560E60910A0170910B01CE018F5F32
:1012F0009E4F0E94990D5FC0B801CE01835F9E4F43
:101300000E94EE0E63E872E0CE018F5F9E4F0E9456
:10131000471363E872E0CE01835F9E4F0E949A02FA
:10132000882369F0CE01835F9E4F0E94750D21E0F6
:10133000672B682B692B09F420E02093B102809180
:10134000B102882319F060E672E030C063E672E013
:101350002DC0B801CE01835F9E4F0E94EE0E63E860
:1013600072E0CE018F5F9E4F0E94471363E872E0E8
:10137000CE01835F9E4F0E949A02882371F0CE01B6
:10138000835F9E4F0E94750D21E0672B682B692BB0
:1013900009F420E020932004A3CD80912004882329
:1013A00019F066E672E002C069E672E0CE018F5F76
:1013B0009E4F0E94560EBE016F5F7E4FCE0101967A
:1013C0000E94EE0E41E0BE016F5F7F4F82E090E031
:1013D00081CD6CE672E0CE01895F9E4F0E94560E71
:1013E000B701CE01895F9E4F0E94990D62E972E0BC
:1013F000CE01895F9E4F0E94DC0DB801CE01895F4E
:101400009E4F0E94EB0DBE01695F7E4FCE0101969B
:101410000E94EE0E41E0BE016F5F7F4F84E090E0DE
:101420000E94751ECE0101960E94BD0ECE01895FFD
:101430009E4F0E94BD0ECC5EDE4F0FB6F894DEBF0D
:101440000FBECDBFDF91CF911F910F91FF90EF9015
:10145000DF90CF90BF90AF909F908F907F906F90D4
:101460005F904F903F902F9008956FE672E0CE010D
:1014700001960E94471341E0BE016F5F7F4F83E0FA
:1014800090E00E94751ECE0101960E94BD0E11CC07
:101490008F929F92AF92BF92CF92DF92EF92FF9284
:1014A0000F931F93CF93DF93CDB7DEB72C970FB673
:1014B000F894DEBF0FBECDBF6C0163E872E0CE01D1
:1014C00001960E9447136AE3C6010E94800D8C01B9
:1014D0000F3F8FEF180709F467C0980140E050E014
:1014E000B601CE0107960E94770ECE0107960E94A4
:1014F000750D7B01CE0107960E94BD0EA8014F5FBE
:101500005F4FB601CE0107960E948E02BE01695F51
:101510007F4FCE0101960E94F20DCE0107960E94E8
:10152000BD0EC980DA80C114D10409F441C00D8117
:101530001E8101151105E1F146015401EFEF8E1AEC
:101540009E0AF5018081082E000C990B0E949329B8
:10155000892B99F7015011090C0D1D1DF80180818F
:10156000082E000C990B0E949329892B79F4A8016D
:101570004F5F5F4F4A195B095E834D83CA14DB04DA
:1015800058F4B501C6010E94392906C00A151B0589
:1015900070F301501109E2CFE981FA818D819E81BA
:1015A000E80FF91F108204C0C6010E94750D7B016F
:1015B000BE016F5F7F4FCE0107960E94EE0EBE0107
:1015C000695F7F4FC7010E94BA02CE0107960E9451
:1015D000BD0ECE0101960E94BD0E2C960FB6F8945A
:1015E000DEBF0FBECDBFDF91CF911F910F91FF9056
:1015F000EF90DF90CF90BF90AF909F908F90089525
:101600000F931F93CF93DF93EC018881998100970B
:1016100029F02A813B812617370788F48B016F5FF9
:101620007F4F0E946A28009761F0998388831B830B
:101630000A832C813D81232B11F4FC01108281E06F
:1016400001C080E0DF91CF911F910F910895EF923B
:10165000FF920F931F93CF93DF93FC012481358179
:101660006115710511F480E019C041155105A9F00B
:101670007B01EC018A01020F131FB8010E94000BCD
:10168000882389F3288139818C819D81B701820F5C
:10169000931F0E9456291D830C8381E0DF91CF9117
:1016A0001F910F91FF90EF90089583E480937C0049
:1016B00080917A00806480937A0080917A0086FD20
:1016C000FCCF809178002091790090E0922B0895D2
:1016D000CF93C82F462F61E070E00E94951061E023
:1016E00070E08C2F0E949F108111F9CFCF91089547
:1016F000BF92CF92DF92EF92FF920F931F93CF93FF
:10170000DF937C016B018A01E9016CE271E080E00A
:1017100090E00E940D16BFB6F8948091E10381110C
:1017200027C0EAEBF0E08491E6EAF0E09491E82F3C
:10173000F0E0EE0FFF1FEE56FF4FA591B491EC9134
:10174000E92321F461E08AE00E94A11561E08AE0CA
:101750000E94D1158CB580618CBD8CB580648CBD28
:1017600061E08DE00E94D11561E08BE00E94D1150F
:101770008091E1038F5F8093E103BFBE229A80E5F1
:1017800090E00E94241A60E880E090E00E94FD183A
:1017900065E58BE190E00E94FD1865E58AE190E047
:1017A0000E94FD180E94231A80E090E49093B302F7
:1017B0008093B20280E090E69093BB028093BA02DD
:1017C00080E098E49093B5028093B40280E098E6BC
:1017D0009093BD028093BC0280E090E59093B702A5
:1017E0008093B60280E090E79093BF028093BE02A0
:1017F00080E098E59093B9028093B80280E098E782
:101800009093C1028093C00280E590E00E94241A68
:1018100046E050E064E071E089E090E00E94CE187C
:10182000B7016E5F7F4F44E050E08FE090E00E9490
:10183000CE18B8016E5F7F4F44E050E081E090E049
:101840000E94CE18BE016E5F7F4F44E050E085E0FD
:1018500090E00E94CE180E94231AF60182819381A3
:10186000A481B5818093A9039093AA03A093AB03AD
:10187000B093AC03DF91CF911F910F91FF90EF9048
:10188000DF90CF90BF900895FC0124813581232BF8
:1018900021F080819181009721F41092E00380EE85
:1018A00093E008950F931F930E9447166093CA0216
:1018B0007093CB028093CC029093CD02E091C20250
:1018C000F091C3020680F781E02D82EC92E0099549
:1018D00097FF1FC00E9447160091CA021091CB02C9
:1018E0002091CC023091CD02DC01CB01801B910B09
:1018F000A20BB30B0091C6021091C7022091C8023F
:101900003091C90280179107A207B307B8F28FEF91
:101910009FEF1F910F9108959F92AF92BF92CF9228
:10192000DF92EF92FF920F931F93CF93DF93982E46
:101930008B015A01690164E270E00E949F10E82E59
:10194000F12C65E270E0892D0E949F10FE2CEE24A0
:10195000E82AE701C00FD11F9E013770E92CF12C56
:10196000C701880F991FAC014E545D4F7A01FA01EF
:1019700080819181820F931FA9014C0D5D1D413023
:10198000584090F000E018E0021B130BA801B501CD
:101990000E94CE18A601401B510BB501600F711FAC
:1019A000F7018081918102C0A601B5010E94CE1885
:1019B000CC0DDD1D4D2F64E270E0892D0E94951045
:1019C0004C2F65E270E0892DDF91CF911F910F912F
:1019D000FF90EF90DF90CF90BF90AF909F900C94CE
:1019E0009510FF920F931F93CF93DF93F82EC0E0D3
:1019F000D0E08F2D0E947F188C01892B21F08F2D34
:101A00000E947F18EC01C017D10799F7CE01DF9132
:101A1000CF911F910F91FF9008958F929F92AF9257
:101A2000BF92CF92DF92EF92FF920F931F93CF93CB
:101A3000DF93B82E4B018A01A22E68E270E00E946B
:101A40009F10C82FD0E069E270E08B2D0E949F109C
:101A5000DC2FCC27C82B9E013770CB2CD12CC60194
:101A6000880F991FAC0146545D4F6A01FA018081CD
:101A70009181820F931FA801420F531F413058409C
:101A800098F060E078E07B01E21AF30AA701B40164
:101A90000E949E18A8014E195F09B4016E0D7F1DAA
:101AA000F6018081918102C0A801B4010E949E18B4
:101AB000A1100EC0C00FD11F4D2F68E270E08B2D1A
:101AC0000E9495104C2F69E270E08B2D0E949510BA
:101AD000DF91CF911F910F91FF90EF90DF90CF900A
:101AE000BF90AF909F908F900895FC01808191816D
:101AF000009711F00C946C2960E070E0CB01089520
:101B0000CF93DF93FC0124813581232B69F0C081C1
:101B1000D181062E000C770BCE010E94422900973E
:101B200019F08C1B9D0B02C08FEF9FEFDF91CF91BF
:101B30000895EF92FF920F931F93CF93DF93CDB74A
:101B4000DEB728970FB6F894DEBF0FBECDBF7C017D
:101B5000CB014AE08E010F5F1F4FB8010E94A729F9
:101B6000F80101900020E9F73197AF01401B510BBC
:101B7000B801C7010E94270B28960FB6F894DEBF64
:101B80000FBECDBFDF91CF911F910F91FF90EF90CE
:101B90000895CF93DF9300D0CDB7DEB769831A8263
:101BA00041E050E0BE016F5F7F4F0E94270B0F9016
:101BB0000F90DF91CF9108956115710551F0FB01F0
:101BC00001900020E9F73197AF01461B570B0C94A9
:101BD000270B80E00895FB0144815581608171816C
:101BE0000C94270B0F931F93CF93DF938C01EB0182
:101BF000FC01808191810097B1F068817981611544
:101C0000710579F0428153812C813D814217530740
:101C100040F00E9456298C819D81F8019583848330
:101C200013C00E94D22788819981F8019183808313
:101C30008A819B81938382838C819D819583848318
:101C4000198218821B821A821D821C82DF91CF9119
:101C50001F910F910895EF92FF920F931F93CF93CF
:101C6000DF93EC017B018A01BA010E94000B2881FD
:101C7000398181110DC02115310519F0C9010E946A
:101C8000D227198218821D821C821B821A8206C0EA
:101C90001D830C83B701C9010E945629CE01DF9133
:101CA000CF911F910F91FF90EF900895CF93DF9305
:101CB000EC016115710559F0FB0101900020E9F775
:101CC0003197AF01461B570B0E942B0E0CC0888129
:101CD0009981009711F00E94D227198218821D82E3
:101CE0001C821B821A82CE01DF91CF910895BF9290
:101CF000CF92DF92EF92FF920F931F93CF93DF93D8
:101D00007C016B018A01E9012417350720F4812F3A
:101D10008901C42FD82F63E872E0C7010E944713DE
:101D2000D60114968D919C91159708171907D0F438
:101D30008C179D0708F4EC01D601ED91FC911197E9
:101D4000EC0FFD1FB08010824D915C91BA01600FC5
:101D5000711FC7010E94560ED601ED91FC91EC0F48
:101D6000FD1FB082C701DF91CF911F910F91FF90AE
:101D7000EF90DF90CF90BF900895FC01808191811A
:101D80000C94D2270F931F93CF93DF93CDB7DEB779
:101D900062970FB6F894DEBF0FBECDBF8C01CB01AA
:101DA000F80111821082138212821582148250E08F
:101DB000BE016F5F7F4F0E949C29BE016F5F7F4F06
:101DC000C8010E94560E62960FB6F894DEBF0FBE91
:101DD000CDBFDF91CF911F910F910895FB01DC01E1
:101DE00011961C921E9213961C921E921297159693
:101DF0001C921E9214978617970749F06081718193
:101E00006115710521F0448155810C942B0E0895C4
:101E1000CF93DF931F92CDB7DEB76983DC01ED91DD
:101E2000FC910280F381E02D41E050E0BE016F5F44
:101E30007F4F09950F90DF91CF910895FC01818D1F
:101E4000928D0895FC0184899589089527E931E0F0
:101E5000FC0131832083FB014089518962897389A8
:101E6000FC0142835383648375830895DC01ED9103
:101E7000FC91008CF18DE02D0994CF93DF931F929C
:101E8000CDB7DEB76983DC01ED91FC910280F3816F
:101E9000E02D41E050E0BE016F5F7F4F09950F904C
:101EA000DF91CF910895FC019485FB0184859813FF
:101EB00003C081E0943009F480E0089521E0FC0142
:101EC0008485843009F420E0822F08950895AF922C
:101ED000BF92CF92DF92FF920F931F93CF93DF9326
:101EE0008C015B01EA01FC01C688D788F08C80E593
:101EF00090E00E94241A8F2D0E94F10C8C179D07F0
:101F000020F48F2D0E94F10CEC019E01A501B60179
:101F10008F2D0E948C0C0E94231AF80186899789C4
:101F20008C0F9D1F978B868BCE01DF91CF911F91D8
:101F30000F91FF90DF90CF90BF90AF900895CF9218
:101F4000DF92EF92FF920F931F93CF93DF93CDB762
:101F5000DEB7AF970FB6F894DEBF0FBECDBF7C01E2
:101F60006A0107E911E01A8309831C861B8688EE43
:101F700093E0A0E0B0E08D879E87AF87B88B87ECB9
:101F800091E09A878987188F0F8B198E1A8E1B8E76
:101F90001C8E84E089A31DA30CA31EA21FA218A659
:101FA00019A68091A9039091AA03A091AB03B091C7
:101FB000AC038CA79DA7AEA7BFA78B839C83AD83E3
:101FC000BE8318861F82AE014C5D5F4FCE01019625
:101FD0000E942B1B81309105B1F4D701ED91FC914A
:101FE0000088F189E02D1BA70AA78EA19FA1A8A5B3
:101FF000B9A58CA79DA7AEA7BFA7A601BE01665D28
:102000007F4FC7010995AF960FB6F894DEBF0FBE9C
:10201000CDBFDF91CF911F910F91FF90EF90DF9097
:10202000CF900895CF93DF93EC01888D843061F0D9
:102030000E94CA20E88DF0E0EE0FFF1FE45FFB4F27
:102040001182108284E0888FDF91CF910895EF9202
:10205000FF921F93CF93DF93FC01208D243011F06A
:1020600080E01CC07B01EC0110E0812F0E94DE208B
:10207000811102C0188F05C08831E1F31F5F143051
:10208000A1F7888D843061F3FD86EC861A8E198E57
:1020900020E0A70162E00E941F1981E0DF91CF914B
:1020A0001F91FF90EF9008950F931F93CF93DF93AD
:1020B0001F92CDB7DEB78C01DC01ED91FC9104805D
:1020C000F581E02D0995892B51F0BE016F5F7F4F9F
:1020D000F80184850E946319898190E002C08FEF26
:1020E0009FEF0F90DF91CF911F910F910895FC0109
:1020F00084850C94D61FCF93DF931F92CDB7DEB7A4
:1021000041E050E0BE016F5F7F4FFC0184850E947B
:10211000D61F181619061CF4898190E002C08FEFB3
:102120009FEF0F90DF91CF9108959B0190E004966F
:10213000982F8827642F820F931F0C94FD180F93FC
:102140001F93CF93DF931F92CDB7DEB790E0049635
:10215000982F88278C01060F171F0E9465188FE0A3
:102160000E949718812F0E949718802F0E9497181D
:1021700080E00E94971889830E94631889810F90DC
:10218000DF91CF911F910F910895CF93FC01C08DE6
:1021900080E590E00E94241A60E270E08C2F0E949B
:1021A000680B62E070E08C2F0E949F1084FD19C0C4
:1021B00062E070E08C2F0E949F1083FF0BC048E10B
:1021C00062E070E08C2F0E9495100E94231A80E03C
:1021D00090E011C00E94231A80E590E00E94241A2A
:1021E000E0CF40E162E070E08C2F0E9495100E94E9
:1021F000231A81E090E0CF910895CF93DF93C82F09
:10220000D62F472F60E170E00E9495104D2F61E1BD
:1022100070E08C2FDF91CF910C949510FF920F936B
:102220001F93CF93DF93FB01DC0157961C921E9204
:1022300056975896FC908281811109C08381811143
:1022400006C08481811103C085818823F9F041157E
:102250005105E1F08A01EF0180E590E00E94241A27
:10226000BE016E5F7F4F2F2D30E0922F882744E014
:1022700050E0845F9B4F0E94CE18B8018F2D0E94C2
:10228000FD100E94231A81E090E002C080E090E0FF
:10229000DF91CF911F910F91FF900895FC018485EC
:1022A000843011F00C94DE2080E008958F929F928C
:1022B000AF92BF92CF92DF92EF92FF920F931F9354
:1022C000CF93DF93CDB7DEB72D970FB6F894DEBF6F
:1022D0000FBECDBF7C0100E010E038EE832E33E06E
:1022E000932EA12CB12C41E6C42E41E0D42E1C82A9
:1022F0001B828D829E82AF82B886DA82C9820D8768
:10230000CE0101960E944E11811125C0F701448132
:10231000558120E061E0802F0E941F1980E590E048
:102320000E94241A63E070E0802F0E949F10833186
:1023300029F462E070E0802F0E94680B0E94231A4B
:10234000F70184819581000F111FF801E45FFB4FB5
:102350009183808305C00F5F1F4F0430110539F64C
:102360002D960FB6F894DEBF0FBECDBFDF91CF9193
:102370001F910F91FF90EF90DF90CF90BF90AF90A3
:102380009F908F900895CF93DF93FC012485243094
:10239000D1F0EC010E944E11843181F0882371F05C
:1023A000883161F08C3161F4E881F9810480F58134
:1023B000E02DCE01099521E0892B19F420E001C020
:1023C00021E0822F01C080E0DF91CF910895CF926C
:1023D000DF92EF92FF921F93CF93DF93FC0114855E
:1023E0001430A9F1EC0180E590E00E94241A68E025
:1023F00070E0812F0E94680B0E94231A0E944716EA
:102400006B017C01CE010E944E118823B1F061E086
:1024100070E080E090E00E940D160E944716DC01FB
:10242000CB018C199D09AE09BF09883E9340A105D7
:10243000B10540F38C850E94CA20EC85F0E0EE0FD8
:10244000FF1FE45FFB4F1182108284E08C87DF91D5
:10245000CF911F91FF90EF90DF90CF9008954F9212
:102460005F926F927F928F929F92AF92BF92CF9224
:10247000DF92EF92FF921F93CF93DF93CDB7DEB73A
:102480002D970FB6F894DEBF0FBECDBF7C019CE048
:10249000A92E94E0B92E10E0C12CD12C28EE422EAA
:1024A00023E0522E612C712C31E6832E31E0932EE5
:1024B0001C821B824D825E826F8278869A8289821C
:1024C0001D87D5012D913D915D01F7018481958195
:1024D00028173907B1F4CE0101960E944E118431BC
:1024E00069F0CE0101960E944E118C3151F4CE015B
:1024F00001960E94A719892B91F003C0CC24C394A4
:10250000D12C1F5F1430A1F6CD2871F4D701ED91C5
:10251000FC910480F581E02DC701099505C0CE012D
:1025200001960E94E711EDCF2D960FB6F894DEBF0D
:102530000FBECDBFDF91CF911F91FF90EF90DF9045
:10254000CF90BF90AF909F908F907F906F905F9053
:102550004F9008952F923F924F925F926F927F9289
:102560008F929F92AF92BF92CF92DF92EF92FF92A3
:102570000F931F93CF93DF93CDB7DEB72E970FB690
:10258000F894DEBF0FBECDBF7C016B015A010E94E3
:102590002F120CE014E020E0612C712C88EE282E24
:1025A00083E0382E412C512C91E6892E91E0992E12
:1025B0001C821B822D823E824F8258869A8289829B
:1025C0002D87F801419151918F01F7018481958107
:1025D0004817590741F4CE0101962E870E944E11EB
:1025E0002E858731E9F02F5F243011F7C3012E9635
:1025F0000FB6F894DEBF0FBECDBFDF91CF911F9114
:102600000F91FF90EF90DF90CF90BF90AF909F9091
:102610008F907F906F905F904F903F902F90089594
:10262000A501B601CE0101962E870E94271A680ED9
:10263000791E2E85D8CF0895CF92DF92EF92FF9228
:102640000F931F93CF93DF936C017A018B01C0E04E
:10265000D0E0CE15DF0589F0D8016D918D01D6014E
:10266000ED91FC910190F081E02DC6010995892B37
:1026700011F47E0102C02196ECCFC701DF91CF910A
:102680001F910F91FF90EF90DF90CF900895FC0184
:1026900011821082138212821582148261157105D3
:1026A00051F0FB0101900020E9F73197AF01461B83
:1026B000570B0C942B0E08956115710579F0FB01F1
:1026C00001900020E9F73197AF01461B570BDC0161
:1026D000ED91FC910280F381E02D099480E090E07F
:1026E00008954F925F926F927F92EF92FF920F93B5
:1026F0001F93CF93DF93CDB7DEB7A1970FB6F894B2
:10270000DEBF0FBECDBF7C01FA01CB0119A2223082
:1027100008F42AE08E010F5D1F4F422E512C612CD0
:10272000712CBF01A30192010E94F429F901CA0191
:10273000015011096A3014F4605D01C0695CD80170
:102740006C93232B242B252B61F7B801C7010E9422
:102750005C13A1960FB6F894DEBF0FBECDBFDF911C
:10276000CF911F910F91FF90EF907F906F905F90AE
:102770004F900895FC01918D828D981761F0828DA4
:10278000DF01A80FB11D5D968C91928D9F5F9F73A5
:10279000928F90E008958FEF9FEF0895FC01918D47
:1027A000828D981731F0828DE80FF11D858D90E0B4
:1027B00008958FEF9FEF0895FC01918D228D892F51
:1027C00090E0805C9F4F821B91098F739927089539
:1027D00082EC92E00E94DC1321E0892B09F420E0D6
:1027E000822F0895FC01848DDF01A80FB11DA35A2B
:1027F000BF4F2C91848D90E001968F739927848F21
:10280000A689B7892C93A089B1898C9180648C9317
:10281000938D848D981306C00288F389E02D808102
:102820008F7D80830895EF92FF920F931F93CF9334
:10283000DF93EC0181E0888F9B8D8C8D981305C010
:10284000E889F989808185FD24C0F62E0B8D10E082
:102850000F5F1F4F0F731127E02E8C8DE8120CC0F5
:102860000FB607FCFACFE889F989808185FFF5CF9B
:10287000CE010E94F213F1CF8B8DFE01E80FF11D06
:10288000E35AFF4FF0820B8FEA89FB8980818062D7
:1028900007C0EE89FF896083E889F98980818064B7
:1028A000808381E090E0DF91CF911F910F91FF90A5
:1028B000EF900895CF93DF93EC01888D8823C9F0C2
:1028C000EA89FB89808185FD05C0A889B9898C9139
:1028D00086FD0FC00FB607FCF5CF808185FFF2CFD4
:1028E000A889B9898C9185FFEDCFCE010E94F213A2
:1028F000E7CFDF91CF91089580E090E0892B29F018
:102900000E94E81381110C9400000895833081F037
:1029100028F4813099F08230A1F008958730A9F031
:102920008830B9F08430D1F4809180008F7D03C06D
:10293000809180008F7780938000089584B58F7791
:1029400002C084B58F7D84BD08958091B0008F77DB
:1029500003C08091B0008F7D8093B00008953FB791
:10296000F89480914E0490914F04A0915004B0913E
:10297000510426B5A89B05C02F3F19F00196A11D53
:10298000B11D3FBFBA2FA92F982F8827820F911D05
:10299000A11DB11DBC01CD0142E0660F771F881F4C
:1029A000991F4A95D1F708958F929F92AF92BF9247
:1029B000CF92DF92EF92FF920F931F93CF93DF930B
:1029C0007C01EB016C0182E0C80ED11C4701E5E0FF
:1029D0008E0E911C00E010E0F60141916F0150E075
:1029E00060E070E02AE0CE010E9471135C01E88192
:1029F000F9810190F081E02D6EE2CE0109958A0DFA
:102A00009B1D080F191FC814D90431F7F701458120
:102A100050E060E070E02AE0CE010E947113800F68
:102A2000911FDF91CF911F910F91FF90EF90DF9059
:102A3000CF90BF90AF909F908F9008950E943429BF
:102A40001F920F920FB60F9211242F933F934F9323
:102A50005F936F937F938F939F93AF93BF93EF9306
:102A6000FF9382EC92E00E94F213FF91EF91BF91ED
:102A7000AF919F918F917F916F915F914F913F9116
:102A80002F910F900FBE0F901F9018951F920F92CD
:102A90000FB60F9211242F938F939F93EF93FF9371
:102AA000E091D202F091D3028081E091D802F091BE
:102AB000D90282FD12C090818091DB028F5F8F73FB
:102AC0002091DC02821751F0E091DB02F0E0EE533E
:102AD000FD4F958F8093DB0201C08081FF91EF91C4
:102AE0009F918F912F910F900FBE0F901F9018956F
:102AF000CF93DF93282F30E0F901E852FF4F849104
:102B0000F901E456FF4FD491F901E055FF4FC4910C
:102B1000CC2391F081110E948614EC2FF0E0EE0F8F
:102B2000FF1FE253FF4FA591B491EC91ED2381E09B
:102B300090E021F480E002C080E090E0DF91CF914E
:102B400008951F93CF93DF93282F30E0F901E852C7
:102B5000FF4F8491F901E456FF4FD491F901E055FC
:102B6000FF4FC491CC23C9F0162F81110E94861407
:102B7000EC2FF0E0EE0FFF1FEC53FF4FA591B49147
:102B80008FB7F894111105C09C91ED2FE095E923C2
:102B900002C0EC91ED2BEC938FBFDF91CF911F9191
:102BA0000895CF93DF9390E0FC01E456FF4F24910A
:102BB000FC01E055FF4F8491882361F190E0880F7C
:102BC000991FFC01EE56FF4FC591D491FC01EC53C7
:102BD000FF4FA591B491611109C09FB7F894888106
:102BE000209582238883EC912E230BC0623061F400
:102BF0009FB7F8943881822F809583238883EC9146
:102C00002E2B2C939FBF06C08FB7F894E8812E2BF4
:102C100028838FBFDF91CF9108958F929F92AF92BB
:102C2000BF92CF92DF92EF92FF926B017C010E94E4
:102C3000AF144B015C01C114D104E104F104F1F0C3
:102C40000E94AF14DC01CB0188199909AA09BB09BC
:102C5000883E9340A105B10570F321E0C21AD10866
:102C6000E108F10888EE880E83E0981EA11CB11CD3
:102C7000C114D104E104F10419F7DDCFFF90EF9006
:102C8000DF90CF90BF90AF909F908F9008952FB717
:102C9000F89460914A0470914B0480914C04909197
:102CA0004D042FBF08951F920F920FB60F9211245B
:102CB0002F933F938F939F93AF93BF9380914A0439
:102CC00090914B04A0914C04B0914D043091490473
:102CD00023E0230F2D3720F40196A11DB11D05C05F
:102CE00026E8230F0296A11DB11D2093490480936D
:102CF0004A0490934B04A0934C04B0934D048091EC
:102D00004E0490914F04A0915004B091510401964B
:102D1000A11DB11D80934E0490934F04A0935004C5
:102D2000B0935104BF91AF919F918F913F912F919B
:102D30000F900FBE0F901F901895609345047093ED
:102D400046048093470490934804DC01CB01845DE2
:102D50009E4FAF4FBF4F8093410490934204A09386
:102D60004304B093440482E090E090934004809345
:102D70003F040E94471660933B0470933C04809389
:102D80003D0490933E040895CF92DF92EF92FF921C
:102D90000F931F930E944716C0903B04D0903C04B1
:102DA000E0903D04F0903E048B019C010C191D093C
:102DB0002E093F098091450490914604A091470453
:102DC000B0914804083E134021053105D0F001962A
:102DD000A11DB11D8093450490934604A093470420
:102DE000B0934804B701A60148515C4F6F4F7F4F25
:102DF00040933B0450933C0460933D0470933E0425
:102E0000C9CF4091410450914204609143047091B4
:102E1000440484179507A607B70788F1E0913904A1
:102E2000F0913A04309759F10995611571058105C2
:102E3000910519F00E949D1622C080914504909141
:102E40004604A0914704B0914804845D9E4FAF4F63
:102E5000BF4F8093410490934204A0934304B093E6
:102E6000440481E090E020913F0430914004232B02
:102E700011F480E090E09093400480933F046091CF
:102E800045047091460480914704909148041F9135
:102E90000F91FF90EF90DF90CF9008954F925F9247
:102EA0006F927F928F929F92AF92BF92CF92DF925A
:102EB000EF92FF920F931F93CF93DF934B015C012F
:102EC0008091350490913604A0913704B091380474
:102ED00088169906AA06BB0609F4C2C08CE3C82E60
:102EE000D12CE12CF12CC501B401A70196010E945F
:102EF000F42960932C04CA01B901A70196010E942C
:102F0000F42960932D04CA01B90128E130E040E0C2
:102F100050E00E94F42969017A0160932E04CA01ED
:102F2000B9016C5F7F4F8F4F9F4F27E030E040E04B
:102F300050E00E94F4296F5F60932F04412C512CC4
:102F4000320140E004E610E0C0E9D1E0242F30E097
:102F50002E54384FF901E370FF27309789F4C901E7
:102F6000B8010E940F27892B31F4C901BE010E94CC
:102F70000F27892B29F48EE691E0A0E0B0E004C091
:102F80008DE691E0A0E0B0E0480E591E6A1E7B1E5F
:102F9000D301C201AA27BB27C816D906EA06FB0639
:102FA00010F04F5FD3CF40933204309799F4C901AA
:102FB00064E670E00E940F27892B39F4C90160E9AB
:102FC00071E00E940F27892B29F48EE691E0A0E0A2
:102FD000B0E004C08DE691E0A0E0B0E0481A590AE4
:102FE0006A0A7B0AC418D508E608F708C90164E62E
:102FF00070E00E940F27EC01C90160E971E00E94B6
:103000000F27A9EEB1E020E0213039F4309749F4E0
:10301000209729F4009729F402C04C9103C04DE198
:1030200001C04CE150E060E070E0C416D506E60651
:10303000F70640F0C41AD50AE60AF70A2F5F119680
:103040002C3011F72F5F20933104C394C0923004C9
:103050008092350490923604A0923704B0923804DE
:10306000DF91CF911F910F91FF90EF90DF90CF9064
:10307000BF90AF909F908F907F906F905F904F9098
:1030800008950E94C4160E944E178091320490E069
:103090008E54984F08950E94C4160E944E17809136
:1030A0002C0490E008950E94C4160E944E1780914F
:1030B0002D0490E008950E94C4160E944E1780913E
:1030C0002E0490E008952A9A08952A9808951F934F
:1030D000CF93DF93182F66E270E00E949F10C82FF5
:1030E000D0E067E270E0812F0E949F10DC2FCC2798
:1030F0009E01282BC901DF91CF911F9108951F9345
:10310000CF93DF93182F60E270E00E949F10C82FCA
:10311000D0E061E270E0812F0E949F10DC2FCC276D
:103120009E01282BC901DF91CF911F9108958EBD7B
:1031300000000DB407FEFDCF8EB50895CF92DF924B
:10314000EF92FF920F931F93CF93DF93EC017A01DD
:103150008B016C01C40ED51ECC15DD05A9F00E94B3
:1031600065188FE00E9497188D2F0E9497188C2F5A
:103170000E949718219680E00E949718F801819389
:103180008F010E946318E8CFC701DF91CF911F9193
:103190000F91FF90EF90DF90CF900895CF92DF9244
:1031A000EF92FF920F931F93CF93DF93EC017A017D
:1031B0008B016C01C40ED51ECC15DD05A1F00E945B
:1031C000651880EF0E9497188D2F0E9497188C2FFA
:1031D0000E9497182196F80181918F010E949718FB
:1031E0000E946318E9CFC701DF91CF911F910F9122
:1031F000FF90EF90DF90CF9008951F93CF93DF93D0
:1032000000D0CDB7DEB7182F6A8399830E94651866
:1032100080EF0E9497189981892F0E949718812F1B
:103220000E9497186A81862F0E9497180E9463183F
:1032300081E00F900F90DF91CF911F910895FF9241
:103240000F931F93CF93DF9300D0CDB7DEB7F82E47
:103250008A012A8369830E94CA2080E590E00E9447
:10326000241A2A816981462F422B60E070E08F2D5D
:103270000E9495100115110551F40091330410912D
:1032800034040F5F1F4F1093340400933304412F15
:1032900064E070E08F2D0E949510402F65E070E093
:1032A0008F2D0E94951061E070E08F2D0E94680BB9
:1032B0000E94231A81E00F900F90DF91CF911F9110
:1032C0000F91FF9008951F93CF93DF9300D0CDB758
:1032D000DEB7182F80E590E069837A830E94241A74
:1032E00021E041E050E069817A81812F0E940D0D3B
:1032F0000E94231A81E090E00F900F90DF91CF9110
:103300001F910895CF93DF931F92CDB7DEB76983E6
:10331000DC01ED91FC910280F381E02D41E050E071
:10332000BE016F5F7F4F09950F90DF91CF91089598
:10333000DC01ED91FC91048CF58DE02D099591E077
:1033400089270895862F089581E086270895FC0136
:103350008485843011F00C94B41F80E090E00895CF
:10336000CF92DF92EF92FF920F931F93CF93DF9351
:10337000CDB7DEB7AF970FB6F894DEBF0FBECDBFA7
:103380007C016A0107E911E01A8309831C861B8608
:1033900088EE93E0A0E0B0E08D879E87AF87B88B82
:1033A00087EC91E09A878987188F0F8B198E1A8E78
:1033B0001B8E1C8E84E089A31DA30CA31EA21FA23A
:1033C00018A619A68091A9039091AA03A091AB0316
:1033D000B091AC038CA79DA7AEA7BFA78B839C839E
:1033E000AD83BE8318861F82AE014C5D5F4FCE0158
:1033F00001960E942B1B81309105B1F4D701ED910C
:10340000FC910484F585E02D1BA70AA78EA19FA13E
:10341000A8A5B9A58CA79DA7AEA7BFA7A601BE0169
:10342000665D7F4FC7010995AF960FB6F894DEBF72
:103430000FBECDBFDF91CF911F910F91FF90EF9005
:10344000DF90CF90089508958CBD9DBD08958F9213
:103450009F92AF92BF92CF92DF92EF92FF920F9323
:103460001F93CF936C015B017A01FC01C485C430CA
:1034700041F481E090E0F6019383828380E090E064
:103480004EC08A014130584010F000E018E080E55D
:1034900090E00E94241A8C2F0E94F10C4C0163E0F2
:1034A00070E08C2F0E949F10873111F08C3121F435
:1034B0008016910660F302C000E010E080E590E025
:1034C0000E94241A9801A50160E070E08C2F0E94F0
:1034D0008C0C60E270E08C2F0E94680B62E070E060
:1034E0008C2F0E949F1084FD10C063E070E08C2F31
:1034F0000E949F10811104C08C2F0E94CA20B9CF56
:1035000080E590E00E94241AE9CF40E162E070E09B
:103510008C2F0E949510012B09F4ABCFC701CF91DE
:103520001F910F91FF90EF90DF90CF90BF90AF90E1
:103530009F908F900895CF92DF92FF920F931F93E9
:10354000CF93DF93FC012485243009F077C06A0112
:10355000EB018C01F12C8F2D0E94DE20811103C024
:10356000F801F48607C08B7F8831D1F3F394F4E03F
:10357000FF12F1CFF8018485843009F45FC02091F7
:103580001501309116012F5F3F4F11F420E030EC10
:1035900030931601209315014091150150911601A9
:1035A00020E061E00E941F19F801F4848A818F3FB6
:1035B00051F48B818F3F91F48C818F3F79F48D8111
:1035C0008F3F61F438C0811109C08B81811106C021
:1035D0008C81811103C08D81882369F1C114D104CC
:1035E00051F180E590E00E94241ABE016E5F7F4F8A
:1035F0008F2D90E0982F882744E050E0845F9B4F08
:103600000E94CE18B6018F2D0E94FD1064E070E07C
:103610008F2D0E94680BC8010E944E11873189F0DE
:1036200061E070E080E090E00E940D16C8010E9409
:103630004E118111F0CF84E0F801848780E090E0A2
:1036400002C081E090E0DF91CF911F910F91FF9038
:10365000DF90CF9008952F923F924F925F926F929A
:103660007F928F929F92AF92BF92CF92DF92EF9212
:10367000FF920F931F93CF93DF93CDB7DEB765977C
:103680000FB6F894DEBF0FBECDBF7C016B013A01CF
:10369000FB0120E080E090E06AE03191332309F102
:1036A00040ED430F4A3080F4689FA001699F500DA0
:1036B0001124CA01C097830F911D37FD9A958F3F42
:1036C000910559F350F313C03E3289F4233079F059
:1036D000D301A20FB11D12968C932F5F80E090E072
:1036E000DCCF233021F4F301858381E021C0F70191
:1036F00042815381648175818091B1039091B203BD
:10370000A091B303B091B403481759076A077B0728
:1037100009F49EC10E9447168701085F1F4F6F7012
:1037200077277C5FC8010E942710813019F080E064
:1037300090E0F3C187E991E09A838983F701828160
:103740009381A481B5818B839C83AD83BE8345E344
:1037500050E0BE016F5F7F4FC8010E940E11892BA0
:1037600019F4C12CD12C6FC10E944716F701778341
:1037700066837627672776277A83698342E050E05D
:10378000BE016F5F7F4FC8010E94670F81E090E02C
:103790009E878D8742E050E0BE01635F7F4FC80186
:1037A0000E94670F80E091E09E878D8742E050E0A5
:1037B000BE01635F7F4FC8010E94670F1E861D8692
:1037C00042E050E0BE01635F7F4FC8010E94670F77
:1037D00042E050E0BE01635F7F4FC8010E94670F67
:1037E00042E050E0BE01635F7F4FC8010E94670F57
:1037F0005601F5018081882311F1F6015F01819165
:10380000811115C045018C189D081814190494F4F1
:103810008F8641E050E0BE01615F7F4FC8010E948A
:10382000670FA401B601C8010E94670F03C08E3262
:1038300029F7E8CF6501FFEFCF1ADF0ADACF1F863D
:1038400041E050E0BE01615F7F4FC8010E94670FF9
:10385000C12CDD24D394DE86CD8642E050E0BE014B
:10386000635F7F4FC8010E94670FDE86CD8642E00E
:1038700050E0BE01635F7F4FC8010E94670FC8011F
:103880000E94C510892B09F46CCF63E0A62EB12CE1
:10389000F2E06F0E711C0E9447161B012C01C8013B
:1038A0000E94712018161906A4F00E944716DC0128
:1038B000CB0182199309A409B50989389341A1055F
:1038C000B105D0F462E370E080E090E00E940D1654
:1038D000E6CFF7014281538164817581808D918D9E
:1038E000A28DB38D481759076A077B0741F4848D71
:1038F000958DC59721F406C02FEF3FEF9AC02EEFAC
:103900003FEF97C0F70181A192A10C970CF4A6C0DC
:103910004CE050E0BE016F5F7F4FC8010E9429203C
:103920008B8190E0982F88272C81822B9A8B898B12
:10393000298130E0322F22274A81242BF70146814A
:1039400057814217530709F086C097FF84C08F70D4
:103950009270892B09F0DEC0CF80D12CDC2CCC24D6
:103960008885C82AC114D10409F4D1C0812C912CB6
:103970008D8190E0982F88272E81822B88169906BA
:1039800008F46FC0812C912C41E050E0BE016D5EC7
:103990007F4FC8010E9429208B89982F907C09F0C5
:1039A00093C0811186C08B898111EECF42E050E037
:1039B000BE01615F7F4FC8010E94292042E050E0B4
:1039C000BE01635F7F4FC8010E942920C8010E9489
:1039D0004820C8010E944820C8010E944820C80110
:1039E0000E94482042E050E0BE016F5E7F4FC80158
:1039F0000E9429208F8598898115914009F069C01E
:103A00002D853E853227232732272130310509F0C5
:103A100060C089899A898115944009F075C044E095
:103A200050E0B301C8012C8B3D8B0E9429202C89CA
:103A30003D896901F1E0AF1AB10829F02FEFC216F4
:103A4000D20609F428CFC8010E941210C60165C031
:103A50008EEF9FEF62C02CEF3FEFEBCF2DEF3FEFEC
:103A6000E8CF41E050E0BE01635F7F4FC8010E9494
:103A700029208D85811113C08D858111F2CFC80158
:103A80000E944820C8010E944820C8010E94482086
:103A9000C8010E944820FFEF8F1A9F0A69CF8D85C9
:103AA0009FEF980F9D87882339F3C8010E94482013
:103AB000F6CF8B899FEF980F9B8B882309F473CFE8
:103AC000C8010E944820F5CFC8010E9448201B8AE7
:103AD0006ACF412C512C89899A8998278927982760
:103AE0004816590638F4C8010E9448208FEF481A3A
:103AF000580AF1CFEFEF8E1A9E0A8C149D0409F03C
:103B000043CF26EF3FEF95CF27EF3FEF92CF2AEF3E
:103B10003FEF8FCF2BEF3FEF8CCF65960FB6F8942A
:103B2000DEBF0FBECDBFDF91CF911F910F91FF90F0
:103B3000EF90DF90CF90BF90AF909F908F907F904D
:103B40006F905F904F903F902F9008950F931F9329
:103B5000CF93DF9300D000D000D0CDB7DEB78C017B
:103B60000E9441184AE0BC01C8010E94C20E63EAEB
:103B700072E0C8010E94DC0D0E94C4160E944E171C
:103B80008091310490E00A972CF461E072E0C80162
:103B90000E94DC0D0E94C4160E944E1760913104F1
:103BA00070E04AE0CE0101960E94C20EBE016F5F36
:103BB0007F4FC8010E94EB0DCE0101960E94BD0E01
:103BC00063EA72E0C8010E94DC0D0E94C4160E94E4
:103BD0004E178091300490E00A972CF461E072E077
:103BE000C8010E94DC0D0E94C4160E944E1760910D
:103BF000300470E04AE0CE0101960E94C20EBE0180
:103C00006F5F7F4FC8010E94EB0DCE0101960E94AD
:103C1000BD0E65EA72E0C8010E94DC0D0E945B18CF
:103C20000A972CF461E072E0C8010E94DC0D0E944A
:103C30005B184AE0BC01CE0101960E94C20EBE0193
:103C40006F5F7F4FC8010E94EB0DCE0101960E946D
:103C5000BD0E62E972E0C8010E94DC0D0E9453189B
:103C60000A972CF461E072E0C8010E94DC0D0E940A
:103C700053184AE0BC01CE0101960E94C20EBE015B
:103C80006F5F7F4FC8010E94EB0DCE0101960E942D
:103C9000BD0E62E972E0C8010E94DC0D0E944B1863
:103CA0000A972CF461E072E0C8010E94DC0D0E94CA
:103CB0004B184AE0BC01CE0101960E94C20EBE0123
:103CC0006F5F7F4FC8010E94EB0DCE0101960E94ED
:103CD000BD0EC80126960FB6F894DEBF0FBECDBF4D
:103CE000DF91CF911F910F910895EF92FF921F9353
:103CF000CF93DF93CDB7DEB72C970FB6F894DEBF26
:103D00000FBECDBF7B01142F4AE0BC01CE0101964E
:103D10000E94C20E62E972E0CE0101960E94DC0DA3
:103D2000B701CE0101960E94EB0D61E872E0CE0171
:103D300001960E94DC0D4D815E8169817A8182EC61
:103D400092E00E941C1368EC70E080E090E00E941A
:103D50000D16112349F1BE016F5F7F4FCE0107960B
:103D60000E94EE0E8091C1038430D1F085EB93E088
:103D70000E94C3118823A1F0E091B503F091B6032E
:103D80004B855C856F8178850280F381E02D85EB22
:103D900093E0099561E872E085EB93E00E945C1383
:103DA000CE0107960E94BD0ECE0101960E94BD0E67
:103DB0002C960FB6F894DEBF0FBECDBFDF91CF912A
:103DC0001F91FF90EF900895CF93DF93CDB7DEB7AB
:103DD0002C970FB6F894DEBF0FBECDBF67EA72E036
:103DE000CE0101960E944713CE0107960E94A61DA0
:103DF000BE01695F7F4FCE0101960E94EB0DCE019F
:103E000007960E94BD0EBE016F5F7F4FCE010796E1
:103E10000E94EE0E41E0BE01695F7F4F82E090E0BC
:103E20000E94751ECE0107960E94BD0ECE0101961E
:103E30000E94BD0E2C960FB6F894DEBF0FBECDBF0C
:103E4000DF91CF9108950895BF92CF92DF92EF92C4
:103E5000FF920F931F93CF93DF9300D000D000D039
:103E6000CDB7DEB7FC01208D243009F053C06A01C4
:103E70007B018C01B12C63E070E08B2D0E949F10C0
:103E8000811103C0F801B08E06C08831D9F3B39414
:103E9000F4E0BF12F0CFF801808D8430D9F196E0C4
:103EA000E5EFF1E0DE01119601900D929A95E1F7B0
:103EB000F70193819F779C8394819D8395819E8355
:103EC000B7016E5F7F4F90E0982F882744E050E065
:103ED000845F9B4F0E94CE18B601F801808D0E942E
:103EE000FD10F801808D90E0982F882746E050E083
:103EF000BE016F5F7F4F8A5F9B4F0E94CE18F80113
:103F0000128E118E20E8A60162E0808D0E941F199A
:103F100081E001C080E026960FB6F894DEBF0FBEA8
:103F2000CDBFDF91CF911F910F91FF90EF90DF9068
:103F3000CF90BF900895CF93DF931F92CDB7DEB798
:103F4000FC01218D328D232B49F0BE016F5F7F4F25
:103F5000808D0E946319898190E002C08FEF9FEFEE
:103F60000F90DF91CF910895FF920F931F93CF93FE
:103F7000DF93F82E80E590E00E94241AC0E0D0E0A4
:103F80008F2D0E9467188C01892B21F08F2D0E94A4
:103F90006718EC01C017D10799F70E94231ACE01C8
:103FA000DF91CF911F910F91FF900895AF92BF9233
:103FB000CF92DF92EF92FF921F93CF93DF93182F50
:103FC0005B017A0180E590E00E94241AC0E0D0E015
:103FD000812F0E9467186C01892B21F0812F0E948C
:103FE0006718EC01CC15DD0599F7209799F463E08B
:103FF00070E0812F0E949F108431F1F08823E1F05E
:10400000C1E0D0E08C3111F4C0E0D0E0D195C19591
:10401000D10912C0EC16FD060CF4E7011C161D06B2
:104020005CF420E0AE01B501812F0E940D0D60E42B
:1040300070E0812F0E94680B0E94231ACE01DF914D
:10404000CF911F91FF90EF90DF90CF90BF90AF90F6
:104050000895CF93DF93FC01218D328D2115310519
:1040600019F48FEF9FEF11C0EC014217530708F0CE
:10407000A901888D0E94D61F1816190694F7298D5C
:104080003A8D281B390B3A8F298FDF91CF910895F4
:104090000F931F93CF93DF931F92CDB7DEB7FC0131
:1040A000218D328D232B61F08C0141E050E0BE0167
:1040B0006F5F7F4F808D0E94D61F181619061CF067
:1040C0008FEF9FEF08C0F801818D928D0197928F3D
:1040D000818F898190E00F90DF91CF911F910F9197
:1040E00008950F931F93CF93DF93CDB7DEB7289733
:1040F0000FB6F894DEBF0FBECDBF8C01F801818DE5
:10410000928D892B49F0D801ED91FC910680F781C1
:10411000E02DC8010995F2CF808D0E94B41F1816BA
:1041200019065CF548E050E0BE016F5F7F4FD80193
:1041300058968C910E94D61F9C0118161906DCF423
:1041400089819A81AB81BC81F801808B918BA28B94
:10415000B38B8D8190E0982F88272E81820F911D3F
:10416000958B848B2F8130E0322F22278885280F72
:10417000311D328F218FC90102C080E090E0289666
:104180000FB6F894DEBF0FBECDBFDF91CF911F9168
:104190000F910895CF93C82F80E590E00E94241AD4
:1041A00060E170E08C2F0E94680B4FEF62E070E0DE
:1041B0008C2F0E949510CF910C94231A1F93CF93AC
:1041C000DF931F92CDB7DEB7182F80E590E00E94F5
:1041D000241A63E070E0812F0E949F1089830E945F
:1041E000231A89810F90DF91CF911F910895E2EEFC
:1041F000F3E087E991E09183808312821382148235
:104200001582E2ECF2E01382128248EE53E060E0A5
:1042100070E0448355836683778325E231E0318300
:10422000208325EC30E03587248724EC30E0378785
:10423000268720EC30E0318B208B21EC30E0338B73
:10424000228B22EC30E0358B248B26EC30E0378B50
:10425000268B118E128E138E148EEFE5F3E01682EC
:104260001782108611861286138614861586168686
:104270001786108A118A128A138A148A158AE8EE20
:10428000F3E0918380831282138214821582EEEE12
:10429000F3E0918380831282138214821582E4EF0B
:1042A000F3E0918380831282138214821582EAEFF5
:1042B000F3E0918380831282138214821582E7EAED
:1042C000F3E0918380831282138214821582EFEAD5
:1042D000F3E0918380831282138214821582E0E0DE
:1042E000F4E0918380831282138214821582E6E0C7
:1042F000F4E0918380831282138214821582EAEDA6
:10430000F3E0918380833AE0328321E023832483A6
:10431000A8ECA583E4EDF3E09183808332832383CB
:1043200024832583EEECF3E091838083328323831F
:1043300024832583E8ECF3E0918380838FEF8283ED
:10434000838314821582E2ECF3E01382128285E803
:1043500091E09183808380E590E095838483E5EB11
:10436000F3E013821282448355836683778381E668
:1043700091E09183808314860895CF93DF93CDB726
:10438000DEB76F970FB6F894DEBF0FBECDBF78943F
:1043900084B5826084BD84B5816084BD85B582604A
:1043A00085BD85B5816085BD80916E0081608093FB
:1043B0006E00109281008091810082608093810064
:1043C0008091810081608093810080918000816074
:1043D000809380008091B10084608093B1008091CF
:1043E000B00081608093B00080917A0084608093F7
:1043F0007A0080917A00826080937A0080917A00BE
:10440000816080937A0080917A00806880937A003E
:104410001092C1001092A3031092A4031092A5035E
:104420001092A6031092610310926203109263032C
:104430001092640368EB7BE080E090E00E940D1630
:1044400082EC92E09093A2038093A103E091D202C8
:10445000F091D30232E0E32EE082E091CE02F091BF
:10446000CF021082E091D002F091D10280E18083EE
:104470001092DA02E091D602F091D70246E0F42ED3
:10448000F082E091D402F091D50280818061808336
:10449000E091D402F091D502808188608083E09120
:1044A000D402F091D502808180688083E091D402AB
:1044B000F091D50280818F7D80830E9447166093A2
:1044C000610370936203809363039093640362E7D4
:1044D00072E08091A1039091A2030E945C136AE0B4
:1044E00070E080E090E00E940D1681E080937503FB
:1044F00007E911E01A8309838091CA039091CB03E5
:10450000A091CC03B091CD038B839C83AD83BE83FC
:104510001F870E878091D0039091D103A091D20381
:10452000B091D303888B998BAA8BBB8B1D8B0C8B83
:104530008091D6039091D703A091D803B091D9036D
:104540008E8B9F8BA88FB98F1B8F0A8F8091DC0376
:104550009091DD03A091DE03B091DF038C8F9D8FDE
:10456000AE8FBF8F9E012F5F3F4FAE01425F5F4F07
:10457000BE016C5E7F4FCE014A960E94780B82ECA2
:1045800093E00E945611E091D202F091D302E082B2
:10459000E091CE02F091CF021082E091D002F09132
:1045A000D1028FEC80831092DA02E091D602F09172
:1045B000D702F082E091D402F091D502808180612F
:1045C0008083E091D402F091D5028081886080835D
:1045D000E091D402F091D502808180688083E091DF
:1045E000D402F091D50280818F7D808360E087E0E6
:1045F0000E94A11561E087E00E94D11561E085E08D
:104600000E94A11561E085E00E94D11560E088E07C
:104610000E94A11561E088E00E94D11561E086E06A
:104620000E94A11561E086E00E94D11560E089E05A
:104630000E94A11561E089E00E94D11560E083E04D
:104640000E94D11564E872E082EC92E00E945C1353
:104650001A8309831B821C821D821E8280E590E0E2
:104660000E94241A44E050E0BE016D5F7F4F8FE04E
:1046700090E00E949E180E94231A62EC72E0CE0124
:1046800001960E94D41461E872E082EC92E00E94EC
:104690005C1358EE452E53E0552E612C712C61E6CB
:1046A000262E61E0362E0AE010E082EC93E00E94B4
:1046B0002F122CE0E22E24E0F22ED12C1C821B8241
:1046C0004D825E826F8278863A822982DD86F7018A
:1046D000219131917F018091C6039091C7032817E2
:1046E0003907C9F5CE0101960E944E11873111F0AC
:1046F0008C3189F5CE0101960E94A719892B59F1B9
:104700002B813C81CD80DE80EF80F88449855A85FD
:104710006B857C858D85843009F4ADC03093B803FA
:104720002093B703C092B903D092BA03E092BB03BF
:10473000F092BC034093BD035093BE036093BF034C
:104740007093C0038093C10363E872E0CE01449686
:104750000E94471310C0D394F4E0DF12AFCF8BC098
:10476000682FCE0144960E94C90D85EB93E00E940C
:10477000A719892B39F485EB93E00E94C3118111AD
:10478000F4CF0CC085EB93E00E947B108A3041F798
:104790006AE0CE0144960E94C90D13C0BE016C5E52
:1047A0007F4FCE0101960E94EE0E40E0BE016F5F8A
:1047B0007F4F84E090E00E94751ECE0101960E941A
:1047C000BD0E63E872E0CE010E960E94471362E8C8
:1047D00072E0CE0144960E949A02882309F443C0F5
:1047E000CE0144960E94440CFC01808180330CF47D
:1047F0007DC2CE0144960E94440CFC0180818A3324
:104800000CF074C26AE0CE0144960E94800D9C01B7
:1048100040E050E0BE016C5E7F4FCE0101960E94E9
:10482000770ECE0101960E94480A7CC2888D998D30
:10483000892BC1F56AE0CE0144960E94800D019655
:10484000B1F063E872E0CE010E960E944713888DA6
:10485000998D892B79F162E872E08C899D890E949B
:104860004D29892B39F5CE010E960E94BD0ECE0141
:1048700044960E94BD0E82EC92E00E94DC13181652
:1048800019065CF563E872E0CE0144960E94471376
:104890000E94520C97FDCACF682FCE0144960E9409
:1048A000C90DF6CF6AE0CE0144960E94800D0196B4
:1048B00009F63DC2CE0144960E94440CFC01808161
:1048C00080330CF43BC2CE0144960E94440CFC01A0
:1048D00080818A330CF032C247C283E00E9478158F
:1048E000909326048093250420912304309124047E
:1048F00082179307A1F0019761F4809121049091B0
:1049000022040196909322048093210481E00E9466
:10491000A10062E370E080E090E00E940D168091BB
:1049200025049091260490932404809323040E94EC
:1049300047166B017C0180912004882309F44DC047
:104940008091280490912904A0912A04B0912B040D
:10495000A7019601281B390B4A0B5B0BDA01C90131
:10496000883E9340A105B105C0F1C0922804D092C1
:104970002904E0922A04F0922B0464E972E0CE014B
:104980000E960E9447130E94550B4AE0BC01CE01CF
:1049900001960E94C20EBE016F5F7F4FCE010E9640
:1049A0000E94EB0DCE0101960E94BD0EBE01625F1A
:1049B0007F4FCE0101960E94EE0E41E0BE016F5F77
:1049C0007F4F82E090E00E94751ECE0101960E940A
:1049D000BD0ECE010E960E94BD0E8091140188235B
:1049E00081F180911F04882301F180911B04909133
:1049F0001C04A0911D04B0911E04A7019601281B60
:104A0000390B4A0B5B0BDA01C901883E9340A105C3
:104A1000B105B8F0C0921B04D0921C04E0921D04B2
:104A2000F0921E040E9446020CC00E944B18892B73
:104A300041F40E94460268EE73E080E090E00E943C
:104A40000D168091170490911804A0911904B0914B
:104A50001A04B701A601481B590B6A0B7B0B809106
:104A6000120190911301092E000CAA0BBB0B4817E1
:104A700059076A077B0708F436C1C0921704D09221
:104A80001804E0921904F0921A040E9441188D3D16
:104A9000974044F40E944B18B8010E940F27892BBD
:104AA00009F4AAC180911604811114C163E872E06F
:104AB000CE0101960E94471361E087E00E94A11594
:104AC00064EF71E080E090E00E940D16C0900C0150
:104AD000D0900D010D2C000CEE08FF0880900A010B
:104AE00090900B01092C000CAA08BB080E94550BE2
:104AF000092E000CAA0BBB0B9C01AD01281939092A
:104B00004A095B09ACE9BFEF0E94432AA70196015D
:104B1000281939094A095B090E94162ADA01C901D4
:104B20008C599F4FAF4FBF4F7C01181619063CF4AC
:104B3000843691053CF083E6E82EF12C03C0EE2488
:104B4000E394F12C60E087E00E94A115CE0101966C
:104B50000E94BD0EF0921504E092140480911001A1
:104B600090911101E816F9060CF055C060E085E05F
:104B70000E94A11561E088E00E94A11566E072E044
:104B8000CE0101960E94471341E0BE016F5F7F4F47
:104B900085E090E00E94751ECE0101960E94BD0E38
:104BA00080912704811196C067E972E0CE010E96CC
:104BB0000E94471360911404709115044AE0CE01DD
:104BC00001960E94C20EBE016F5F7F4FCE010E960E
:104BD0000E94EB0DCE0101960E94BD0E6AE972E0C3
:104BE000CE010E960E94DC0DBE01625F7F4FCE01AA
:104BF00001960E94EE0E41E0BE016F5F7F4F82E0A2
:104C000090E00E94751ECE0101960E94BD0E81E0CB
:104C1000809327045BC080910E0190910F018E1547
:104C20009F050CF057C061E085E00E94A11560E08F
:104C300088E00E94A11561E072E0CE0101960E9419
:104C4000471341E0BE016F5F7F4F85E090E00E9417
:104C5000751ECE0101960E94BD0E80912704882307
:104C6000C9F16DE972E0CE010E960E944713609182
:104C70001404709115044AE0CE0101960E94C20E00
:104C8000BE016F5F7F4FCE010E960E94EB0DCE01ED
:104C900001960E94BD0E60EA72E0CE010E960E945F
:104CA000DC0DBE01625F7F4FCE0101960E94EE0EC9
:104CB00041E0BE016F5F7F4F82E090E00E94751E71
:104CC000CE0101960E94BD0E10922704CE010E96D1
:104CD0000E94BD0E80E00E94A10064E670E080E0CA
:104CE00090E00E940D160E947C14DFCC6CE672E00E
:104CF000CE010E960E94560EBE016C5E7F4FCE0115
:104D00000E960E94EB0DBE01625F7F4FCE010196B1
:104D10000E94EE0E40E0BE016F5F7F4F83E090E0A7
:104D20000E94751ECE0101960E94BD0E9CCD62E8C8
:104D300072E0CE0144960E94DC0D7CCD6CE672E000
:104D4000CE010E960E94560EBE016C5E7F4FCE01C4
:104D50000E960E94EB0DBE01625F7F4FCE01019661
:104D60000E94EE0E41E0D7CF6AE0CE0144960E9449
:104D7000800D9C0140E050E0BE016C5E7F4FCE0193
:104D800001960E94770ECE0101960E94480ACE013C
:104D900001960E94BD0E6AE0CE0144960E94800DED
:104DA000AC014F5F5F4FBE016C5E7F4FCE0101963D
:104DB0000E948E02BE016F5F7F4FCE0144960E941B
:104DC000F20DCE0101960E94BD0E888D998D892B22
:104DD00039F06AE0CE0144960E94800D019629F0D8
:104DE000CE010E960E94BD0E25CD62E872E0CE0186
:104DF00044960E94DC0DF4CF63E872E0CE01019688
:104E00000E94471341E0BE016F5F7F4F81E090E059
:104E10000E94751ECE0101960E94BD0E43CE97FBE7
:104E2000072E16F4009407D077FD09D00E94292799
:104E300007FC05D03EF4909581959F4F089570959D
:104E400061957F4F0895EE0FFF1F0590F491E02DBF
:104E50000994AA1BBB1B51E107C0AA1FBB1FA617C1
:104E6000B70710F0A61BB70B881F991F5A95A9F713
:104E700080959095BC01CD010895CF93DF9382304A
:104E8000910510F482E090E0E0915404F091550413
:104E900020E030E0C0E0D0E0309711F14081518156
:104EA00048175907C0F04817590761F48281938168
:104EB000209719F09B838A832BC09093550480938D
:104EC000540426C02115310519F04217530718F470
:104ED0009A01BE01DF01EF010280F381E02DDCCFFA
:104EE0002115310509F1281B390B2430310590F4C7
:104EF00012968D919C9113976115710521F0FB011C
:104F00009383828304C09093550480935404FD01DD
:104F1000329644C0FD01E20FF31F8193919322501A
:104F200031092D933C933AC020915204309153049F
:104F3000232B41F42091190130911A01309353042D
:104F40002093520420911701309118012115310549
:104F500041F42DB73EB740911B0150911C01241B19
:104F6000350BE0915204F0915304E217F307A0F4DB
:104F70002E1B3F0B2817390778F0AC014E5F5F4FAF
:104F80002417350748F04E0F5F1F5093530440938A
:104F900052048193919302C0E0E0F0E0CF01DF91F1
:104FA000CF9108950F931F93CF93DF93009709F448
:104FB0008CC0FC013297138212820091540410912C
:104FC00055040115110581F420813181820F931F51
:104FD00020915204309153042817390779F5F09342
:104FE0005304E093520471C0D80140E050E0AE1782
:104FF000BF0750F412962D913C911397AD012115E6
:10500000310509F1D901F3CF9D01DA013383228300
:1050100060817181860F971F8217930769F4EC01F5
:1050200028813981260F371F2E5F3F4F3183208320
:105030008A819B8193838283452B29F4F0935504C5
:10504000E093540442C01396FC93EE931297ED0143
:10505000499159919E01240F351FE217F30771F40E
:1050600080819181840F951F029611969C938E9357
:105070008281938113969C938E931297E0E0F0E0E7
:10508000D80112968D919C911397009719F0F80111
:105090008C01F6CF8D919C9198012E5F3F4F820F2E
:1050A000931F20915204309153042817390769F453
:1050B000309729F4109255041092540402C01382C0
:1050C00012821093530400935204DF91CF911F91E9
:1050D0000F910895A0E0B0E0E0E7F8E20C944C2ACC
:1050E000EC01009721F4CB010E943D27B8C0FC01E0
:1050F000E60FF71F9C0122503109E217F30708F46D
:10510000ACC0D9010D911C91119706171707B0F08B
:105110000530110508F49FC0C8010497861797074A
:1051200008F499C002501109061B170B0193119343
:105130006D937C93CF010E94D2278DC05B01A01A92
:10514000B10A4C01800E911EA0915404B0915504F7
:1051500040E050E0E12CF12C109709F44AC0A8156A
:10516000B905D1F56D907C901197630182E0C80E6E
:10517000D11CCA14DB0480F1A3014A195B096A013E
:1051800082E0C80ED11C1296BC9012971396AC9177
:10519000B5E0CB16D10440F0B282A38351834083A3
:1051A000D9016D937C930AC00E5F1F4FC301800F1E
:1051B000911FF90191838083EB2DFA2FE114F10403
:1051C00031F0D7011396FC93EE93129744C0F093FD
:1051D0005504E09354043FC08D919C91119748175A
:1051E000590708F4AC017D0112960D90BC91A02DD9
:1051F000B3CF809152049091530488159905E1F43E
:1052000046175707C8F4809117019091180100972D
:1052100041F48DB79EB740911B0150911C01841B36
:10522000950BE817F907C8F4F0935304E093520480
:10523000F901718360830FC0CB010E943D277C017F
:10524000009759F0A801BE010E943929CE010E94A1
:10525000D227C70104C0CE0102C080E090E0CDB7E4
:10526000DEB7EEE00C94682A81E090E0F8940C94AC
:105270008E2AFB01DC0102C001900D92415050408A
:10528000D8F70895FC018191861721F08823D9F77A
:10529000992708953197CF010895FB01DC018D9185
:1052A000019080190110D9F3990B0895FB01DC01DD
:1052B00001900D920020E1F70895FB01DC014150BF
:1052C000504048F001900D920020C9F701C01D9296
:1052D00041505040E0F708951F93FC01992788271B
:1052E000BC01E89411911032E9F3193010F01E302E
:1052F000C8F31B3251F01D3249F4689406C00E9475
:10530000B229610F711D811D911D119110531A3029
:10531000B0F33EF490958095709561957F4F8F4FD7
:105320009F4F1F91089591110C94E129803219F03B
:1053300089508550C8F708954532510520F4423010
:1053400010F00C94A729FB011082CB010895BB2714
:105350004A3031F4992322F4BDE2909581959F4F14
:105360000C94C829592F482F372F262F660F771FE7
:10537000881F991F660F771F881F991F620F731F61
:10538000841F951F660F771F881F991F0895BB27DD
:10539000FB015527AA27880F991FAA1FA41710F0F1
:1053A000A41B83955051B9F7A05DAA3308F0A95DFD
:1053B000A193009779F7B111B1931192CB010C949D
:1053C000E429992788270895DC01FC01672F719152
:1053D0007723E1F7329704C07C916D9370836291DB
:1053E000AE17BF07C8F30895A1E21A2EAA1BBB1B74
:1053F000FD010DC0AA1FBB1FEE1FFF1FA217B307A1
:10540000E407F50720F0A21BB30BE40BF50B661FB6
:10541000771F881F991F1A9469F76095709580957A
:1054200090959B01AC01BD01CF010895052E97FB1E
:105430001EF400940E942D2A57FD07D00E94F429E3
:1054400007FC03D04EF40C942D2A509540953095CE
:1054500021953F4F4F4F5F4F0895909580957095E0
:1054600061957F4F8F4F9F4F08950E947F2AA59F80
:10547000900DB49F900DA49F800D911D112408954F
:10548000B7FF0C94352A0E94352A821B930B08958E
:105490002F923F924F925F926F927F928F929F9244
:1054A000AF92BF92CF92DF92EF92FF920F931F9332
:1054B000CF93DF93CDB7DEB7CA1BDB0B0FB6F894E3
:1054C000DEBF0FBECDBF09942A88398848885F8423
:1054D0006E847D848C849B84AA84B984C884DF8094
:1054E000EE80FD800C811B81AA81B981CE0FD11D78
:1054F0000FB6F894DEBF0FBECDBFED010895A29F99
:10550000B001B39FC001A39F700D811D1124911D97
:10551000B29F700D811D1124911D0895F894FFCF45
:1055200001001E00DEADBEEFFEED860112025A0044
:105530003C0088130100C0000056048000010000F8
:10554000000000000013141C13DC13BA13CE135A0E
:1055500014000000001E151E151E151E151E151E1A
:10556000151E151E151E151E151E151E15000000F4
:10557000001E151C131E151E151E151E15000000FD
:10558000008219271AA7197B105410660F9B1AB0B6
:10559000197710E711C3115E0FA419A219530F98C0
:1055A00019000000003D0FAA125611000000001E55
:1055B000151C1300000000D414000000001E15008C
:1055C0000000001E151E151E151E151E151E151E8B
:1055D000151E151E151E151E151E151E151E151E33
:1055E000151E1500000000080F670F1E0F48209BB6
:1055F0001F231F271012100E119F0FC51071202995
:1056000020360F260F220F241F1F1C1F1E1F1E1FB8
:105610001F1E1F1E1F01005E0000002147002148C1
:10562000003000214900310021460040002C0021BB
:105630004C00214D00214E00214F002150002152ED
:10564000002153002154002155002156002157000C
:10565000215800215900215A0021610021620021B6
:105660006300216400216500216600216700216834
:1056700000216900216A00216B00216C00216D006E
:10568000216F00216E002171002170002141002155
:105690004A00564D4450565F317C315F564D445060
:1056A000560D0A00536572766572206164647265F6
:1056B00073733A002172002142002143002144000B
:0A56C0002145002F002000214B00BF
:107E0000112484B714BE81FFF0D085E080938100F7
:107E100082E08093C00088E18093C10086E0809377
:107E2000C20080E18093C4008EE0C9D0259A86E02C
:107E300020E33CEF91E0309385002093840096BBD3
:107E4000B09BFECF1D9AA8958150A9F7CC24DD24C4
:107E500088248394B5E0AB2EA1E19A2EF3E0BF2EE7
:107E6000A2D0813461F49FD0082FAFD0023811F036
:107E7000013811F484E001C083E08DD089C08234E0
:107E800011F484E103C0853419F485E0A6D080C0E4
:107E9000853579F488D0E82EFF2485D0082F10E0AE
:107EA000102F00270E291F29000F111F8ED06801E7
:107EB0006FC0863521F484E090D080E0DECF843638
:107EC00009F040C070D06FD0082F6DD080E0C81688
:107ED00080E7D80618F4F601B7BEE895C0E0D1E017
:107EE00062D089930C17E1F7F0E0CF16F0E7DF06D8
:107EF00018F0F601B7BEE89568D007B600FCFDCFD4
:107F0000A601A0E0B1E02C9130E011968C91119780
:107F100090E0982F8827822B932B1296FA010C0160
:107F200087BEE89511244E5F5F4FF1E0A038BF0790
:107F300051F7F601A7BEE89507B600FCFDCF97BE46
:107F4000E89526C08437B1F42ED02DD0F82E2BD052
:107F50003CD0F601EF2C8F010F5F1F4F84911BD097
:107F6000EA94F801C1F70894C11CD11CFA94CF0C13
:107F7000D11C0EC0853739F428D08EE10CD085E9AC
:107F80000AD08FE07ACF813511F488E018D01DD067
:107F900080E101D065CF982F8091C00085FFFCCF94
:107FA0009093C60008958091C00087FFFCCF809118
:107FB000C00084FD01C0A8958091C6000895E0E648
:107FC000F0E098E1908380830895EDDF803219F02E
:107FD00088E0F5DFFFCF84E1DECF1F93182FE3DFCA
:107FE0001150E9F7F2DF1F91089580E0E8DFEE27F6
:047FF000FF270994CA
:027FFE00040479
:0400000300007E007B
:00000001FF