:100000000C945E030C9486030C9486030C94860374
:100010000C9486030C9486030C9486030C9486033C
:100020000C9486030C9486030C9486030C9486032C
:100030000C9486030C9486030C9486030C9486031C
:100040000C9400100C9486030C94F30E0C94CD0EBB
:100050000C9486030C9486030C9486030C948603FC
:100060000C9486030C9486032E204F76657277726B
:100070006974696E67207769746820646566617564
:100080006C742076616C7565732E2E2E0056657229
:1000900073696F6E20436F6E666C6963742E2045C2
:1000A000787065637465642076657273696F6E201D
:1000B0000052656164696E6720436F6E66696720F0
:1000C00066726F6D20454550524F4D210045746852
:1000D00065726E6574205365727665722061646422
:1000E000726573733A00476174657761793A2000ED
:1000F0004572726F722C2070726F626C656D207722
:1001000069746820476174657761793A2000444ECC
:10011000533A20004572726F722C2070726F626CBD
:10012000656D207769746820444E533A2000495029
:100130003A20004572726F722C2070726F626C658B
:100140006D20776974682049503A200057617465C2
:1001500072206C6576656C20697320686967682E0B
:10016000205475726E696E67206F666620736F6CBF
:10017000656E6F69642E2E2E005761746572206C57
:100180006576656C206973206C6F772E2046696CEC
:100190006C696E67207468652064697370656E733E
:1001A00065722E2E2E00496E76616C696420636F35
:1001B0006D6D616E642E2052656365697665643A83
:1001C0002000496E76616C696420636F6D6D616EAD
:1001D000642E2052656365697665643A2000526535
:1001E0007365742063616E63656C6C65642E2E2E7E
:1001F00000496E76616C69642054494D45207061F8
:1002000072616D657465722873292E2E2E0044610B
:1002100074652F54696D65206973206E6F773A207D
:1002200000446561637469766174696E67207468FF
:100230006520696E6C657420736F6C656E6F6964A0
:100240002E2E2E0041637469766174696E67207486
:10025000686520696E6C657420736F6C656E6F697C
:10026000642E2E2E00446561637469766174696E34
:100270006720746865206F75746C657420736F6C8B
:10028000656E6F69642E2E2E004163746976617409
:10029000696E6720746865206F75746C657420736F
:1002A0006F6C656E6F69642E2E2E00466C757368D8
:1002B00020506572696F642073657420746F20002C
:1002C00057617465722072656164696E677320732B
:1002D000657420746F204F46460057617465722024
:1002E00072656164696E67732073657420746F2032
:1002F0004F4E0057696C6C2073656E642077617493
:100300006572206C6576656C2072656164696E67E4
:1003100073206576657279206D696E7574652E2E11
:100320002E0057696C6C2073656E6420776174656C
:1003300072206C6576656C2072656164696E6773A6
:10034000206576657279207365636F6E642E2E2E3C
:10035000004175746F20666C75736820686F7572E4
:100360002073657420746F3A20004175746F2066A5
:100370006C757368206D696E757465207365742083
:10038000746F3A2000474154455741593A20004480
:100390004E533A200049503A2000506C6561736515
:1003A000206368616E67652074686520636F6E7492
:1003B000726F6C6C657220495020746F206D61748F
:1003C0006368204E4F572E205265636F6E6E6563D3
:1003D00074696F6E2073686F756C64206F636375EA
:1003E0007220696E206120636F75706C65206F6686
:1003F000206D696E757465732E2E2E0041726475C2
:10040000696E6F2069732061626F757420746F204C
:100410006368616E67652074686520696E746572D3
:100420006E616C207365727665722049502061643C
:10043000647265737320616E6420726573657420E5
:10044000696E2038207365636F6E647321004261AA
:100450006420495020616464726573732073656E13
:1004600074212049502C20444E53206F7220474164
:1004700054455741592061646472657373657320F4
:100480004E4F54206368616E676564210041726459
:1004900075696E6F2069732061626F757420726573
:1004A00073657420696E2038207365636F6E6473A2
:1004B00021205265636F6E6E656374696F6E207381
:1004C000686F756C64206F6363757220696E20615C
:1004D00020636F75706C65206F66206D696E757432
:1004E00065732E2E2E00496E76616C696420636FF1
:1004F0006D6D616E642E2052656365697665643A40
:10050000200000000000250028002B000000000053
:10051000230026002900000000080002010000035B
:10052000040700000000000000004175746F2066A1
:100530006C757368206379636C6520737461727481
:1005400065643A20004D616E75616C20666C757350
:1005500068206379636C6520737461727465643AB2
:100560002000466C757368206379636C6520656E46
:100570006465643A2000496E76616C696420444188
:1005800054452F54494D452E2043616E6E6F7420A3
:10059000706572666F726D206175746F20666C7520
:1005A0007368206379636C652E2E2E002020202036
:1005B0004175746F20466C757368204D696E757453
:1005C000653A2000202020204175746F20466C750C
:1005D000736820486F75723A200020202020466CF6
:1005E00075736820506572696F643A20002020207E
:1005F0002053656E64204661737420576174657280
:10060000204C6576656C2052656164696E67733F46
:100610003A20002020202053656E642057617465C5
:1006200072204C6576656C2052656164696E6773F3
:100630003F3A2000202020205365727665722047C3
:100640004154455741593A200020202020536572DB
:1006500076657220444E533A2000202020205365B6
:10066000727665722049503A2000202020204545AE
:1006700050524F4D20436F6E666967205665727306
:10068000696F6E3A200000000000240027002A0055
:100690000102040810204080010204081020010219
:1006A00004081020040404040404040402020202E6
:1006B0000202030303030303EF2EDF2E11241FBEE8
:1006C000CFEFD8E0DEBFCDBF12E0A0E0B1E0EAEEB0
:1006D000F6E602C005900D92A835B107D9F724E0DF
:1006E000A8E5B2E001C01D92AB31B207E1F713E01B
:1006F000CDE5D3E004C02197FE010E94FF2FCC3549
:10070000D107C9F70E94D8270C9468330C940000D5
:10071000CF93DF93EC01FB01248135810E94632498
:10072000CE01DF91CF910895FC0124813581232BE7
:1007300031F421E061157105A1F0FB0108C0FC0155
:10074000808191816115710531F421E0FC01808186
:10075000882339F005C00E94153221E0892B09F069
:1007600020E081E0822708952F923F924F925F927E
:100770006F927F928F929F92AF92BF92CF92DF92B1
:10078000EF92FF920F931F93CF93DF93CDB7DEB716
:10079000C653D1400FB6F894DEBF0FBECDBF8C015B
:1007A0007B018A30910509F456C5CCF48630910559
:1007B00009F408C46CF48130910509F4F1C0853066
:1007C000910509F4A1C3892B11F00C94180C2FC0CA
:1007D0008830910509F4AEC40CF467C402C58E30AC
:1007E000910509F49AC53CF48C30910509F462C571
:1007F0000CF435C58FC58031910511F40C94140C9F
:100800000CF4F6C78236910511F00C94180C6DE3C8
:1008100072E0CE0101960E94462741E0BE016F5F63
:100820007F4F82E690E00E94C61C0C94430C85E04A
:100830000E94250F7C0186E00E94250F8C01EF2885
:1008400019F46DE372E002C064E372E0CE018F5FE1
:100850009E4F0E94462767E172E0CE018F5F9E4F58
:100860000E94AB25012B19F46DE372E002C064E332
:1008700072E0CE018F5F9E4F0E94AB2567E172E070
:10088000CE018F5F9E4F0E94AB25809105018111A3
:1008900003C064E372E002C06DE372E0CE018F5FDB
:1008A0009E4F0E94AB2567E172E0CE018F5F9E4FA5
:1008B0000E94AB2580916A02811103C064E372E05B
:1008C00002C06DE372E0CE018F5F9E4F0E94AB25A8
:1008D00067E172E0CE018F5F9E4F0E94AB25609171
:1008E000020170910301CE018F5F9E4F0E94682527
:1008F00067E172E0CE018F5F9E4F0E94AB25609151
:10090000000170910101CE018F5F9E4F0E9468250A
:1009100067E172E0CE018F5F9E4F0E94AB25609130
:10092000580270915902CE018F5F9E4F0E94682538
:1009300067E172E0CE018F5F9E4F0E94AB2565EEAE
:1009400073E0CE018F5F9E4F0E94E62567E172E063
:10095000CE018F5F9E4F0E94AB256FED73E0CE01FD
:100960008F5F9E4F0E94E62567E172E0CE018F5FA8
:100970009E4F0E94AB2569ED73E0CE018F5F9E4FC5
:100980000E94E625BE016F5F7E4FCE0101960E9458
:100990003D2741E0BE016F5F7F4F80E090E07BC369
:1009A0006FE072E0C7010E949403882309F487C2B4
:1009B000B701CE018F5E9E4F0E943D276FE072E02F
:1009C000CE01875F9E4F0E9446276CE2CE018F5E6C
:1009D0009E4F0E940F258C01019689F5CB5EDE4F5C
:1009E00008811981C551D1400F3F8FEF1807B9F029
:1009F0000115110511F4198212C0CF5EDE4F688116
:100A00007981C151D140A801CE0101960E942532C1
:100A1000E1E0F0E0EC0FFD1FE00FF11F1082CE01CE
:100A200001960E943432603C2FEC720722EE82075E
:100A300020E5920708F41FC20E944A101CC2BE01A2
:100A40006F5E7E4FCE018F5F9E4F0E943D279801C3
:100A500040E050E0BE016F5F7E4FCE0101960E94E4
:100A60006324BE016F5F7F4FCE01875F9E4F0E9460
:100A7000ED25CE0101960E94D626CE01875F9E4FBE
:100A80000E9458241B012C01A8014F5F5F4FBE013B
:100A90006F5F7E4FCE0101960E948803BE016F5F9B
:100AA0007F4FCE018F5F9E4F0E94ED25CE010196B4
:100AB0000E94D6266CE2CE018F5F9E4F0E940F25CA
:100AC0008C010F3F8FEF180709F4E2C6980140E050
:100AD00050E0BE016F5F7E4FCE0101960E946324FD
:100AE000BE016F5F7F4FCE01875F9E4F0E94ED2555
:100AF000CE0101960E94D626CE01875F9E4F0E94AE
:100B00005824D62EA8014F5F5F4FBE016F5F7E4F06
:100B1000CE0101960E948803BE016F5F7F4FCE0118
:100B20008F5F9E4F0E94ED25CE0101960E94D62632
:100B30006CE2CE018F5F9E4F0E940F258C018F3F8C
:100B40002FEF920709F4A4C69C0140E050E0BE01DB
:100B50006F5F7E4FCE0101960E946324BE016F5FDE
:100B60007F4FCE01875F9E4F0E94ED25CE010196FB
:100B70000E94D626CE01875F9E4F0E945824762E73
:100B8000A8014F5F5F4FBE016F5F7E4FCE010196A0
:100B90000E948803BE016F5F7F4FCE018F5F9E4F23
:100BA0000E94ED25CE0101960E94D6266CE2CE0170
:100BB0008F5F9E4F0E940F258C010F3F8FEF18070C
:100BC00009F466C6980140E050E0BE016F5F7E4FB9
:100BD000CE0101960E946324BE016F5F7F4FCE015C
:100BE000875F9E4F0E94ED25CE0101960E94D6267A
:100BF000CE01875F9E4F0E945824CB5CDE4F6883F6
:100C0000C553D140A8014F5F5F4FBE016F5F7E4F5C
:100C1000CE0101960E948803BE016F5F7F4FCE0117
:100C20008F5F9E4F0E94ED25CE0101960E94D62631
:100C30006CE2CE018F5F9E4F0E940F257C018F3F9B
:100C40002FEF920709F424C69C0140E050E0BE015A
:100C50006F5F7E4FCE0101960E946324BE016F5FDD
:100C60007F4FCE01875F9E4F0E94ED25CE010196FA
:100C70000E94D626CE01875F9E4F0E945824CA5CF0
:100C8000DE4F6883C653D140A7014F5F5F4FBE015F
:100C90006F5F7E4FCE0101960E948803BE016F5F99
:100CA0007F4FCE018F5F9E4F0E94ED25CE010196B2
:100CB0000E94D626CE018F5F9E4F0E945824662E3A
:100CC000810184E6281631041CF0025B174002C043
:100CD000025E1F4F00937F02D0927E0270927D02CF
:100CE000CB5CDE4F2881C553D14020937B02CA5C88
:100CF000DE4F8881C653D14080937A026092790298
:100D0000A02FB0E020E833E341EE51E00E940F3322
:100D10004B015C01E2EBF7E09801332704E610E0B9
:100D200080E9E82EFF24F394CF01825B974082177D
:100D30009307D4F4CF0183709927892B99F4CF01BD
:100D4000B8010E94D72F892B31F4CF01B7010E943F
:100D5000D72F892B39F480E8880E81E5981E81E031
:100D6000A81EB11C3196E0CF2E54384FC90164E65D
:100D700070E00E94D72F8C01C90160E971E00E94E8
:100D8000D72F7C01E1E0F0E0CD2CD12C190183E0DC
:100D900028223324EC15FD052CF5E230F10589F409
:100DA0002114310471F40115110519F4E114F10451
:100DB00041F420E8820E2BE3921E26E2A21EB11C13
:100DC0000FC0DF01AD5EBE4FAC91B0E020E831E571
:100DD00041E050E00E940F33860E971EA81EB91EF8
:100DE0003196D8CFCB5CDE4FC880C553D1402C2D77
:100DF00030E0A0E1BEE00E9459336B017C01A72DD9
:100E0000B0E0119720E831E541E050E00E941A334C
:100E1000DC01CB018C0D9D1DAE1DBF1D6C017D0144
:100E2000C60CD11CE11CF11CCA5CDE4F5880C653B5
:100E3000D140252D30E0ACE3B0E00E945933DC0115
:100E4000CB018C0D9D1DAE1DBF1DBC01CD01680DDC
:100E5000791D8A1D9B1D0E944A106CE271E080E0A2
:100E600090E00E94BA0F10E0CE018F5F9E4F0E946B
:100E7000D626112391F061EF71E0CE0101960E9418
:100E8000342741E0BE016F5F7F4F83E090E00E9416
:100E9000C61CCE0101960E94D626CE01875F9E4FCA
:100EA0000E94D626CE018F5E9E4F0E94D6261092BB
:100EB00062021092630210926402109265026EE068
:100EC00072E0CE01875F9E4F0E943427CE018F5F74
:100ED0009E4F0E94F71BBE016F5F7E4FCE01875F62
:100EE0009E4F0E94E62569E172E085EB92E00E9448
:100EF0005B27BE01675F7E4F85EB92E00E94B927BA
:100F0000BE01675F7E4F62C1CE018F5F9E4F0E9420
:100F10003D276FE072E0CE018F5F9E4F0E949403E9
:100F2000882309F4ACC0CE018F5F9E4F0E945824E5
:100F300061307105E9F464E472E0CE0101960E942B
:100F4000342741E0BE016F5F7F4F82E090E00E9456
:100F5000C61CCE0101960E94D62660E085E00E9464
:100F60004E0F61E088E00E944E0F6DE372E01FC0FB
:100F7000672B09F096C061E272E0CE0101960E94F3
:100F8000342741E0BE016F5F7F4F82E090E00E9416
:100F9000C61CCE0101960E94D62661E085E00E9423
:100FA0004E0F60E088E00E944E0F64E372E0CE01D5
:100FB00001960E94462741E0BE016F5F7F4F85E0AA
:100FC00090E069C0CE018F5F9E4F0E943D276FE089
:100FD00072E0CE018F5F9E4F0E949403882309F434
:100FE0004EC0CE018F5F9E4F0E9458246130710524
:100FF000E9F469E872E0CE0101960E94342741E0ED
:10100000BE016F5F7F4F82E090E00E94C61CCE0160
:1010100001960E94D62660E086E00E944E0F61E0B5
:1010200089E00E944E0F6DE372E01EC0672BC9F588
:1010300065E672E0CE0101960E94342741E0BE01D0
:101040006F5F7F4F82E090E00E94C61CCE01019648
:101050000E94D62661E086E00E944E0F60E089E0A3
:101060000E944E0F64E372E0CE0101960E94462773
:1010700041E0BE016F5F7F4F86E090E00CC068EA00
:1010800073E0CE0101960E943D2741E0BE016F5FF3
:101090007F4F84E090E00E94C61CCE0101960E9422
:1010A000D626CE018F5F9E4FF0C3CE01875F9E4F45
:1010B0000E943D276FE072E0CE018F5F9E4F0E943D
:1010C00046276FE072E0CE01875F9E4F0E94940337
:1010D000882309F444C0CE01875F9E4F0E945824A4
:1010E00070930301609302016BEA72E0CE018F5F9F
:1010F0009E4F0E945F266091020170910301CE0114
:101100008F5F9E4F0E946825BE016F5F7E4FCE01AC
:1011100001960E943D2741E0BE016F5F7F4F82E054
:1011200090E00E94C61CCE0101960E94D6260E9425
:10113000341B27C0CE01875F9E4F0E943D276FE082
:1011400072E0CE018F5F9E4F0E9446276FE072E0F3
:10115000CE01875F9E4F0E94940381111BC068EAF5
:1011600073E0CE0101960E943D2741E0BE016F5F12
:101170007F4F84E090E00E94C61CCE0101960E9441
:10118000D626CE018F5F9E4F0E94D626CE01875F66
:101190009E4F7BC3CE01875F9E4F0E94582421E063
:1011A000672B682B692B09F420E02093050122238B
:1011B00019F06AED72E002C060EC72E0CE018F5F60
:1011C0009E4F0E945F26BE016F5F7E4FCE0101964B
:1011D0000E943D2741E0BE016F5F7F4F82E090E0BB
:1011E000CACFCE01875F9E4F0E943D276FE072E01D
:1011F000CE018F5F9E4F0E9446276FE072E0CE01C6
:10120000875F9E4F0E949403882309F4A8CFCE01E4
:10121000875F9E4F0E94582421E0672B682B692B23
:1012200009F420E020936A02222319F062E273E0BD
:1012300002C063EF72E0CE018F5F9E4F0E945F2677
:101240001092660210926702109268021092690270
:101250000E94341BB8CF81E00E94281D1BC3CE0121
:10126000875F9E4F0E943D276FE072E0CE018F5F47
:101270009E4F0E9446276FE072E0CE01875F9E4F2F
:101280000E949403882309F46ACFCE01875F9E4FA2
:101290000E945824709301016093000161E573E09E
:1012A000CE018F5F9E4F0E945F266091000170917A
:1012B00001012AC0CE01875F9E4F0E943D276FE04B
:1012C00072E0CE018F5F9E4F0E9446276FE072E072
:1012D000CE01875F9E4F0E949403882309F43FCF7D
:1012E000CE01875F9E4F0E945824709359026093ED
:1012F00058026AE673E0CE018F5F9E4F0E945F2620
:101300006091580270915902CE018F5F9E4F0E94EA
:1013100068259ECF0E948D1EBDC2CE01815D9E4F6D
:101320000E943D276FE072E0CE01815D9E4F0E94DA
:101330009403882309F446C26CE7CE01815D9E4F79
:101340000E940F25019609F44FC265EE73E0CE01AD
:10135000875D9E4F0E943D276FED73E0CE018D5D4E
:101360009E4F0E943D2769ED73E0CE01835E9E4F44
:101370000E943D27BE01615D7E4FCE0101960E9415
:101380003D2740E050E0BE016F5F7F4FCE018F5F91
:101390009E4F0E94A924BE016F5F7E4F85EE93E0B1
:1013A0000E94ED25CE018F5F9E4F0E94D626CE0172
:1013B00001960E94D626BE01615D7E4FCE01019648
:1013C0000E943D2741E050E0BE016F5F7F4FCE019C
:1013D0008F5F9E4F0E94A924BE016F5F7E4F8FEDED
:1013E00093E00E94ED25CE018F5F9E4F0E94D6268E
:1013F000CE0101960E94D626BE01615D7E4FCE01D0
:1014000001960E943D2742E050E0BE016F5F7F4F92
:10141000CE018F5F9E4F0E94A924BE016F5F7E4F59
:1014200089ED93E00E94ED25CE018F5F9E4F0E94D3
:10143000D626CE0101960E94D6266EE474E0CE0137
:10144000895E9E4F0E94342765EE73E0CE010196BF
:101450000E943D27CE0101960E940B1AC75FDE4F06
:101460002883C950D140C65FDE4F3883CA50D1406F
:10147000C55FDE4F4883CB50D140C45FDE4F5883F9
:10148000CC50D140C35FDE4F6883CD50D140C25FA6
:10149000DE4F7883CE50D140C15FDE4F8883CF507E
:1014A000D140C05FDE4F9883C051D140C75FDE4F4F
:1014B000E880F980C950D140C15FDE4F08811981B1
:1014C000CF50D140CE0101960E94D626E114F104FE
:1014D00009F48AC00115110509F486C08FEFE816DA
:1014E000F10411F00CF080C0C55FDE4F8881998156
:1014F000CB50D1408F3F910511F00CF075C0C35F08
:10150000DE4F88819981CD50D1408F3F910511F0F8
:101510000CF06AC00F3F110511F00CF065C06FEDC3
:1015200073E0CE0101960E943D27CE0101960E94F4
:101530000B1ACF5FDE4F2883C150D140CE5FDE4F04
:101540003883C250D140CD5FDE4F4883C350D14075
:10155000CC5FDE4F5883C450D140CB5FDE4F6883F1
:10156000C550D140CA5FDE4F7883C650D140C95FB5
:10157000DE4F8883C750D140C85FDE4F9883C85084
:10158000D140CF5FDE4FE880F980C150D140C95FC4
:10159000DE4F08811981C750D140CE0101960E94CB
:1015A000D626E114F10401F101151105E9F02FEF40
:1015B000E216F10409F0C4F4CD5FDE4F8881998111
:1015C000C350D1408F3F910509F074F4CB5FDE4FDB
:1015D00088819981C550D1408F3F910509F024F44D
:1015E0000F3F110541F13CF1BE01675D7E4F85EE75
:1015F00093E00E94BF26BE016D5D7E4F8FED93E0AC
:101600000E94BF26BE01635E7E4F89ED93E00E947B
:10161000BF26BE01695E7E4FCE0101960E943D2726
:1016200041E0BE016F5F7F4F84E090E00E94C61CE6
:10163000CE01019660C069ED73E0CE018F5E9E4FD2
:101640000E943D27CE018F5E9E4F0E940B1A298378
:101650003A834B835C836D837E838F839887E98095
:10166000FA800F811885CE018F5E9E4F0E94D6268C
:10167000E114F104C1F001151105A9F08FEFE8168E
:10168000F10409F084F48B819C818F3F910509F06E
:1016900054F48D819E818F3F910509F024F40F3F12
:1016A000110561F15CF1BE01675D7E4F85EE93E04F
:1016B0000E94BF26BE016D5D7E4F8FED93E00E94BC
:1016C000BF26BE01635E7E4F89ED93E00E94BF2678
:1016D000BE01695E7E4FCE018F5E9E4F0E943D2708
:1016E00041E0BE016F5E7E4F84E090E00E94C61C28
:1016F000CE018F5E9E4F0E94D62651C06CEF73E0E4
:10170000CE018F5E9E4F0E94342741E0BE016F5E86
:101710007E4F83E090E00E94C61CCE018F5E9E4FFC
:101720000E94D6266AE973E0CE018F5E9E4F0E942A
:10173000342741E0BE016F5E7E4F83E090E00E945F
:10174000C61CCE018F5E9E4F0E94D62685E993E08F
:101750000E94212265EE73E085EB92E00E94B9279A
:101760008FE893E00E9421226FED73E085EB92E019
:101770000E94B92785E893E00E94212269ED73E079
:1017800085EB92E00E94B9270E94341B81E0809390
:101790006C0288E090E09093070180930601CE01EF
:1017A000895E9E4F0E94D626CE01835E9E4F0E9488
:1017B000D626CE018D5D9E4F0E94D626CE01875D36
:1017C0009E4F10C068EA73E0CE0101960E943D274B
:1017D00041E0BE016F5F7F4F84E090E00E94C61C35
:1017E000CE0101960E94D626CE01815D9E4F4DC04E
:1017F0006DE874E0CE0101960E94342741E0BE01FD
:101800006F5F7F4F83E090E00E94C61CCE0101967F
:101810000E94D62681E080936C0288E090E090934D
:1018200007018093060136C081E080936B0232C0CD
:1018300066EE74E0CE0101960E943427B801CE0115
:1018400001960E94682565E272E0CE0101960E9431
:10185000AB25B701CE0101960E94E625BE016F5F60
:101860007F4FCE018F5F9E4F0E943D2741E0BE011A
:101870006F5F7E4F84E090E00E94C61CCE018F5FB8
:101880009E4F0E94D626CE0101960E94D62602C007
:1018900011E0EACACA5CDE4F0FB6F894DEBF0FBE95
:1018A000CDBFDF91CF911F910F91FF90EF90DF900F
:1018B000CF90BF90AF909F908F907F906F905F90F0
:1018C0004F903F902F9008958F929F92AF92BF922A
:1018D000CF92DF92EF92FF920F931F93CF93DF93FC
:1018E000CDB7DEB72C970FB6F894DEBF0FBECDBFD5
:1018F0006C016FE072E0CE0101960E9446276AE318
:10190000C6010E940F258C010F3F8FEF180709F4C5
:1019100067C0980140E050E0B601CE0107960E94F2
:101920006324CE0107960E9458247B01CE010796BE
:101930000E94D626A8014F5F5F4FB601CE010796E1
:101940000E948803BE01695F7F4FCE0101960E940D
:10195000ED25CE0107960E94D626C980DA80C114F3
:10196000D10409F441C00D811E8101151105E1F179
:1019700046015401EFEF8E1A9E0AF5018081082E70
:10198000000C990B0E945B32892B99F701501109C9
:101990000C0D1D1DF8018081082E000C990B0E9472
:1019A0005B32892B79F4A8014F5F5F4F4A195B09BD
:1019B0005E834D83CA14DB0458F4B501C6010E944E
:1019C000013206C00A151B0570F301501109E2CF60
:1019D000E981FA818D819E81E80FF91F108204C090
:1019E000C6010E9458247B01BE016F5F7F4FCE016C
:1019F00007960E943D27BE01695F7F4FC7010E9485
:101A0000B403CE0107960E94D626CE0101960E940D
:101A1000D6262C960FB6F894DEBF0FBECDBFDF9151
:101A2000CF911F910F91FF90EF90DF90CF90BF90DB
:101A3000AF909F908F900895FC01918D828D9817A3
:101A400061F0828DDF01A80FB11D5D968C91928DA2
:101A50009F5F9F73928F90E008958FEF9FEF08959F
:101A6000FC01918D828D981731F0828DE80FF11D68
:101A7000858D90E008958FEF9FEF0895FC01918D83
:101A8000228D892F90E0805C9F4F821B91098F737C
:101A90009927089585EB92E00E943E0D21E0892B65
:101AA00009F420E0822F0895FC01848DDF01A80F46
:101AB000B11DA35ABF4F2C91848D90E001968F7376
:101AC0009927848FA689B7892C93A089B1898C9195
:101AD00080648C93938D848D981306C00288F3895B
:101AE000E02D80818F7D80830895EF92FF920F9388
:101AF0001F93CF93DF93EC0181E0888F9B8D8C8DBA
:101B0000981305C0E889F989808185FD24C0F62EE7
:101B10000B8D10E00F5F1F4F0F731127E02E8C8D80
:101B2000E8120CC00FB607FCFACFE889F98980816A
:101B300085FFF5CFCE010E94540DF1CF8B8DFE01B4
:101B4000E80FF11DE35AFF4FF0820B8FEA89FB8902
:101B50008081806207C0EE89FF896083E889F98906
:101B600080818064808381E090E0DF91CF911F913C
:101B70000F91FF90EF900895CF93DF93EC01888D44
:101B80008823C9F0EA89FB89808185FD05C0A88981
:101B9000B9898C9186FD0FC00FB607FCF5CF808107
:101BA00085FFF2CFA889B9898C9185FFEDCFCE0151
:101BB0000E94540DE7CFDF91CF91089580E090E02F
:101BC000892B29F00E944A0D81110C940000089580
:101BD000833081F028F4813099F08230A1F00895AB
:101BE0008730A9F08830B9F08430D1F4809180003A
:101BF0008F7D03C0809180008F778093800008954F
:101C000084B58F7702C084B58F7D84BD089580919F
:101C1000B0008F7703C08091B0008F7D8093B000BB
:101C200008953FB7F89480919B0290919C02A091F7
:101C30009D02B0919E0226B5A89B05C02F3F19F0CA
:101C40000196A11DB11D3FBFBA2FA92F982F88273C
:101C5000820F911DA11DB11DBC01CD0142E0660F97
:101C6000771F881F991F4A95D1F708958F929F92E9
:101C7000AF92BF92CF92DF92EF92FF920F931F939A
:101C8000CF93DF937C01EB016C0182E0C80ED11C85
:101C90004701E5E08E0E911C00E010E0F601419155
:101CA0006F0150E060E070E02AE0CE010E947027F2
:101CB0005C01E881F9810190F081E02D6EE2CE01B6
:101CC00009958A0D9B1D080F191FC814D90431F7F7
:101CD000F701458150E060E070E02AE0CE010E940B
:101CE0007027800F911FDF91CF911F910F91FF906F
:101CF000EF90DF90CF90BF90AF909F908F9008951E
:101D00000E94FC311F93CF93DF93182F66E270E09F
:101D10000E94A120C82FD0E067E270E0812F0E94CE
:101D2000A120DC2FCC279E01282BC901DF91CF9168
:101D30001F910895DC0190E020E030E08AE0FB0193
:101D40004191BF01442309F150ED540F5A3088F4FA
:101D5000829FF001839FF00D11249F0120533109D0
:101D6000240F311D47FD3A952F3F310541F338F3DC
:101D700012C04E3281F4933071F0FD01E90FF11D74
:101D800022839F5F20E030E0DACF933021F4159674
:101D90002C9381E0089580E008951F920F920FB672
:101DA0000F9211242F933F934F935F936F937F93E1
:101DB0008F939F93AF93BF93EF93FF9385EB92E045
:101DC0000E94540DFF91EF91BF91AF919F918F9120
:101DD0007F916F915F914F913F912F910F900FBE27
:101DE0000F901F9018951F920F920FB60F9211240B
:101DF0002F938F939F93EF93FF93E091C502F09100
:101E0000C6028081E091CB02F091CC0282FD12C02B
:101E100090818091CE028F5F8F732091CF028217C5
:101E200051F0E091CE02F0E0EB54FD4F958F80939E
:101E3000CE0201C08081FF91EF919F918F912F91F0
:101E40000F900FBE0F901F901895CF93DF93282F00
:101E500030E0F901EA5EFA4F8491F901E057F94F59
:101E6000D491F901EC55F94FC491CC2391F0811133
:101E70000E94E80DEC2FF0E0EE0FFF1FE45FFA4F39
:101E8000A591B491EC91ED2381E090E021F480E004
:101E900002C080E090E0DF91CF9108951F93CF932F
:101EA000DF93282F30E0F901EA5EFA4F8491F901BF
:101EB000E057F94FD491F901EC55F94FC491CC2377
:101EC000C9F0162F81110E94E80DEC2FF0E0EE0F03
:101ED000FF1FEE5FFA4FA591B4918FB7F8941111DF
:101EE00005C09C91ED2FE095E92302C0EC91ED2B0C
:101EF000EC938FBFDF91CF911F910895CF93DF9324
:101F000090E0FC01E057F94F2491FC01EC55F94FAA
:101F10008491882361F190E0880F991FFC01EA57B2
:101F2000F94FC591D491FC01EE5FFA4FA591B491A0
:101F3000611109C09FB7F894888120958223888316
:101F4000EC912E230BC0623061F49FB7F894388176
:101F5000822F809583238883EC912E2B2C939FBF17
:101F600006C08FB7F894E8812E2B28838FBFDF91AE
:101F7000CF9108958F929F92AF92BF92CF92DF92AE
:101F8000EF92FF926B017C010E94110E4B015C01EC
:101F9000C114D104E104F104F1F00E94110EDC013E
:101FA000CB0188199909AA09BB09883E9340A1056C
:101FB000B10570F321E0C21AD108E108F10888EEFA
:101FC000880E83E0981EA11CB11CC114D104E10449
:101FD000F10419F7DDCFFF90EF90DF90CF90BF9025
:101FE000AF909F908F9008952FB7F89460919702CB
:101FF000709198028091990290919A022FBF089552
:102000001F920F920FB60F9211242F933F938F932D
:102010009F93AF93BF938091970290919802A09164
:102020009902B0919A023091960223E0230F2D3746
:1020300020F40196A11DB11D05C026E8230F0296CC
:10204000A11DB11D20939602809397029093980250
:10205000A0939902B0939A0280919B0290919C0266
:10206000A0919D02B0919E020196A11DB11D809389
:102070009B0290939C02A0939D02B0939E02BF91FD
:10208000AF919F918F913F912F910F900FBE0F9025
:102090001F9018956093920270939302809394021C
:1020A00090939502DC01CB01845D9E4FAF4FBF4FF3
:1020B00080938E0290938F02A0939002B09391022E
:1020C00082E090E090938D0280938C020E94F40F46
:1020D000609388027093890280938A0290938B02A6
:1020E0000895CF92DF92EF92FF920F931F930E9479
:1020F000F40FC0908802D0908902E0908A02F0909C
:102100008B028B019C010C191D092E093F0980913E
:10211000920290919302A0919402B0919502083E90
:10212000134021053105D0F00196A11DB11D80930A
:10213000920290939302A0939402B0939502B701F8
:10214000A60148515C4F6F4F7F4F409388025093D8
:10215000890260938A0270938B02C9CF40918E02EC
:1021600050918F02609190027091910284179507AF
:10217000A607B70788F1E0918602F09187023097B1
:1021800059F10995611571058105910519F00E94B4
:102190004A1022C08091920290919302A0919402E1
:1021A000B0919502845D9E4FAF4FBF4F80938E02DA
:1021B00090938F02A0939002B093910281E090E0FF
:1021C00020918C0230918D02232B11F480E090E05D
:1021D00090938D0280938C02609192027091930291
:1021E00080919402909195021F910F91FF90EF9032
:1021F000DF90CF9008954F925F926F927F928F926F
:102200009F92AF92BF92CF92DF92EF92FF920F9385
:102210001F93CF93DF934B015C01809182029091D9
:102220008302A0918402B091850288169906AA06BD
:10223000BB0609F4C2C08CE3C82ED12CE12CF12CD2
:10224000C501B401A70196010E94ED3260937902A5
:10225000CA01B901A70196010E94ED3260937A028A
:10226000CA01B90128E130E040E050E00E94ED32BF
:1022700069017A0160937B02CA01B9016C5F7F4FEB
:102280008F4F9F4F27E030E040E050E00E94ED325A
:102290006F5F60937C02412C512C320140E004E6D8
:1022A00010E0C0E9D1E0242F30E02E54384FF9017E
:1022B000E370FF27309789F4C901B8010E94D72F36
:1022C000892B31F4C901BE010E94D72F892B29F433
:1022D0008EE691E0A0E0B0E004C08DE691E0A0E0E1
:1022E000B0E0480E591E6A1E7B1ED301C201AA2708
:1022F000BB27C816D906EA06FB0610F04F5FD3CFFE
:1023000040937F02309799F4C90164E670E00E941F
:10231000D72F892B39F4C90160E971E00E94D72FCA
:10232000892B29F48EE691E0A0E0B0E004C08DE6B0
:1023300091E0A0E0B0E0481A590A6A0A7B0AC41882
:10234000D508E608F708C90164E670E00E94D72FB7
:10235000EC01C90160E971E00E94D72FA4E1B1E06E
:1023600020E0213039F4309749F4209729F4009780
:1023700029F402C04C9103C04DE101C04CE150E092
:1023800060E070E0C416D506E606F70640F0C41A11
:10239000D50AE60AF70A2F5F11962C3011F72F5F46
:1023A00020937E02C394C0927D028092820290921A
:1023B0008302A0928402B0928502DF91CF911F9197
:1023C0000F91FF90EF90DF90CF90BF90AF909F90D4
:1023D0008F907F906F905F904F9008950E94711042
:1023E0000E94FB1080917F0290E08E54984F0895D8
:1023F0000E9471100E94FB108091790290E0089574
:102400000E9471100E94FB1080917A0290E0089562
:102410000E9471100E94FB1080917B0290E0089551
:102420002A9A08952A9808951F93CF93DF93182F1F
:1024300060E270E00E94A120C82FD0E061E270E06D
:10244000812F0E94A120DC2FCC279E01282BC901BF
:10245000DF91CF911F9108958EBD00000DB407FE4E
:10246000FDCF8EB50895CF92DF92EF92FF920F933A
:102470001F93CF93DF93EC017A018B016C01C40EA3
:10248000D51ECC15DD05A9F00E9412128FE00E9426
:102490002C128D2F0E942C128C2F0E942C12219610
:1024A00080E00E942C12F80181938F010E9410128B
:1024B000E8CFC701DF91CF911F910F91FF90EF906F
:1024C000DF90CF900895CF92DF92EF92FF920F931B
:1024D0001F93CF93DF93EC017A018B016C01C40E43
:1024E000D51ECC15DD05A1F00E94121280EF0E94CE
:1024F0002C128D2F0E942C128C2F0E942C122196B0
:10250000F80181918F010E942C120E941012E9CFD4
:10251000C701DF91CF911F910F91FF90EF90DF9056
:10252000CF9008951F93CF93DF9300D0CDB7DEB740
:10253000182F6A8399830E94121280EF0E942C1236
:102540009981892F0E942C12812F0E942C126A815E
:10255000862F0E942C120E94101281E00F900F9083
:10256000DF91CF911F910895FF920F931F93CF9307
:10257000DF9300D0CDB7DEB7F82E8A012A836983B6
:102580000E94782080E590E00E94C5142A8169812C
:10259000462F422B60E070E08F2D0E946E200115C7
:1025A000110551F400918002109181020F5F1F4FBD
:1025B0001093810200938002412F64E070E08F2D20
:1025C0000E946E20402F65E070E08F2D0E946E20EB
:1025D00061E070E08F2D0E9425230E94C41481E0E9
:1025E0000F900F90DF91CF911F910F91FF90089561
:1025F0001F93CF93DF9300D0CDB7DEB7182F80E5C0
:1026000090E069837A830E94C51421E041E050E0A4
:1026100069817A81812F0E94F0230E94C41481E095
:1026200090E00F900F90DF91CF911F910895FF924E
:102630000F931F93CF93DF93F82E80E590E00E94D5
:10264000C514C0E0D0E08F2D0E94820E8C01892B32
:1026500021F08F2D0E94820EEC01C017D10799F74F
:102660000E94C414CE01DF91CF911F910F91FF9072
:102670000895AF92BF92CF92DF92EF92FF921F9395
:10268000CF93DF93182F5B017A0180E590E00E94E1
:10269000C514C0E0D0E0812F0E94820E6C01892B0E
:1026A00021F0812F0E94820EEC01CC15DD0599F7F7
:1026B000209799F463E070E0812F0E94A12084317B
:1026C000F1F08823E1F0C1E0D0E08C3111F4C0E0FA
:1026D000D0E0D195C195D10912C0EC16FD060CF4DD
:1026E000E7011C161D065CF420E0AE01B501812F48
:1026F0000E94F02360E470E0812F0E9425230E9455
:10270000C414CE01DF91CF911F91FF90EF90DF9025
:10271000CF90BF90AF900895CF93DF931F92CDB726
:10272000DEB76983DC01ED91FC910280F381E02D3D
:1027300041E050E0BE016F5F7F4F09950F90DF9140
:10274000CF910895FC019485FB018485981303C003
:1027500081E0943009F480E0089521E0FC01848553
:10276000843009F420E0822F08950895CF93DF93F9
:102770001F92CDB7DEB76983DC01ED91FC91028039
:10278000F381E02D41E050E0BE016F5F7F4F09957E
:102790000F90DF91CF910895DC01ED91FC91048CB5
:1027A000F58DE02D099591E089270895862F0895EC
:1027B00081E0862708950F931F93CF93DF931F9295
:1027C000CDB7DEB78C01DC01ED91FC910480F58181
:1027D000E02D0995892B51F0BE016F5F7F4FF80105
:1027E00084850E94F812898190E002C08FEF9FEFEC
:1027F0000F90DF91CF911F910F910895FC01848577
:102800000C943913CF93DF931F92CDB7DEB741E01D
:1028100050E0BE016F5F7F4FFC0184850E94391339
:10282000181619061CF4898190E002C08FEF9FEF03
:102830000F90DF91CF910895FC018485843011F0D1
:102840000C94171380E090E00895CF92DF92EF92FE
:10285000FF920F931F93CF93DF93CDB7DEB7AF9760
:102860000FB6F894DEBF0FBECDBF7C016A0106EF44
:1028700011E01A8309831C861B8688EE93E0A0E092
:10288000B0E08D879E87AF87B88B8EE491E09A8702
:102890008987188F0F8B198E1A8E1B8E1C8E84E0E1
:1028A00089A31DA30CA31EA21FA218A619A680917E
:1028B0009C0390919D03A0919E03B0919F038CA7D0
:1028C0009DA7AEA7BFA78B839C83AD83BE831886CD
:1028D0001F82AE014C5D5F4FCE0101960E949017A2
:1028E00081309105B1F4D701ED91FC910484F58517
:1028F000E02D1BA70AA78EA19FA1A8A5B9A58CA70B
:102900009DA7AEA7BFA7A601BE01665D7F4FC70109
:102910000995AF960FB6F894DEBF0FBECDBFDF911D
:10292000CF911F910F91FF90EF90DF90CF9008957E
:10293000FC018485843011F00C94C72080E0089558
:10294000CF93DF93FC0124852430D1F0EC010E9469
:102950009814843181F0882371F0883161F08C31D2
:1029600061F4E881F9810480F581E02DCE010995BB
:1029700021E0892B19F420E001C021E0822F01C061
:1029800080E0DF91CF91089508958CBD9DBD08959D
:102990008F929F92AF92BF92CF92DF92EF92FF926F
:1029A0000F931F93CF93DF93CDB7DEB72D970FB65D
:1029B000F894DEBF0FBECDBF7C0100E010E038EE22
:1029C000832E33E0932EA12CB12C46EBC42E41E094
:1029D000D42E1C821B828D829E82AF82B886DA82C0
:1029E000C9820D87CE0101960E949814811123C0DF
:1029F000F7014481558120E061E0802F0E94B412EC
:102A000080E590E00E94C51463E070E0802F0E9492
:102A1000A120833129F462E070E0802F0E942523F9
:102A2000F70184819581000F111FF801E65AFD4FCF
:102A30009183808305C00F5F1F4F0430110549F655
:102A40002D960FB6F894DEBF0FBECDBFDF91CF91AC
:102A50001F910F91FF90EF90DF90CF90BF90AF90BC
:102A60009F908F900895CF92DF92EF92FF921F93E5
:102A7000CF93DF93FC011485143099F1EC0180E5CC
:102A800090E00E94C51468E070E0812F0E94252329
:102A90000E94F40F6B017C01CE010E9498148823E0
:102AA000B1F061E070E080E090E00E94BA0F0E9417
:102AB000F40FDC01CB018C199D09AE09BF09883EDA
:102AC0009340A105B10540F38C850E947820EC85E8
:102AD000F0E0EE0FFF1FE65AFD4F1182108284E0F6
:102AE0008C87DF91CF911F91FF90EF90DF90CF9077
:102AF00008954F925F926F927F928F929F92AF92C2
:102B0000BF92CF92DF92EF92FF921F93CF93DF930A
:102B1000CDB7DEB72D970FB6F894DEBF0FBECDBF91
:102B20007C019AE5A92E92E0B92E10E0C12CD12C9F
:102B300028EE422E23E0522E612C712C36EB832E90
:102B400031E0932E1C821B824D825E826F827886DA
:102B50009A8289821D87D5012D913D915D01F701F2
:102B60008481958128173907B1F4CE0101960E941E
:102B70009814843169F0CE0101960E9498148C312A
:102B800051F4CE0101960E941C14892B91F003C0D0
:102B9000CC24C394D12C1F5F1430A1F6CD2871F43E
:102BA000D701ED91FC910480F581E02DC7010995D5
:102BB00005C0CE0101960E943315EDCF2D960FB6BC
:102BC000F894DEBF0FBECDBFDF91CF911F91FF9074
:102BD000EF90DF90CF90BF90AF909F908F907F90BD
:102BE0006F905F904F9008958F929F92AF92BF9297
:102BF000CF92DF92EF92FF920F931F93CF936C01CE
:102C00005B017A01FC01C485C43041F481E090E0AD
:102C1000F6019383828380E090E04EC08A014130C8
:102C2000584010F000E018E080E590E00E94C514E4
:102C30008C2F0E94D4234C0163E070E08C2F0E9403
:102C4000A120873111F08C3121F48016910660F3B8
:102C500002C000E010E080E590E00E94C5149801F9
:102C6000A50160E070E08C2F0E946F2360E270E0AD
:102C70008C2F0E94252362E070E08C2F0E94A120FF
:102C800084FD10C063E070E08C2F0E94A1208111B0
:102C900004C08C2F0E947820B9CF80E590E00E947C
:102CA000C514E9CF40E162E070E08C2F0E946E20F5
:102CB000012B09F4ABCFC701CF911F910F91FF906A
:102CC000EF90DF90CF90BF90AF909F908F9008953E
:102CD0002F923F924F925F926F927F928F929F922C
:102CE000AF92BF92CF92DF92EF92FF920F931F931A
:102CF000CF93DF93CDB7DEB72E970FB6F894DEBF34
:102D00000FBECDBF7C016B015A010E9479150AE507
:102D100012E020E0612C712C88EE282E83E0382E02
:102D2000412C512C96EB892E91E0992E1C821B820E
:102D30002D823E824F8258869A8289822D87F801A1
:102D4000419151918F01F70184819581481759076D
:102D500041F4CE0101962E870E9498142E8587316A
:102D6000E9F02F5F243011F7C3012E960FB6F894C7
:102D7000DEBF0FBECDBFDF91CF911F910F91FF90AE
:102D8000EF90DF90CF90BF90AF909F908F907F900B
:102D90006F905F904F903F902F900895A501B601DE
:102DA000CE0101962E870E94F415680E791E2E859D
:102DB000D8CFCF92DF92FF920F931F93CF93DF93E1
:102DC000FC012485243009F077C06A01EB018C01F5
:102DD000F12C8F2D0E94C720811103C0F801F486C9
:102DE00007C08B7F8831D1F3F394F4E0FF12F1CF69
:102DF000F8018485843009F45FC020910801309186
:102E000009012F5F3F4F11F420E030EC30930901AE
:102E100020930801409108015091090120E061E0F0
:102E20000E94B412F801F4848A818F3F51F48B819F
:102E30008F3F91F48C818F3F79F48D818F3F61F4C6
:102E400038C0811109C08B81811106C08C8181112C
:102E500003C08D81882369F1C114D10451F180E54B
:102E600090E00E94C514BE016E5F7F4F8F2D90E0F1
:102E7000982F882744E050E0845F9B4F0E946312A4
:102E8000B6018F2D0E94452164E070E08F2D0E94D5
:102E90002523C8010E949814873189F061E070E011
:102EA00080E090E00E94BA0FC8010E94981481113E
:102EB000F0CF84E0F801848780E090E002C081E0F8
:102EC00090E0DF91CF911F910F91FF90DF90CF9015
:102ED00008950F931F93CF93DF938C01C0E0D0E050
:102EE000F80141918F0150E060E070E02AE085EB4D
:102EF00092E00E947027C330D10539F067E172E09B
:102F000085EB92E00E945B2702C00E940D22219671
:102F1000C430D10529F7DF91CF911F910F9108950A
:102F20002F923F924F925F926F927F928F929F92D9
:102F3000AF92BF92CF92DF92EF92FF920F931F93C7
:102F4000CF93DF93CDB7DEB765970FB6F894DEBFAA
:102F50000FBECDBF7C016B013A01FB0120E080E098
:102F600090E06AE03191332309F140ED430F4A309C
:102F700080F4689FA001699F500D1124CA01C09779
:102F8000830F911D37FD9A958F3F910559F350F3AB
:102F900013C03E3289F4233079F0D301A20FB11D62
:102FA00012968C932F5F80E090E0DCCF233021F4E9
:102FB000F301858381E021C0F7014281538164815F
:102FC00075818091A4039091A503A091A603B0916F
:102FD000A703481759076A077B0709F49EC10E9497
:102FE000F40F8701085F1F4F6F7077277C5FC80160
:102FF0000E94E020813019F080E090E0F3C186EF7C
:1030000091E09A838983F70182819381A481B581BC
:103010008B839C83AD83BE8345E350E0BE016F5F2D
:103020007F4FC8010E94CD21892B19F4C12CD12CCE
:103030006FC10E94F40FF7017783668376276727B5
:1030400076277A83698342E050E0BE016F5F7F4F4D
:10305000C8010E94C31F81E090E09E878D8742E0F7
:1030600050E0BE01635F7F4FC8010E94C31F80E034
:1030700091E09E878D8742E050E0BE01635F7F4F05
:10308000C8010E94C31F1E861D8642E050E0BE019B
:10309000635F7F4FC8010E94C31F42E050E0BE0142
:1030A000635F7F4FC8010E94C31F42E050E0BE0132
:1030B000635F7F4FC8010E94C31F5601F5018081E5
:1030C000882311F1F6015F018191811115C045013D
:1030D0008C189D081814190494F48F8641E050E070
:1030E000BE01615F7F4FC8010E94C31FA401B601EA
:1030F000C8010E94C31F03C08E3229F7E8CF6501C3
:10310000FFEFCF1ADF0ADACF1F8641E050E0BE01A1
:10311000615F7F4FC8010E94C31FC12CDD24D3947F
:10312000DE86CD8642E050E0BE01635F7F4FC8017E
:103130000E94C31FDE86CD8642E050E0BE01635F81
:103140007F4FC8010E94C31FC8010E940D21892B17
:1031500009F46CCF63E0A62EB12CF2E06F0E711C67
:103160000E94F40F1B012C01C8010E946A1F18164F
:103170001906A4F00E94F40FDC01CB018219930917
:10318000A409B50989389341A105B105D0F462E3DA
:1031900070E080E090E00E94BA0FE6CFF701428134
:1031A000538164817581808D918DA28DB38D481777
:1031B00059076A077B0741F4848D958DC59721F4E3
:1031C00006C02FEF3FEF9AC02EEF3FEF97C0F701F9
:1031D00081A192A10C970CF4A6C04CE050E0BE0176
:1031E0006F5F7F4FC8010E94221F8B8190E0982F54
:1031F00088272C81822B9A8B898B298130E0322F72
:1032000022274A81242BF701468157814217530711
:1032100009F086C097FF84C08F709270892B09F0E7
:10322000DEC0CF80D12CDC2CCC248885C82AC114E8
:10323000D10409F4D1C0812C912C8D8190E0982F7C
:1032400088272E81822B8816990608F46FC0812C5E
:10325000912C41E050E0BE016D5E7F4FC8010E949D
:10326000221F8B89982F907C09F093C0811186C012
:103270008B898111EECF42E050E0BE01615F7F4F4C
:10328000C8010E94221F42E050E0BE01635F7F4FF1
:10329000C8010E94221FC8010E94411FC8010E944C
:1032A000411FC8010E94411FC8010E94411F42E006
:1032B00050E0BE016F5E7F4FC8010E94221F8F85C4
:1032C00098898115914009F069C02D853E85322786
:1032D000232732272130310509F060C089899A8976
:1032E0008115944009F075C044E050E0B301C80175
:1032F0002C8B3D8B0E94221F2C893D896901F1E0B6
:10330000AF1AB10829F02FEFC216D20609F428CF60
:10331000C8010E948C20C60165C08EEF9FEF62C07D
:103320002CEF3FEFEBCF2DEF3FEFE8CF41E050E048
:10333000BE01635F7F4FC8010E94221F8D858111EE
:1033400013C08D858111F2CFC8010E94411FC801B1
:103350000E94411FC8010E94411FC8010E94411FD5
:10336000FFEF8F1A9F0A69CF8D859FEF980F9D877A
:10337000882339F3C8010E94411FF6CF8B899FEF44
:10338000980F9B8B882309F473CFC8010E94411FBB
:10339000F5CFC8010E94411F1B8A6ACF412C512CD6
:1033A00089899A899827892798274816590638F4D1
:1033B000C8010E94411F8FEF481A580AF1CFEFEF62
:1033C0008E1A9E0A8C149D0409F043CF26EF3FEF1E
:1033D00095CF27EF3FEF92CF2AEF3FEF8FCF2BEF25
:1033E0003FEF8CCF65960FB6F894DEBF0FBECDBF12
:1033F000DF91CF911F910F91FF90EF90DF90CF90D1
:10340000BF90AF909F908F907F906F905F904F9004
:103410003F902F9008959F92AF92BF92CF92DF92EC
:10342000EF92FF920F931F93CF93DF93CDB7DEB749
:1034300060970FB6F894DEBF0FBECDBF6C01CE0112
:1034400001967C0188E0F70111928A95E9F700E086
:1034500010E0A12CB12C9AE0992EF601848195817F
:103460000817190760F5B801C6010E942825FC015C
:103470002081203209F12A30F9F02D30E9F0822F35
:103480008D7F8C3221F4FFEFAF1ABF0A15C0F50112
:10349000EE0FFF1FEE0DFF1D40815181949EC00174
:1034A000959E900D1124022E000C330B20533109F0
:1034B000280F391F318320830F5F1F4FCECF88E045
:1034C000F701DE01199601900D928A95E1F72985A1
:1034D0003A854B855C856D857E858F85988960965C
:1034E0000FB6F894DEBF0FBECDBFDF91CF911F9115
:1034F0000F91FF90EF90DF90CF90BF90AF909F9093
:1035000008950F931F93CF93DF9300D000D000D086
:10351000CDB7DEB78AE696E00E9421224AE08E010E
:10352000035F1F4FF80161918F01CE0101960E9448
:103530000727BE016F5F7F4F85EB92E00E94B9279E
:10354000CE0101960E94D6268AE596E00E942122AD
:10355000C8010E94691789E496E00E942122CE01E9
:1035600042960E94691784E396E00E942122CE01D0
:1035700046960E94691783E196E00E9421226A8D97
:1035800070E04AE0CE0101960E94DB26BE016F5F2B
:103590007F4F85EB92E00E94B927CE0101960E94F1
:1035A000D6268DEE95E00E9421226B8D70E04AE0D8
:1035B000CE0101960E94DB26BE016F5F7F4F85EB37
:1035C00092E00E94B927CE0101960E94D6268AED8C
:1035D00095E00E9421226C8D7D8D4AE0CE010196FE
:1035E0000E94DB26BE016F5F7F4F85EB92E00E9459
:1035F000B927CE0101960E94D62684EC95E00E9460
:1036000021226E8D7F8D4AE0CE0101960E94DB263D
:10361000BE016F5F7F4F85EB92E00E94B927CE011C
:1036200001960E94D6268CEA95E00E94212268A18C
:1036300079A14AE0CE0101960E94DB26BE016F5FB0
:103640007F4F85EB92E00E94B927CE0101960E9440
:10365000D62626960FB6F894DEBF0FBECDBFDF91FB
:10366000CF911F910F910895EF92FF920F931F93A7
:10367000CF93DF93CDB7DEB7A4970FB6F894DEBF34
:103680000FBECDBF82E089831A821B821C821D82FD
:103690001E821F82188619861A861B861C861D8626
:1036A00065EE73E0CE014E960E943D27CE014E9608
:1036B0000E940B1A2E8B488F6A8F8C8FCE014E96EC
:1036C0000E94D6268E898A83888D8B838A8D8C83EF
:1036D0008C8D8D836FED73E0CE014E960E943D2759
:1036E000CE014E960E940B1A2E8B488F6A8F8C8FBC
:1036F000CE014E960E94D6268E898E83888D8F832A
:103700008A8D88878C8D898769ED73E0CE014E960E
:103710000E943D27CE014E960E940B1A2E8B3F8BA6
:10372000488F598F6A8F7B8F8C8F9D8FCE014E96DD
:103730000E94D6268E898A87888D8B878A8D8C8772
:103740008C8D8D87809105018E8780916A028F878D
:103750008091020190910301998B888B80910001E7
:10376000909101019B8B8A8B809158029091590214
:103770009D8B8C8B8DB79EB745970FB6F8949EBFE7
:103780000FBE8DBFADB7BEB7119685E1FE01319674
:1037900001900D928A95E1F70E94811AFE013196FF
:1037A0007F010FB6F894DEBF0FBECDBF00E010E082
:1037B000F70161917F01C8016CA30E94D7326CA10F
:1037C000681719F0C8010E94DF320F5F1F4F0531E3
:1037D000110571F7A4960FB6F894DEBF0FBECDBFEA
:1037E000DF91CF911F910F91FF90EF9008950F936C
:1037F0001F93CF93DF9300D000D000D0CDB7DEB7BA
:103800008C010E94EE114AE0BC01C8010E94DB2637
:1038100067E272E0C8010E94AB250E9471100E940D
:10382000FB1080917E0290E00A972CF464E372E032
:10383000C8010E94AB250E9471100E94FB1060918C
:103840007E0270E04AE0CE0101960E94DB26BE01B6
:103850006F5F7F4FC8010E94E625CE0101960E944E
:10386000D62667E272E0C8010E94AB250E94711063
:103870000E94FB1080917D0290E00A972CF464E393
:1038800072E0C8010E94AB250E9471100E94FB10DB
:1038900060917D0270E04AE0CE0101960E94DB2635
:1038A000BE016F5F7F4FC8010E94E625CE010196E1
:1038B0000E94D62663E272E0C8010E94AB250E94F6
:1038C00008120A972CF464E372E0C8010E94AB2549
:1038D0000E9408124AE0BC01CE0101960E94DB263C
:1038E000BE016F5F7F4FC8010E94E625CE010196A1
:1038F0000E94D62665E272E0C8010E94AB250E94B4
:1039000000120A972CF464E372E0C8010E94AB2510
:103910000E9400124AE0BC01CE0101960E94DB2603
:10392000BE016F5F7F4FC8010E94E625CE01019660
:103930000E94D62665E272E0C8010E94AB250E9473
:10394000F8110A972CF464E372E0C8010E94AB25D9
:103950000E94F8114AE0BC01CE0101960E94DB26CC
:10396000BE016F5F7F4FC8010E94E625CE01019620
:103970000E94D626C80126960FB6F894DEBF0FBE69
:10398000CDBFDF91CF911F910F910895EF92FF92DC
:103990001F93CF93DF93CDB7DEB72C970FB6F89474
:1039A000DEBF0FBECDBF7B01142F4AE0BC01CE01AC
:1039B00001960E94DB2665E272E0CE0101960E942C
:1039C000AB25B701CE0101960E94E6256DE072E0BD
:1039D000CE0101960E94AB254D815E8169817A817D
:1039E00085EB92E00E94BB2568EC70E080E090E0FF
:1039F0000E94BA0F1123E1F0BE016F5F7F4FCE012D
:103A000007960E943D278091BA03843069F08EEAC0
:103A100093E00E94A014882339F0BE01695F7F4FB4
:103A20008EEA93E00E94B927CE0107960E94D6261F
:103A3000CE0101960E94D6262C960FB6F894DEBFD2
:103A40000FBECDBFDF91CF911F91FF90EF900895F2
:103A5000CF92DF92EF92FF921F93CF93DF93CDB778
:103A6000DEB72C970FB6F894DEBF0FBECDBF182F70
:103A700081113AC08091A402811136C00E94EE11DA
:103A80008D3D97408CF58091A302811126C10E9443
:103A9000F8116EE170E00E94D72F892B09F01DC14B
:103AA00066E775E0CE0101960E94342741E0BE0131
:103AB0006F5F7F4F83E090E00E94C61CCE010196AD
:103AC0000E94D62681E08093A3026FE072E0CE01CF
:103AD00001960E94462741E0BE016F5F7F4F81E063
:103AE00090E00E94C61CF4C00E94F40F6B017C01A0
:103AF0008091A402882309F470C080919F02909164
:103B0000A002A091A102B091A202C81AD90AEA0AA1
:103B1000FB0A409102015091030128EE33E0429FDD
:103B2000C001439F900D529F900D1124092E000C4F
:103B3000AA0BBB0BC816D906EA06FB0608F4DFC0C1
:103B400061E086E00E944E0F60E089E00E944E0F27
:103B500064E372E0CE0101960E94462741E0BE0177
:103B60006F5F7F4F86E090E00E94C61CCE010196F9
:103B70000E94D6261092A40210929F021092A002D8
:103B80001092A1021092A20262E675E0CE010196A7
:103B90000E943427CE0107960E94F71BBE01695F81
:103BA0007F4FCE0101960E94E625CE0107960E9426
:103BB000D626BE016F5F7F4FCE0107960E943D273C
:103BC00041E0BE01695F7F4F82E090E00E94C61C29
:103BD000CE0107960E94D6267BC011112AC00E94F2
:103BE000081220910001309101018217930709F01A
:103BF00086C00E940012209158023091590282170B
:103C0000930709F07CC00E94F811181619060CF0F1
:103C100076C00E94F811209102013091030137FF14
:103C200002C02F5F3F4F35952795281739070CF4B1
:103C300066C081E08093A40211115EC06AE275E063
:103C4000CE0101960E943427CE0107960E94F71BF1
:103C5000BE01695F7F4FCE0101960E94E625CE012D
:103C600007960E94D626BE016F5F7F4FCE01079652
:103C70000E943D2741E0BE01695F7F4F82E090E0F6
:103C80000E94C61CCE0107960E94D62660E086E000
:103C90000E944E0F61E089E00E944E0F6DE372E0DA
:103CA000CE0107960E94462741E0BE01695F7F4F23
:103CB00086E090E00E94C61CCE0107960E94D626A0
:103CC000C0929F02D092A002E092A102F092A202C2
:103CD000CE0101960E94D62612C08091A3028823AD
:103CE00071F00E94F81163E270E00E94D72F892BD7
:103CF00031F41092A30203C065E475E0A1CF2C96C5
:103D00000FB6F894DEBF0FBECDBFDF91CF911F91EC
:103D1000FF90EF90DF90CF900895CF93DF93CDB7D2
:103D2000DEB72C970FB6F894DEBF0FBECDBF4AE0CA
:103D300060910401CE0101960E94072769E272E0BA
:103D4000CE0101960E94AB25CE0107960E94F71B7B
:103D5000BE01695F7F4FCE0101960E94E625CE012C
:103D600007960E94D626BE016F5F7F4FCE01079651
:103D70000E943D2741E0BE01695F7F4F88E090E0EF
:103D80000E94C61CCE0107960E94D626CE0101963F
:103D90000E94D6262C960FB6F894DEBF0FBECDBF7C
:103DA000DF91CF9108950895CF93DF931F92CDB700
:103DB000DEB76983DC01ED91FC910280F381E02D97
:103DC00041E050E0BE016F5F7F4F09950F90DF919A
:103DD000CF910895FC01818D928D0895FC01848915
:103DE0009589089526EF31E0FC0131832083FB01A2
:103DF0004089518962897389FC01428353836483BA
:103E000075830895DC01ED91FC91008CF18DE02D1E
:103E10000994CF93DF931F92CDB7DEB7FC01218DBC
:103E2000328D232B49F0BE016F5F7F4F808D0E9442
:103E3000F812898190E002C08FEF9FEF0F90DF9121
:103E4000CF910895CF93DF93FC01218D328D211501
:103E5000310519F48FEF9FEF11C0EC0142175307A2
:103E600008F0A901888D0E9439131816190694F7D5
:103E7000298D3A8D281B390B3A8F298FDF91CF91ED
:103E800008950F931F93CF93DF931F92CDB7DEB7A3
:103E9000FC01218D328D232B61F08C0141E050E03B
:103EA000BE016F5F7F4F808D0E943913181619066F
:103EB0001CF08FEF9FEF08C0F801818D928D019764
:103EC000928F818F898190E00F90DF91CF911F9128
:103ED0000F9108950F931F93CF93DF93CDB7DEB764
:103EE00028970FB6F894DEBF0FBECDBF8C01F80146
:103EF000818D928D892B49F0D801ED91FC9106803E
:103F0000F781E02DC8010995F2CF808D0E9417132B
:103F1000181619065CF548E050E0BE016F5F7F4F50
:103F2000D80158968C910E9439139C0118161906D5
:103F3000DCF489819A81AB81BC81F801808B918B03
:103F4000A28BB38B8D8190E0982F88272E81820FD2
:103F5000911D958B848B2F8130E0322F222788850D
:103F6000280F311D328F218FC90102C080E090E0FF
:103F700028960FB6F894DEBF0FBECDBFDF91CF916C
:103F80001F910F910895AF92BF92CF92DF92FF924F
:103F90000F931F93CF93DF938C015B01EA01FC0128
:103FA000C688D788F08C80E590E00E94C5148F2DDC
:103FB0000E94D4238C179D0720F48F2D0E94D423B8
:103FC000EC019E01A501B6018F2D0E946F230E9476
:103FD000C414F801868997898C0F9D1F978B868B57
:103FE000CE01DF91CF911F910F91FF90DF90CF9085
:103FF000BF90AF900895CF92DF92EF92FF920F9310
:104000001F93CF93DF93CDB7DEB7AF970FB6F8947A
:10401000DEBF0FBECDBF7C016A0106EF11E01A833F
:1040200009831C861B8688EE93E0A0E0B0E08D87B4
:104030009E87AF87B88B8EE491E09A878987188F27
:104040000F8B198E1A8E1B8E1C8E84E089A31DA3E4
:104050000CA31EA21FA218A619A680919C039091E2
:104060009D03A0919E03B0919F038CA79DA7AEA72F
:10407000BFA78B839C83AD83BE8318861F82AE014E
:104080004C5D5F4FCE0101960E94901781309105E3
:10409000B1F4D701ED91FC910088F189E02D1BA7C7
:1040A0000AA78EA19FA1A8A5B9A58CA79DA7AEA779
:1040B000BFA7A601BE01665D7F4FC7010995AF96F8
:1040C0000FB6F894DEBF0FBECDBFDF91CF911F9129
:1040D0000F91FF90EF90DF90CF9008959B0190E0BB
:1040E0000496982F8827642F820F931F0C949212A6
:1040F000CF93C82F80E590E00E94C51460E170E086
:104100008C2F0E9425234FEF62E070E08C2F0E94DD
:104110006E20CF910C94C414CF93DF93EC01888D63
:10412000843061F00E947820E88DF0E0EE0FFF1FF0
:10413000E65AFD4F1182108284E0888FDF91CF9183
:1041400008950F931F93CF93DF931F92CDB7DEB7E0
:1041500090E00496982F88278C01060F171F0E9465
:1041600012128FE00E942C12812F0E942C12802F9D
:104170000E942C1280E00E942C1289830E9410124F
:1041800089810F90DF91CF911F910F9108951F9317
:10419000CF93DF931F92CDB7DEB7182F80E590E065
:1041A0000E94C51463E070E0812F0E94A1208983E2
:1041B0000E94C41489810F90DF91CF911F910895BF
:1041C000EF92FF921F93CF93DF93FC01208D243059
:1041D00011F080E01CC07B01EC0110E0812F0E94F7
:1041E000C720811102C0188F05C08831E1F31F5F1D
:1041F0001430A1F7888D843061F3FD86EC861A8E29
:10420000198E20E0A70162E00E94B41281E0DF91E4
:10421000CF911F91FF90EF900895CF93FC01C08D37
:1042200080E590E00E94C51460E270E08C2F0E944F
:10423000252362E070E08C2F0E94A12084FD19C02C
:1042400062E070E08C2F0E94A12083FF0BC048E148
:1042500062E070E08C2F0E946E200E94C41480E007
:1042600090E011C00E94C41480E590E00E94C51443
:10427000E0CF40E162E070E08C2F0E946E200E944F
:10428000C41481E090E0CF910895CF93DF93C82FBD
:10429000D62F472F60E170E00E946E204D2F61E124
:1042A00070E08C2FDF91CF910C946E20BF92CF9253
:1042B000DF92EF92FF920F931F93CF93DF9300D083
:1042C00000D000D0CDB7DEB7FC01208D243009F03E
:1042D00053C06A017B018C01B12C63E070E08B2D2F
:1042E0000E94A120811103C0F801B08E06C0883160
:1042F000D9F3B394F4E0BF12F0CFF801808D84308D
:10430000D9F196E0E0E2F1E0DE01119601900D9224
:104310009A95E1F7F70193819F779C8394819D8320
:1043200095819E83B7016E5F7F4F90E0982F88271D
:1043300044E050E0845F9B4F0E946312B601F80195
:10434000808D0E944521F801808D90E0982F88276C
:1043500046E050E0BE016F5F7F4F8A5F9B4F0E9437
:104360006312F801128E118E20E8A60162E0808DA2
:104370000E94B41281E001C080E026960FB6F89446
:10438000DEBF0FBECDBFDF91CF911F910F91FF9088
:10439000EF90DF90CF90BF900895FF920F931F93FF
:1043A000CF93DF93FB01DC0157961C921E92569728
:1043B0005896FC908281811109C08381811106C0C9
:1043C0008481811103C085818823F9F0411551054D
:1043D000E1F08A01EF0180E590E00E94C514BE0182
:1043E0006E5F7F4F2F2D30E0922F882744E050E002
:1043F000845F9B4F0E946312B8018F2D0E9445215C
:104400000E94C41481E090E002C080E090E0DF915F
:10441000CF911F910F91FF900895CF93DF936FE09D
:1044200072E085EB92E00E945B27EC016DE072E0A8
:1044300085EB92E00E945B278C0F9D1FDF91CF914F
:1044400008950F931F93CF93DF938C01C0E0D0E0CA
:10445000F801EC0FFD1F6491662371F0E091B50245
:10446000F091B6020190F081E02D85EB92E0099584
:10447000892B11F02196ECCFCE01DF91CF911F91C6
:104480000F910895CF93DF93DC01ED91FC910190A2
:10449000F081E02D65EB72E00995EC016DE072E0D2
:1044A00085EB92E00E945B278C0F9D1FDF91CF91DF
:1044B0000895BF92CF92DF92EF92FF920F931F93D6
:1044C000CF93DF937C016B018A01E9016CE271E01B
:1044D00080E090E00E94BA0FBFB6F8948091F2039A
:1044E000811127C0EEEAF6E08491EAE9F6E09491C2
:1044F000E82FF0E0EE0FFF1FEA57F94FA591B491B6
:10450000EC91E92321F461E08AE00E944E0F61E022
:104510008AE00E947E0F8CB580618CBD8CB5806472
:104520008CBD61E08DE00E947E0F61E08BE00E9417
:104530007E0F8091F2038F5F8093F203BFBE229AB9
:1045400080E590E00E94C51460E880E090E00E9461
:10455000921265E58BE190E00E94921265E58AE196
:1045600090E00E9492120E94C41480E090E4909324
:10457000A6028093A50280E090E69093AE0280931D
:10458000AD0280E098E49093A8028093A70280E0B7
:1045900098E69093B0028093AF0280E090E590930C
:1045A000AA028093A90280E090E79093B2028093E0
:1045B000B10280E098E59093AC028093AB0280E07A
:1045C00098E79093B4028093B30280E590E00E9454
:1045D000C51446E050E060E771E089E090E00E9499
:1045E0006312B7016E5F7F4F44E050E08FE090E0D0
:1045F0000E946312B8016E5F7F4F44E050E081E09B
:1046000090E00E946312BE016E5F7F4F44E050E075
:1046100085E090E00E9463120E94C414F60182813A
:104620009381A481B58180939C0390939D03A09373
:104630009E03B0939F03DF91CF911F910F91FF9045
:10464000EF90DF90CF90BF900895CF93C82F462F63
:1046500061E070E00E946E2061E070E08C2F0E94AB
:10466000A1208111F9CFCF9108950F931F930E943C
:10467000F40F6093BD027093BE028093BF029093CB
:10468000C002E091B502F091B6020680F781E02DFC
:1046900085EB92E0099597FF1FC00E94F40F0091EF
:1046A000BD021091BE022091BF023091C002DC0118
:1046B000CB01801B910BA20BB30B0091B90210919F
:1046C000BA022091BB023091BC0280179107A20769
:1046D000B307B8F28FEF9FEF1F910F9108959F924C
:1046E000AF92BF92CF92DF92EF92FF920F931F9300
:1046F000CF93DF93982E8B015A01690164E270E039
:104700000E94A120E82EF12C65E270E0892D0E9424
:10471000A120FE2CEE24E82AE701C00FD11F9E0144
:104720003770E92CF12CC701880F991FAC014B554C
:104730005D4F7A01FA0180819181820F931FA90157
:104740004C0D5D1D4130584090F000E018E0021B18
:10475000130BA801B5010E946312A601401B510B67
:10476000B501600F711FF7018081918102C0A60120
:10477000B5010E946312CC0DDD1D4D2F64E270E087
:10478000892D0E946E204C2F65E270E0892DDF910B
:10479000CF911F910F91FF90EF90DF90CF90BF903E
:1047A000AF909F900C946E20FF920F931F93CF9326
:1047B000DF93F82EC0E0D0E08F2D0E9414128C0100
:1047C000892B21F08F2D0E941412EC01C017D10704
:1047D00099F7CE01DF91CF911F910F91FF9008952E
:1047E0008F929F92AF92BF92CF92DF92EF92FF9201
:1047F0000F931F93CF93DF93B82E4B018A01A22E04
:1048000068E270E00E94A120C82FD0E069E270E069
:104810008B2D0E94A120DC2FCC27C82B9E01377046
:10482000CB2CD12CC601880F991FAC0143555D4F8D
:104830006A01FA0180819181820F931FA801420FC2
:10484000531F4130584098F060E078E07B01E21A55
:10485000F30AA701B4010E943312A8014E195F099F
:10486000B4016E0D7F1DF6018081918102C0A80107
:10487000B4010E943312A1100EC0C00FD11F4D2FE2
:1048800068E270E08B2D0E946E204C2F69E270E090
:104890008B2D0E946E20DF91CF911F910F91FF9081
:1048A000EF90DF90CF90BF90AF909F908F90089542
:1048B000FC0180819181009711F00C94343260E00A
:1048C00070E0CB010895BF92CF92DF92EF92FF92FA
:1048D0000F931F93CF93DF937C016B018A01E90152
:1048E0002417350720F4812F8901C42FD82F6FE0BA
:1048F00072E0C7010E944627D60114968D919C91C3
:10490000159708171907D0F48C179D0708F4EC01C8
:10491000D601ED91FC911197EC0FFD1FB080108234
:104920004D915C91BA01600F711FC7010E94A826CA
:10493000D601ED91FC91EC0FFD1FB082C701DF9114
:10494000CF911F910F91FF90EF90DF90CF90BF908C
:1049500008956F927F928F929F92AF92BF92CF9263
:10496000DF92EF92FF920F931F93CF93DF938C010F
:104970006A01EB01AC80BD80C5010197E0E0F0E089
:104980002FEF3FEF40E050E0A0E0B0E09E2E8F2EF2
:104990008E179F0764F1CA16DB062CF1EF012196F2
:1049A0007E01EA15FB0560F4EB01688079806114F3
:1049B000710431F0E301CE0FDF1FC881CC3731F035
:1049C000E817F90719F0922E832E09C01196A90154
:1049D0004F5F5F4FE817F90711F49E2C8F2CF701FA
:1049E000292D382DD3CFC8010E94632408C0CA16D0
:1049F000DB06CCF36FE072E0C8010E944627C801D5
:104A0000DF91CF911F910F91FF90EF90DF90CF90AA
:104A1000BF90AF909F908F907F906F900895CF93AD
:104A2000DF93FC0124813581232B69F0C081D18182
:104A3000062E000C770BCE010E940A32009719F067
:104A40008C1B9D0B02C08FEF9FEFDF91CF910895DC
:104A5000FC01248135816217730720F480819181E4
:104A6000009729F41092F10381EF93E00895860FE7
:104A7000971F0895EF92FF920F931F93CF93DF93A9
:104A8000FC01248135816115710511F480E019C0A4
:104A900041155105A9F07B01EC018A01020F131F9A
:104AA000B8010E942626882389F3288139818C81C8
:104AB0009D81B701820F931F0E941E321D830C83BC
:104AC00081E0DF91CF911F910F91FF90EF900895BA
:104AD000EF92FF920F931F93CF93DF93CDB7DEB783
:104AE00028970FB6F894DEBF0FBECDBF7C01CB0177
:104AF0004AE08E010F5F1F4FB8010E947F32F8011C
:104B000001900020E9F73197AF01401B510BB8012C
:104B1000C7010E943A2528960FB6F894DEBF0FBE53
:104B2000CDBFDF91CF911F910F91FF90EF9008952E
:104B3000CF93DF9300D0CDB7DEB769831A8241E00F
:104B400050E0BE016F5F7F4F0E943A250F900F909B
:104B5000DF91CF9108956115710551F0FB0101902E
:104B60000020E9F73197AF01461B570B0C943A250B
:104B700080E008950895CF92DF92EF92FF920F9315
:104B80001F93CF93DF936C017A018B01C0E0D0E0DB
:104B9000CE15DF0589F0D8016D918D01D601ED911B
:104BA000FC910190F081E02DC6010995892B11F44B
:104BB0007E0102C02196ECCFC701DF91CF911F91FA
:104BC0000F91FF90EF90DF90CF900895FB0144810B
:104BD0005581608171810C943A250F931F93CF9377
:104BE000DF938C01EB01FC01808191810097B1F092
:104BF000688179816115710579F0428153812C8139
:104C00003D814217530740F00E941E328C819D81E6
:104C1000F8019583848313C00E949A30888199811A
:104C2000F801918380838A819B81938382838C8125
:104C30009D8195838483198218821B821A821D822A
:104C40001C82DF91CF911F910F9108950F931F93B5
:104C5000CF93DF93EC0188819981009729F02A8115
:104C60003B812617370788F48B016F5F7F4F0E94C7
:104C70003231009761F0998388831B830A832C81EA
:104C80003D81232B11F4FC01108281E001C080E002
:104C9000DF91CF911F910F910895CF93DF93EC0196
:104CA00088819981009711F00E949A3019821882A8
:104CB0001D821C821B821A82DF91CF910895EF9290
:104CC000FF920F931F93CF93DF93EC018B0161153C
:104CD000710551F0CB010E946B327C01BC01CE0109
:104CE0000E942626811104C0CE010E944D2607C0D5
:104CF000FD82EC82B801888199810E946432CE01E4
:104D0000DF91CF911F910F91FF90EF900895EF9257
:104D1000FF920F931F93CF93DF93EC017B018A01E6
:104D2000BA010E942626811104C0CE010E944D26A0
:104D300007C01D830C83B701888199810E941E32B0
:104D4000CE01DF91CF911F910F91FF90EF900895C9
:104D5000CF93DF93EC016115710559F0FB010190D0
:104D60000020E9F73197AF01461B570B0E948726B9
:104D700002C00E944D26CE01DF91CF910895CF93BE
:104D8000DF93EC01FB018617970761F06081718169
:104D90006115710529F0448155810E94872602C062
:104DA0000E944D26CE01DF91CF910895FC018081B4
:104DB00091810C949A300F931F93CF93DF93CDB7CB
:104DC000DEB762970FB6F894DEBF0FBECDBF8C0181
:104DD000CB01F80111821082138212821582148293
:104DE00050E0BE016F5F7F4F0E947432BE016F5F63
:104DF0007F4FC8010E94A82662960FB6F894DEBFC6
:104E00000FBECDBFDF91CF911F910F9108950F93EA
:104E10001F93CF93DF93CDB7DEB729970FB6F894E2
:104E2000DEBF0FBECDBF8C01862FF801118210822C
:104E3000138212821582148250E0BE016F5F7F4F91
:104E400090E00E949F32BE016F5F7F4FC8010E94B9
:104E5000A82629960FB6F894DEBF0FBECDBFDF910E
:104E6000CF911F910F910895FC011182108213823E
:104E70001282158214820C945F26FC01118210822A
:104E800013821282158214820C94BF26FC011182B7
:104E9000108213821282158214826115710551F0FD
:104EA000FB0101900020E9F73197AF01461B570B3A
:104EB0000C94872608956115710579F0FB01019026
:104EC0000020E9F73197AF01461B570BDC01ED914C
:104ED000FC910280F381E02D099480E090E0089538
:104EE0004F925F926F927F92EF92FF920F931F9378
:104EF000CF93DF93CDB7DEB7A1970FB6F894DEBF9F
:104F00000FBECDBF7C01FA01CB0119A2223008F4FB
:104F10002AE08E010F5D1F4F422E512C612C712C07
:104F2000BF01A30192010E94ED32F901CA010150B3
:104F300011096A3014F4605D01C0695CD8016C939A
:104F4000232B242B252B61F7B801C7010E945B2777
:104F5000A1960FB6F894DEBF0FBECDBFDF91CF9103
:104F60001F910F91FF90EF907F906F905F904F9007
:104F700008950F931F93CF93DF93EC01E881F9819C
:104F8000DB0114964D915C9115976D917C91028097
:104F9000F381E02D09958C016DE072E0CE010E9455
:104FA0005B27800F911FDF91CF911F910F91089583
:104FB000CF93DF93CDB7DEB7A7970FB6F894DEBFD8
:104FC0000FBECDBF789484B5826084BD84B5816006
:104FD00084BD85B5826085BD85B5816085BD8091C4
:104FE0006E00816080936E0010928100809181003C
:104FF0008260809381008091810081608093810034
:10500000809180008160809380008091B1008460F5
:105010008093B1008091B00081608093B000809156
:105020007A00846080937A0080917A008260809315
:105030007A0080917A00816080937A0080917A0072
:10504000806880937A001092C100109296031092AB
:1050500097031092980310929903109254031092A0
:10506000550310925603109257030E94F40F6B01E0
:105070007C014B015C0128EB820E2BE0921EA11CEF
:10508000B11C0E94F40F6C157D058E059F0528F05C
:1050900086169706A806B906A0F785EB92E09093CE
:1050A000950380939403E091C502F091C60282E0DB
:1050B0008083E091C102F091C2021082E091C302AC
:1050C000F091C40280E180831092CD02E091C90288
:1050D000F091CA0286E08083E091C702F091C80295
:1050E000808180618083E091C702F091C802808155
:1050F00088608083E091C702F091C8028081806857
:105100008083E091C702F091C80280818F7D808307
:105110000E94F40F609354037093550380935603D9
:10512000909357036EEF71E08091940390919503F3
:105130000E945B270E94F40F6B017C014B015C0114
:105140003AE0830E911CA11CB11C0E94F40F6C1557
:105150007D058E059F0528F086169706A806B906D8
:10516000A0F781E0809368030FB6F894A89580912A
:105170006000886180936000109260000FBEE09133
:10518000C502F091C60212E01083E091C102F091D5
:10519000C2021082E091C302F091C4028FEC8083BE
:1051A0001092CD02E091C902F091CA0286E080839C
:1051B000E091C702F091C802808180618083E09114
:1051C000C702F091C802808188608083E091C702A5
:1051D000F091C802808180688083E091C702F091DD
:1051E000C80280818F7D808360E087E00E947E0F0F
:1051F00060E084E00E947E0F61E085E00E944E0F37
:1052000061E085E00E947E0F60E088E00E944E0F22
:1052100061E088E00E947E0F61E086E00E944E0F10
:1052200061E086E00E947E0F60E089E00E944E0F00
:1052300061E089E00E947E0F60E083E00E947E0FC3
:1052400019831A821B821C821D821E821F8218866D
:1052500019861A861B861C861D86AE014F5F5F4F1E
:105260006A01E12CF12C8A01C7010E94D732F601B4
:1052700081936F01FFEFEF1AFF0A25E1E216F104B7
:1052800099F781EB90E00E9421226DE072E085EBBE
:1052900092E00E945B274DB75EB7455151090FB6AA
:1052A000F8945EBF0FBE4DBFADB7BEB7119685E196
:1052B000F80101900D928A95E1F70E94811A0FB6CC
:1052C000F894DEBF0FBECDBF8981823009F01BC1CB
:1052D0004AE06A81CE0146960E940727BE016A5EB7
:1052E0007F4F85EE93E00E94ED25CE0146960E9409
:1052F000D62660E172E085EE93E00E94AB254AE09D
:105300006B81CE0146960E940727BE016A5E7F4FE1
:1053100085EE93E00E94E625CE0146960E94D626B1
:1053200060E172E085EE93E00E94AB254AE06C817B
:10533000CE0146960E940727BE016A5E7F4F85EE2A
:1053400093E00E94E625CE0146960E94D62660E1B3
:1053500072E085EE93E00E94AB254AE06D81CE01BC
:1053600046960E940727BE016A5E7F4F85EE93E056
:105370000E94E625CE0146960E94D6264AE06E811E
:10538000CE0146960E940727BE016A5E7F4F8FEDD1
:1053900093E00E94ED25CE0146960E94D62660E15C
:1053A00072E08FED93E00E94AB254AE06F81CE0161
:1053B00046960E940727BE016A5E7F4F8FED93E0FD
:1053C0000E94E625CE0146960E94D62660E172E054
:1053D0008FED93E00E94AB254AE06885CE014696AA
:1053E0000E940727BE016A5E7F4F8FED93E00E9407
:1053F000E625CE0146960E94D62660E172E08FED4A
:1054000093E00E94AB254AE06985CE0146960E9452
:105410000727BE016A5E7F4F8FED93E00E94E6256D
:10542000CE0146960E94D6264AE06A85CE0146966F
:105430000E940727BE016A5E7F4F89ED93E00E94BC
:10544000ED25CE0146960E94D62660E172E089EDF8
:1054500093E00E94AB254AE06B85CE0146960E9400
:105460000727BE016A5E7F4F89ED93E00E94E62523
:10547000CE0146960E94D62660E172E089ED93E067
:105480000E94AB254AE06C85CE0146960E94072714
:10549000BE016A5E7F4F89ED93E00E94E625CE0152
:1054A00046960E94D62660E172E089ED93E00E9464
:1054B000AB254AE06D85CE0146960E940727BE01C6
:1054C0006A5E7F4F89ED93E00E94E625CE01469605
:1054D0000E94D6268E85809305018F8580936A026F
:1054E0008889998990930301809302018A899B8915
:1054F00090930101809300018C899D8990935902BA
:105500008093580249C06DE870E0CE014C960E942D
:1055100034274AE062E070E0CE0146960E94DB2626
:10552000BE016A5E7F4FCE014C960E94E625CE01F9
:1055300046960E94D626E8A0F9A094E2E90EF11C56
:10554000B701CE014C960E942626882361F02C8D4F
:105550003D8D88A199A168E670E0820F931F0E949B
:105560006432F9A2E8A2BE01645E7F4FCE01469686
:105570000E943D2741E0BE016A5E7F4F83E090E0DC
:105580000E94C61CCE0146960E94D6260E94341B5D
:10559000CE014C960E94D6266091E5037091E603F9
:1055A00083ED93E00E949A0E811107C083E391E09E
:1055B0000E94212265EE73E01CC08EE291E00E9401
:1055C000212265EB72E083ED93E00E94360E0E948B
:1055D0000D226091DF037091E0038DEC93E00E9457
:1055E0009A0E81110BC084E191E00E9421226FED9F
:1055F00073E085EB92E00E94B92791C08EE091E0C4
:105600000E94212265EB72E08DEC93E00E94360E41
:105610000E940D226091D9037091DA0387EC93E028
:105620000E949A0E811107C080EF90E00E94212213
:1056300087EC93E072C086EE90E00E94212265EB39
:1056400072E087EC93E00E94360E0E940D2246EF36
:10565000E42E41E0F42EFBA2EAA28091C3039091D4
:10566000C403A091C503B091C6038CA39DA3AEA3B0
:10567000BFA3FD8EEC8E8091C9039091CA03A091C7
:10568000CB03B091CC038E8F9F8FA8A3B9A3FF8AC1
:10569000EE8A8091CF039091D003A091D103B09175
:1056A000D203888F998FAA8FBB8FFA82E98280916B
:1056B000D5039091D603A091D703B091D8038B83E3
:1056C0009C83AD83BE839E012E5D3F4FAE01445E41
:1056D0005F4FBE016A5E7F4FC8010E9459228BEB6B
:1056E00093E00E94C8148DEC90E00E942122FA827F
:1056F000E9821B821C821D821E8280E590E00E944E
:10570000C51444E050E0BE016D5F7F4F8FE090E034
:105710000E9433120E94C414C8010E94422299E2DE
:1057200088E10FB6F894A895809360000FBE90931F
:10573000600081E08093780298EE492E93E0592E24
:10574000612C712C2AE0A22EB12C38E0832E912CF2
:1057500080916C02811101C0A89580917802882304
:1057600009F48AC28BEB93E00E9479158AE5E82E52
:1057700082E0F82E312C1C821B824D825E826F8269
:105780007886E6EBF1E0FA83E9833D86F701219123
:1057900031917F018091BF039091C0032817390791
:1057A000B9F5C8010E949814873111F08C3181F548
:1057B000C8010E941C14892B59F12B813C81CD809A
:1057C000DE80EF80F88449855A856B857C858D85E0
:1057D000843009F499C03093B1032093B003C09290
:1057E000B203D092B303E092B403F092B5034093B6
:1057F000B6035093B7036093B8037093B9038093D3
:10580000BA036FE072E0CE014C960E94462710C0AA
:105810003394F4E03F12AFCF77C0682FCE014C969F
:105820000E9498258EEA93E00E941C14892B39F47B
:105830008EEA93E00E94A0148111F4CF0CC08EEA8E
:1058400093E00E9402148A3041F76AE0CE014C9640
:105850000E9498250FC0BE01645E7F4FC8010E9460
:105860003D2740E0B80184E090E00E94C61CC801DA
:105870000E94D6266FE072E0CE0146960E9446272F
:105880006EE072E0CE014C960E9494038823A1F151
:1058900060E070E0CE014C960E942825FC018081DA
:1058A00080330CF4ECC160E070E0CE014C960E94B5
:1058B0002825FC0180818A330CF0E1C1F5C188A163
:1058C00099A1892BC1F56AE0CE014C960E940F2563
:1058D0000196B1F06FE072E0CE0146960E94462735
:1058E00088A199A1892B79F16EE072E08C8D9D8D54
:1058F0000E941532892B39F5CE0146960E94D62694
:10590000CE014C960E94D62685EB92E00E943E0D79
:10591000181619067CF56FE072E0CE014C960E94D5
:1059200046270E94352397FDCACF682FCE014C969B
:105930000E949825F6CF6AE0CE014C960E940F2572
:10594000019609F6C6C160E070E0CE014C960E9457
:105950002825FC01808180330CF4C2C160E070E036
:10596000CE014C960E942825FC0180818A330CF0E0
:10597000B7C1D0C180916C02882309F45CC08091CA
:105980006B028823B9F010926B026EED71E0C801D2
:105990000E94342741E0B80182E090E00E94C61CDA
:1059A000C8010E94D62610926C0290920701809244
:1059B000060141C060910601709107014AE0C801EB
:1059C0000E94DB26B801CE0146960E943D2744E0A6
:1059D00050E062E172E0CE0146960E943A258823AB
:1059E00009F4D9C1BE016A5E7F4FCE014C960E9478
:1059F0003D2741E0BE01645E7F4F83E090E00E945E
:105A0000C61CCE014C960E94D626CE0146960E9418
:105A1000D626C8010E94D6268091060190910701E2
:105A20000197909307018093060168EE73E080E090
:105A300090E00E94BA0F83E00E94250F90937702B6
:105A40008093760220917402309175028217930739
:105A5000A1F0019761F48091720290917302019616
:105A6000909373028093720281E00E94281D62E38A
:105A700070E080E090E00E94BA0F809176029091F1
:105A8000770290937502809374020E94F40F6B0169
:105A90007C0180910501882381F180916A0288232D
:105AA00001F18091660290916702A0916802B09125
:105AB0006902A7019601281B390B4A0B5B0BDA011F
:105AC000C901883E9340A105B105B8F0C0926602B5
:105AD000D0926702E0926802F09269020E948D1EE5
